{
  "contractName": "Dummy",
  "abi": [
    {
      "inputs": [],
      "name": "helloWorld",
      "outputs": [
        {
          "internalType": "string",
          "name": "message",
          "type": "string"
        }
      ],
      "stateMutability": "pure",
      "type": "function",
      "constant": true
    },
    {
      "inputs": [
        {
          "internalType": "address",
          "name": "_operator",
          "type": "address"
        },
        {
          "internalType": "address",
          "name": "_from",
          "type": "address"
        },
        {
          "internalType": "uint256",
          "name": "_tokenId",
          "type": "uint256"
        },
        {
          "internalType": "bytes",
          "name": "_data",
          "type": "bytes"
        }
      ],
      "name": "onERC721Received",
      "outputs": [
        {
          "internalType": "bytes4",
          "name": "",
          "type": "bytes4"
        }
      ],
      "stateMutability": "nonpayable",
      "type": "function"
    }
  ],
  "bytecode": "0x608060405234801561001057600080fd5b506103c6806100206000396000f3fe608060405234801561001057600080fd5b50600436106100365760003560e01c8063150b7a021461003b578063c605f76c1461006b575b600080fd5b610055600480360381019061005091906101f7565b610089565b60405161006291906102ba565b60405180910390f35b6100736100b7565b604051610080919061036e565b60405180910390f35b60007f150b7a023d4804d13e8c85fb27262cb750cf6ba9f9dd3bb30d90f482ceeb4b1f905095945050505050565b60606040518060400160405280600b81526020017f68656c6c6f20776f726c64000000000000000000000000000000000000000000815250905090565b600080fd5b600080fd5b600073ffffffffffffffffffffffffffffffffffffffff82169050919050565b6000610129826100fe565b9050919050565b6101398161011e565b811461014457600080fd5b50565b60008135905061015681610130565b92915050565b6000819050919050565b61016f8161015c565b811461017a57600080fd5b50565b60008135905061018c81610166565b92915050565b600080fd5b600080fd5b600080fd5b60008083601f8401126101b7576101b6610192565b5b8235905067ffffffffffffffff8111156101d4576101d3610197565b5b6020830191508360018202830111156101f0576101ef61019c565b5b9250929050565b600080600080600060808688031215610213576102126100f4565b5b600061022188828901610147565b955050602061023288828901610147565b94505060406102438882890161017d565b935050606086013567ffffffffffffffff811115610264576102636100f9565b5b610270888289016101a1565b92509250509295509295909350565b60007fffffffff0000000000000000000000000000000000000000000000000000000082169050919050565b6102b48161027f565b82525050565b60006020820190506102cf60008301846102ab565b92915050565b600081519050919050565b600082825260208201905092915050565b60005b8381101561030f5780820151818401526020810190506102f4565b8381111561031e576000848401525b50505050565b6000601f19601f8301169050919050565b6000610340826102d5565b61034a81856102e0565b935061035a8185602086016102f1565b61036381610324565b840191505092915050565b600060208201905081810360008301526103888184610335565b90509291505056fea2646970667358221220266944a558780be315bf7cab2a4f8c8aa4e5ab88d7e994225db931abd413cec464736f6c634300080b0033",
  "immutableReferences": {},
  "source": "pragma solidity >=0.4.22 <0.9.0;\n\ncontract Dummy{\n\n    function helloWorld() public pure returns(string memory message){\n        message = \"hello world\";\n    }\n    function onERC721Received(address _operator, address _from, uint256 _tokenId, bytes calldata _data) external returns(bytes4){\n        return bytes4(keccak256(\"onERC721Received(address,address,uint256,bytes)\"));\n    }\n\n}",
  "sourcePath": "/Users/alfielloyd/Documents/GitHub/academy-kitties-template/contracts/dummyContract.sol",
  "compiler": {
    "name": "solc",
    "version": "0.8.11+commit.d7f03943.Emscripten.clang"
  },
  "schemaVersion": "3.4.4",
  "updatedAt": "2022-02-13T02:42:31.998Z",
  "networkType": "ethereum",
  "devdoc": {
    "kind": "dev",
    "methods": {},
    "version": 1
  },
  "userdoc": {
    "kind": "user",
    "methods": {},
    "version": 1
  }
}