{
  "contractName": "FroggyContract",
  "abi": [
    {
      "anonymous": false,
      "inputs": [
        {
          "indexed": true,
          "internalType": "address",
          "name": "owner",
          "type": "address"
        },
        {
          "indexed": true,
          "internalType": "address",
          "name": "approved",
          "type": "address"
        },
        {
          "indexed": true,
          "internalType": "uint256",
          "name": "tokenId",
          "type": "uint256"
        }
      ],
      "name": "Approval",
      "type": "event"
    },
    {
      "anonymous": false,
      "inputs": [
        {
          "indexed": true,
          "internalType": "address",
          "name": "owner",
          "type": "address"
        },
        {
          "indexed": true,
          "internalType": "address",
          "name": "operator",
          "type": "address"
        },
        {
          "indexed": false,
          "internalType": "bool",
          "name": "approved",
          "type": "bool"
        }
      ],
      "name": "ApprovalForAll",
      "type": "event"
    },
    {
      "anonymous": false,
      "inputs": [
        {
          "indexed": false,
          "internalType": "address",
          "name": "owner",
          "type": "address"
        },
        {
          "indexed": false,
          "internalType": "uint256",
          "name": "tokenId",
          "type": "uint256"
        },
        {
          "indexed": false,
          "internalType": "uint256",
          "name": "mum",
          "type": "uint256"
        },
        {
          "indexed": false,
          "internalType": "uint256",
          "name": "dad",
          "type": "uint256"
        },
        {
          "indexed": false,
          "internalType": "uint256",
          "name": "genes",
          "type": "uint256"
        }
      ],
      "name": "Birth",
      "type": "event"
    },
    {
      "anonymous": false,
      "inputs": [
        {
          "indexed": true,
          "internalType": "address",
          "name": "from",
          "type": "address"
        },
        {
          "indexed": true,
          "internalType": "address",
          "name": "to",
          "type": "address"
        },
        {
          "indexed": true,
          "internalType": "uint256",
          "name": "tokenId",
          "type": "uint256"
        }
      ],
      "name": "Transfer",
      "type": "event"
    },
    {
      "inputs": [],
      "name": "GEN0FrogCap",
      "outputs": [
        {
          "internalType": "uint32",
          "name": "",
          "type": "uint32"
        }
      ],
      "stateMutability": "view",
      "type": "function",
      "constant": true
    },
    {
      "inputs": [],
      "name": "GEN0FrogCount",
      "outputs": [
        {
          "internalType": "uint32",
          "name": "",
          "type": "uint32"
        }
      ],
      "stateMutability": "view",
      "type": "function",
      "constant": true
    },
    {
      "inputs": [
        {
          "internalType": "uint256",
          "name": "",
          "type": "uint256"
        }
      ],
      "name": "frogIndexToOwner",
      "outputs": [
        {
          "internalType": "address",
          "name": "",
          "type": "address"
        }
      ],
      "stateMutability": "view",
      "type": "function",
      "constant": true
    },
    {
      "inputs": [
        {
          "internalType": "uint32",
          "name": "_dadId",
          "type": "uint32"
        },
        {
          "internalType": "uint32",
          "name": "_mumId",
          "type": "uint32"
        }
      ],
      "name": "breed",
      "outputs": [],
      "stateMutability": "nonpayable",
      "type": "function"
    },
    {
      "inputs": [
        {
          "internalType": "bytes4",
          "name": "_interfaceId",
          "type": "bytes4"
        }
      ],
      "name": "supportsInterface",
      "outputs": [
        {
          "internalType": "bool",
          "name": "",
          "type": "bool"
        }
      ],
      "stateMutability": "pure",
      "type": "function",
      "constant": true
    },
    {
      "inputs": [
        {
          "internalType": "address",
          "name": "owner",
          "type": "address"
        }
      ],
      "name": "balanceOf",
      "outputs": [
        {
          "internalType": "uint256",
          "name": "balance",
          "type": "uint256"
        }
      ],
      "stateMutability": "view",
      "type": "function",
      "constant": true
    },
    {
      "inputs": [],
      "name": "totalSupply",
      "outputs": [
        {
          "internalType": "uint256",
          "name": "total",
          "type": "uint256"
        }
      ],
      "stateMutability": "view",
      "type": "function",
      "constant": true
    },
    {
      "inputs": [],
      "name": "name",
      "outputs": [
        {
          "internalType": "string",
          "name": "tokenName",
          "type": "string"
        }
      ],
      "stateMutability": "pure",
      "type": "function",
      "constant": true
    },
    {
      "inputs": [],
      "name": "symbol",
      "outputs": [
        {
          "internalType": "string",
          "name": "tokenSymbol",
          "type": "string"
        }
      ],
      "stateMutability": "pure",
      "type": "function",
      "constant": true
    },
    {
      "inputs": [
        {
          "internalType": "uint256",
          "name": "tokenId",
          "type": "uint256"
        }
      ],
      "name": "ownerOf",
      "outputs": [
        {
          "internalType": "address",
          "name": "owner",
          "type": "address"
        }
      ],
      "stateMutability": "view",
      "type": "function",
      "constant": true
    },
    {
      "inputs": [
        {
          "internalType": "address",
          "name": "to",
          "type": "address"
        },
        {
          "internalType": "uint256",
          "name": "tokenId",
          "type": "uint256"
        }
      ],
      "name": "transfer",
      "outputs": [],
      "stateMutability": "nonpayable",
      "type": "function"
    },
    {
      "inputs": [
        {
          "internalType": "uint256",
          "name": "_genes",
          "type": "uint256"
        }
      ],
      "name": "createFrogGen0",
      "outputs": [
        {
          "internalType": "uint256",
          "name": "",
          "type": "uint256"
        }
      ],
      "stateMutability": "nonpayable",
      "type": "function"
    },
    {
      "inputs": [
        {
          "internalType": "uint256",
          "name": "tokenId",
          "type": "uint256"
        }
      ],
      "name": "getFrogDetails",
      "outputs": [
        {
          "internalType": "uint256",
          "name": "genes",
          "type": "uint256"
        },
        {
          "internalType": "uint64",
          "name": "birthTime",
          "type": "uint64"
        },
        {
          "internalType": "uint32",
          "name": "mumId",
          "type": "uint32"
        },
        {
          "internalType": "uint32",
          "name": "dadId",
          "type": "uint32"
        },
        {
          "internalType": "uint16",
          "name": "generation",
          "type": "uint16"
        },
        {
          "internalType": "address",
          "name": "owner",
          "type": "address"
        }
      ],
      "stateMutability": "view",
      "type": "function",
      "constant": true
    },
    {
      "inputs": [
        {
          "internalType": "address",
          "name": "_approved",
          "type": "address"
        },
        {
          "internalType": "uint256",
          "name": "_tokenId",
          "type": "uint256"
        }
      ],
      "name": "approve",
      "outputs": [],
      "stateMutability": "nonpayable",
      "type": "function"
    },
    {
      "inputs": [
        {
          "internalType": "address",
          "name": "_operator",
          "type": "address"
        },
        {
          "internalType": "bool",
          "name": "_approved",
          "type": "bool"
        }
      ],
      "name": "setApprovalForAll",
      "outputs": [],
      "stateMutability": "nonpayable",
      "type": "function"
    },
    {
      "inputs": [
        {
          "internalType": "uint256",
          "name": "_tokenId",
          "type": "uint256"
        }
      ],
      "name": "getApproved",
      "outputs": [
        {
          "internalType": "address",
          "name": "",
          "type": "address"
        }
      ],
      "stateMutability": "view",
      "type": "function",
      "constant": true
    },
    {
      "inputs": [
        {
          "internalType": "address",
          "name": "_owner",
          "type": "address"
        },
        {
          "internalType": "address",
          "name": "_operator",
          "type": "address"
        }
      ],
      "name": "isApprovedForAll",
      "outputs": [
        {
          "internalType": "bool",
          "name": "",
          "type": "bool"
        }
      ],
      "stateMutability": "view",
      "type": "function",
      "constant": true
    },
    {
      "inputs": [
        {
          "internalType": "address",
          "name": "_from",
          "type": "address"
        },
        {
          "internalType": "address",
          "name": "_to",
          "type": "address"
        },
        {
          "internalType": "uint256",
          "name": "_tokenId",
          "type": "uint256"
        }
      ],
      "name": "transferFrom",
      "outputs": [],
      "stateMutability": "nonpayable",
      "type": "function"
    },
    {
      "inputs": [
        {
          "internalType": "address",
          "name": "_from",
          "type": "address"
        },
        {
          "internalType": "address",
          "name": "_to",
          "type": "address"
        },
        {
          "internalType": "uint256",
          "name": "_tokenId",
          "type": "uint256"
        }
      ],
      "name": "safeTransferFrom",
      "outputs": [],
      "stateMutability": "nonpayable",
      "type": "function"
    },
    {
      "inputs": [
        {
          "internalType": "address",
          "name": "_from",
          "type": "address"
        },
        {
          "internalType": "address",
          "name": "_to",
          "type": "address"
        },
        {
          "internalType": "uint256",
          "name": "_tokenId",
          "type": "uint256"
        },
        {
          "internalType": "bytes",
          "name": "data",
          "type": "bytes"
        }
      ],
      "name": "safeTransferFrom",
      "outputs": [],
      "stateMutability": "nonpayable",
      "type": "function"
    }
  ],
  "bytecode": "0x6080604052600a600060146101000a81548163ffffffff021916908363ffffffff16021790555034801561003257600080fd5b50336000806101000a81548173ffffffffffffffffffffffffffffffffffffffff021916908373ffffffffffffffffffffffffffffffffffffffff160217905550612c6f806100826000396000f3fe608060405234801561001057600080fd5b506004361061012c5760003560e01c80636352211e116100ad578063ab08175511610071578063ab08175514610353578063b1c06e2214610371578063b88d4fde146103a6578063e985e9c5146103c2578063feb13f6c146103f25761012c565b80636352211e1461029d57806370a08231146102cd57806395d89b41146102fd578063a22cb4651461031b578063a9059cbb146103375761012c565b806323b872dd116100f457806323b872dd146101e957806324ab5e081461020557806335c96e471461022157806342842e0e146102515780634df404e21461026d5761012c565b806301ffc9a71461013157806306fdde0314610161578063081812fc1461017f578063095ea7b3146101af57806318160ddd146101cb575b600080fd5b61014b60048036038101906101469190611991565b610410565b60405161015891906119d9565b60405180910390f35b6101696104b0565b6040516101769190611a8d565b60405180910390f35b61019960048036038101906101949190611ae5565b6104ed565b6040516101a69190611b53565b60405180910390f35b6101c960048036038101906101c49190611b9a565b610572565b005b6101d36107f1565b6040516101e09190611be9565b60405180910390f35b61020360048036038101906101fe9190611c04565b6107fe565b005b61021f600480360381019061021a9190611c93565b610a68565b005b61023b60048036038101906102369190611ae5565b610b91565b6040516102489190611b53565b60405180910390f35b61026b60048036038101906102669190611c04565b610bc4565b005b61028760048036038101906102829190611ae5565b610be4565b6040516102949190611be9565b60405180910390f35b6102b760048036038101906102b29190611ae5565b610d09565b6040516102c49190611b53565b60405180910390f35b6102e760048036038101906102e29190611cd3565b610d8e565b6040516102f49190611be9565b60405180910390f35b610305610dd7565b6040516103129190611a8d565b60405180910390f35b61033560048036038101906103309190611d2c565b610e14565b005b610351600480360381019061034c9190611b9a565b610f80565b005b61035b6110b7565b6040516103689190611d7b565b60405180910390f35b61038b60048036038101906103869190611ae5565b6110cd565b60405161039d96959493929190611dd6565b60405180910390f35b6103c060048036038101906103bb9190611e9c565b6111a1565b005b6103dc60048036038101906103d79190611f24565b6111f8565b6040516103e991906119d9565b60405180910390f35b6103fa61128c565b6040516104079190611d7b565b60405180910390f35b60006380ac58cd60e01b7bffffffffffffffffffffffffffffffffffffffffffffffffffffffff1916827bffffffffffffffffffffffffffffffffffffffffffffffffffffffff191614806104a957506301ffc9a760e01b7bffffffffffffffffffffffffffffffffffffffffffffffffffffffff1916827bffffffffffffffffffffffffffffffffffffffffffffffffffffffff1916145b9050919050565b60606040518060400160405280600781526020017f414c46524f475300000000000000000000000000000000000000000000000000815250905090565b60006104f8826112a2565b610537576040517f08c379a000000000000000000000000000000000000000000000000000000000815260040161052e90611fd6565b60405180910390fd5b6005600083815260200190815260200160002060009054906101000a900473ffffffffffffffffffffffffffffffffffffffff169050919050565b61057b816112a2565b6105ba576040517f08c379a00000000000000000000000000000000000000000000000000000000081526004016105b190612042565b60405180910390fd5b6105c381610d09565b73ffffffffffffffffffffffffffffffffffffffff163373ffffffffffffffffffffffffffffffffffffffff16148061068a57506004600061060483610d09565b73ffffffffffffffffffffffffffffffffffffffff1673ffffffffffffffffffffffffffffffffffffffff16815260200190815260200160002060003373ffffffffffffffffffffffffffffffffffffffff1673ffffffffffffffffffffffffffffffffffffffff16815260200190815260200160002060009054906101000a900460ff165b6106c9576040517f08c379a00000000000000000000000000000000000000000000000000000000081526004016106c0906120fa565b60405180910390fd5b8173ffffffffffffffffffffffffffffffffffffffff163373ffffffffffffffffffffffffffffffffffffffff161415610738576040517f08c379a000000000000000000000000000000000000000000000000000000000815260040161072f90612166565b60405180910390fd5b816005600083815260200190815260200160002060006101000a81548173ffffffffffffffffffffffffffffffffffffffff021916908373ffffffffffffffffffffffffffffffffffffffff160217905550808273ffffffffffffffffffffffffffffffffffffffff166107ab83610d09565b73ffffffffffffffffffffffffffffffffffffffff167f8c5be1e5ebec7d5bd14f71427d1e84f3dd0314c0f7b2291e5b200ac8c7c3b92560405160405180910390a45050565b6000600180549050905090565b600073ffffffffffffffffffffffffffffffffffffffff168273ffffffffffffffffffffffffffffffffffffffff16141561086e576040517f08c379a0000000000000000000000000000000000000000000000000000000008152600401610865906121f8565b60405180910390fd5b3073ffffffffffffffffffffffffffffffffffffffff168273ffffffffffffffffffffffffffffffffffffffff1614156108dd576040517f08c379a00000000000000000000000000000000000000000000000000000000081526004016108d49061228a565b60405180910390fd5b8273ffffffffffffffffffffffffffffffffffffffff163373ffffffffffffffffffffffffffffffffffffffff16148061091d575061091c83336111f8565b5b8061095b575061092c816104ed565b73ffffffffffffffffffffffffffffffffffffffff163373ffffffffffffffffffffffffffffffffffffffff16145b61099a576040517f08c379a000000000000000000000000000000000000000000000000000000000815260040161099190612342565b60405180910390fd5b6109a381610d09565b73ffffffffffffffffffffffffffffffffffffffff168373ffffffffffffffffffffffffffffffffffffffff1614610a10576040517f08c379a0000000000000000000000000000000000000000000000000000000008152600401610a07906123d4565b60405180910390fd5b610a19816112a2565b610a58576040517f08c379a0000000000000000000000000000000000000000000000000000000008152600401610a4f90612440565b60405180910390fd5b610a638383836112b3565b505050565b610a778263ffffffff16610d09565b73ffffffffffffffffffffffffffffffffffffffff163373ffffffffffffffffffffffffffffffffffffffff16148015610aea5750610abb8163ffffffff16610d09565b73ffffffffffffffffffffffffffffffffffffffff163373ffffffffffffffffffffffffffffffffffffffff16145b610b29576040517f08c379a0000000000000000000000000000000000000000000000000000000008152600401610b20906124d2565b60405180910390fd5b600080610b3b8463ffffffff166110cd565b5094505050509150600080610b558563ffffffff166110cd565b50945050505091506000610b69858461147a565b90506000610b7785846114c8565b9050610b8682888a843361151c565b505050505050505050565b60026020528060005260406000206000915054906101000a900473ffffffffffffffffffffffffffffffffffffffff1681565b610bdf83838360405180602001604052806000815250611743565b505050565b60008060009054906101000a900473ffffffffffffffffffffffffffffffffffffffff1673ffffffffffffffffffffffffffffffffffffffff163373ffffffffffffffffffffffffffffffffffffffff1614610c3f57600080fd5b600060149054906101000a900463ffffffff1663ffffffff16600060189054906101000a900463ffffffff1663ffffffff161115610cb2576040517f08c379a0000000000000000000000000000000000000000000000000000000008152600401610ca990612564565b60405180910390fd5b6000601881819054906101000a900463ffffffff1680929190610cd4906125b3565b91906101000a81548163ffffffff021916908363ffffffff16021790555050610d028260008060003361151c565b9050919050565b6000610d14826112a2565b610d53576040517f08c379a0000000000000000000000000000000000000000000000000000000008152600401610d4a9061262c565b60405180910390fd5b6002600083815260200190815260200160002060009054906101000a900473ffffffffffffffffffffffffffffffffffffffff169050919050565b6000600360008373ffffffffffffffffffffffffffffffffffffffff1673ffffffffffffffffffffffffffffffffffffffff168152602001908152602001600020549050919050565b60606040518060400160405280600381526020017f414c460000000000000000000000000000000000000000000000000000000000815250905090565b8173ffffffffffffffffffffffffffffffffffffffff163373ffffffffffffffffffffffffffffffffffffffff161415610e83576040517f08c379a0000000000000000000000000000000000000000000000000000000008152600401610e7a906126be565b60405180910390fd5b80600460003373ffffffffffffffffffffffffffffffffffffffff1673ffffffffffffffffffffffffffffffffffffffff16815260200190815260200160002060008473ffffffffffffffffffffffffffffffffffffffff1673ffffffffffffffffffffffffffffffffffffffff16815260200190815260200160002060006101000a81548160ff0219169083151502179055508173ffffffffffffffffffffffffffffffffffffffff163373ffffffffffffffffffffffffffffffffffffffff167f17307eab39ab6107e8899845ad3d59bd9653f200f220920489ca2b5937696c3183604051610f7491906119d9565b60405180910390a35050565b600073ffffffffffffffffffffffffffffffffffffffff168273ffffffffffffffffffffffffffffffffffffffff161415610ff0576040517f08c379a0000000000000000000000000000000000000000000000000000000008152600401610fe79061272a565b60405180910390fd5b3073ffffffffffffffffffffffffffffffffffffffff168273ffffffffffffffffffffffffffffffffffffffff16141561105f576040517f08c379a00000000000000000000000000000000000000000000000000000000081526004016110569061228a565b60405180910390fd5b611069338261179f565b6110a8576040517f08c379a000000000000000000000000000000000000000000000000000000000815260040161109f90612796565b60405180910390fd5b6110b33383836112b3565b5050565b600060149054906101000a900463ffffffff1681565b6000806000806000806000600188815481106110ec576110eb6127b6565b5b90600052602060002090600202019050806000015496508060010160009054906101000a900467ffffffffffffffff1695508060010160089054906101000a900463ffffffff16945080600101600c9054906101000a900463ffffffff1693508060010160109054906101000a900461ffff1692506002600089815260200190815260200160002060009054906101000a900473ffffffffffffffffffffffffffffffffffffffff1691505091939550919395565b6111f185858585858080601f016020809104026020016040519081016040528093929190818152602001838380828437600081840152601f19601f82011690508083019250505050505050611743565b5050505050565b6000600460008473ffffffffffffffffffffffffffffffffffffffff1673ffffffffffffffffffffffffffffffffffffffff16815260200190815260200160002060008373ffffffffffffffffffffffffffffffffffffffff1673ffffffffffffffffffffffffffffffffffffffff16815260200190815260200160002060009054906101000a900460ff16905092915050565b600060189054906101000a900463ffffffff1681565b600060018054905082109050919050565b600360008373ffffffffffffffffffffffffffffffffffffffff1673ffffffffffffffffffffffffffffffffffffffff1681526020019081526020016000206000815480929190611303906127e5565b9190505550816002600083815260200190815260200160002060006101000a81548173ffffffffffffffffffffffffffffffffffffffff021916908373ffffffffffffffffffffffffffffffffffffffff160217905550600073ffffffffffffffffffffffffffffffffffffffff168373ffffffffffffffffffffffffffffffffffffffff161461141a57600360008473ffffffffffffffffffffffffffffffffffffffff1673ffffffffffffffffffffffffffffffffffffffff16815260200190815260200160002060008154809291906113de9061282e565b91905055506005600082815260200190815260200160002060006101000a81549073ffffffffffffffffffffffffffffffffffffffff02191690555b808273ffffffffffffffffffffffffffffffffffffffff163373ffffffffffffffffffffffffffffffffffffffff167fddf252ad1be2c89b69c2b068fc378daa952ba7f163c4a11628f55a4df523b3ef60405160405180910390a4505050565b6000806305f5e1008461148d9190612887565b905060006305f5e100846114a191906128b8565b905080826305f5e1006114b491906128e9565b6114be9190612943565b9250505092915050565b6000808361ffff161480156114e1575060008261ffff16145b156114ef5760019050611516565b6002600183856114ff9190612999565b6115099190612999565b61151391906129d1565b90505b92915050565b6000806040518060a001604052808881526020014267ffffffffffffffff1681526020018763ffffffff1681526020018663ffffffff1681526020018561ffff16815250905060018190806001815401808255809150506001900390600052602060002090600202016000909190919091506000820151816000015560208201518160010160006101000a81548167ffffffffffffffff021916908367ffffffffffffffff16021790555060408201518160010160086101000a81548163ffffffff021916908363ffffffff160217905550606082015181600101600c6101000a81548163ffffffff021916908363ffffffff16021790555060808201518160010160106101000a81548161ffff021916908361ffff160217905550505060006001808054905061164d9190612a02565b9050836002600083815260200190815260200160002060006101000a81548173ffffffffffffffffffffffffffffffffffffffff021916908373ffffffffffffffffffffffffffffffffffffffff160217905550600360008573ffffffffffffffffffffffffffffffffffffffff1673ffffffffffffffffffffffffffffffffffffffff16815260200190815260200160002060008154809291906116f1906127e5565b91905055507f0a5311bd2a6608f08a180df2ee7c5946819a649b204b554bb8e39825b2c50ad5848289898c60405161172d959493929190612a71565b60405180910390a1809250505095945050505050565b61174e8484846107fe565b61175a8484848461180b565b611799576040517f08c379a000000000000000000000000000000000000000000000000000000000815260040161179090612b36565b60405180910390fd5b50505050565b60008273ffffffffffffffffffffffffffffffffffffffff166002600084815260200190815260200160002060009054906101000a900473ffffffffffffffffffffffffffffffffffffffff1673ffffffffffffffffffffffffffffffffffffffff1614905092915050565b600061181684611916565b611823576001905061190e565b60008473ffffffffffffffffffffffffffffffffffffffff1663150b7a02338887876040518563ffffffff1660e01b81526004016118649493929190612bab565b6020604051808303816000875af1158015611883573d6000803e3d6000fd5b505050506040513d601f19601f820116820180604052508101906118a79190612c0c565b90507f150b7a023d4804d13e8c85fb27262cb750cf6ba9f9dd3bb30d90f482ceeb4b1f7bffffffffffffffffffffffffffffffffffffffffffffffffffffffff1916817bffffffffffffffffffffffffffffffffffffffffffffffffffffffff1916149150505b949350505050565b600080823b905060008163ffffffff1611915050919050565b600080fd5b600080fd5b60007fffffffff0000000000000000000000000000000000000000000000000000000082169050919050565b61196e81611939565b811461197957600080fd5b50565b60008135905061198b81611965565b92915050565b6000602082840312156119a7576119a661192f565b5b60006119b58482850161197c565b91505092915050565b60008115159050919050565b6119d3816119be565b82525050565b60006020820190506119ee60008301846119ca565b92915050565b600081519050919050565b600082825260208201905092915050565b60005b83811015611a2e578082015181840152602081019050611a13565b83811115611a3d576000848401525b50505050565b6000601f19601f8301169050919050565b6000611a5f826119f4565b611a6981856119ff565b9350611a79818560208601611a10565b611a8281611a43565b840191505092915050565b60006020820190508181036000830152611aa78184611a54565b905092915050565b6000819050919050565b611ac281611aaf565b8114611acd57600080fd5b50565b600081359050611adf81611ab9565b92915050565b600060208284031215611afb57611afa61192f565b5b6000611b0984828501611ad0565b91505092915050565b600073ffffffffffffffffffffffffffffffffffffffff82169050919050565b6000611b3d82611b12565b9050919050565b611b4d81611b32565b82525050565b6000602082019050611b686000830184611b44565b92915050565b611b7781611b32565b8114611b8257600080fd5b50565b600081359050611b9481611b6e565b92915050565b60008060408385031215611bb157611bb061192f565b5b6000611bbf85828601611b85565b9250506020611bd085828601611ad0565b9150509250929050565b611be381611aaf565b82525050565b6000602082019050611bfe6000830184611bda565b92915050565b600080600060608486031215611c1d57611c1c61192f565b5b6000611c2b86828701611b85565b9350506020611c3c86828701611b85565b9250506040611c4d86828701611ad0565b9150509250925092565b600063ffffffff82169050919050565b611c7081611c57565b8114611c7b57600080fd5b50565b600081359050611c8d81611c67565b92915050565b60008060408385031215611caa57611ca961192f565b5b6000611cb885828601611c7e565b9250506020611cc985828601611c7e565b9150509250929050565b600060208284031215611ce957611ce861192f565b5b6000611cf784828501611b85565b91505092915050565b611d09816119be565b8114611d1457600080fd5b50565b600081359050611d2681611d00565b92915050565b60008060408385031215611d4357611d4261192f565b5b6000611d5185828601611b85565b9250506020611d6285828601611d17565b9150509250929050565b611d7581611c57565b82525050565b6000602082019050611d906000830184611d6c565b92915050565b600067ffffffffffffffff82169050919050565b611db381611d96565b82525050565b600061ffff82169050919050565b611dd081611db9565b82525050565b600060c082019050611deb6000830189611bda565b611df86020830188611daa565b611e056040830187611d6c565b611e126060830186611d6c565b611e1f6080830185611dc7565b611e2c60a0830184611b44565b979650505050505050565b600080fd5b600080fd5b600080fd5b60008083601f840112611e5c57611e5b611e37565b5b8235905067ffffffffffffffff811115611e7957611e78611e3c565b5b602083019150836001820283011115611e9557611e94611e41565b5b9250929050565b600080600080600060808688031215611eb857611eb761192f565b5b6000611ec688828901611b85565b9550506020611ed788828901611b85565b9450506040611ee888828901611ad0565b935050606086013567ffffffffffffffff811115611f0957611f08611934565b5b611f1588828901611e46565b92509250509295509295909350565b60008060408385031215611f3b57611f3a61192f565b5b6000611f4985828601611b85565b9250506020611f5a85828601611b85565b9150509250929050565b7f746f6b656e2049442070726f7669646564206973206e6f7420612076616c696460008201527f204e465400000000000000000000000000000000000000000000000000000000602082015250565b6000611fc06024836119ff565b9150611fcb82611f64565b604082019050919050565b60006020820190508181036000830152611fef81611fb3565b9050919050565b7f46726f6720646f6573206e6f7420657869737400000000000000000000000000600082015250565b600061202c6013836119ff565b915061203782611ff6565b602082019050919050565b6000602082019050818103600083015261205b8161201f565b9050919050565b7f4f6e6c7920746865206f776e6572206f72206f70657261746f72206f6620746860008201527f697320746f6b656e2063616e20617070726f766520616e6f746865722061646460208201527f7265737300000000000000000000000000000000000000000000000000000000604082015250565b60006120e46044836119ff565b91506120ef82612062565b606082019050919050565b60006020820190508181036000830152612113816120d7565b9050919050565b7f43616e277420617070726f766520796f757273656c6600000000000000000000600082015250565b60006121506016836119ff565b915061215b8261211a565b602082019050919050565b6000602082019050818103600083015261217f81612143565b9050919050565b7f726563696576696e6720636f6e7472616374206973206e6f7420612076616c6960008201527f6420616464726573730000000000000000000000000000000000000000000000602082015250565b60006121e26029836119ff565b91506121ed82612186565b604082019050919050565b60006020820190508181036000830152612211816121d5565b9050919050565b7f63616e6e6f74207472616e7366657220746f20636f6e7472616374206164647260008201527f6573730000000000000000000000000000000000000000000000000000000000602082015250565b60006122746023836119ff565b915061227f82612218565b604082019050919050565b600060208201905081810360008301526122a381612267565b9050919050565b7f4f6e6c7920746865204f776e65722f4f70657261746f722f417070726f76656460008201527f2061646472657373206f66207468697320746f6b656e2063616e207472616e7360208201527f666572207468697320746f6b656e000000000000000000000000000000000000604082015250565b600061232c604e836119ff565b9150612337826122aa565b606082019050919050565b6000602082019050818103600083015261235b8161231f565b9050919050565b7f746865205f66726f6d206164647265737320737461746564206973206e6f742060008201527f746865206f776e6572206f66207468697320746f6b656e200000000000000000602082015250565b60006123be6038836119ff565b91506123c982612362565b604082019050919050565b600060208201905081810360008301526123ed816123b1565b9050919050565b7f746f6b656e2073706563696669656420646f6573206e6f742065786973740000600082015250565b600061242a601e836119ff565b9150612435826123f4565b602082019050919050565b600060208201905081810360008301526124598161241d565b9050919050565b7f596f7520646f6e2774206f776e206f72206861766520706572736d697373696f60008201527f6e20746f20627265656420746865736520636174730000000000000000000000602082015250565b60006124bc6035836119ff565b91506124c782612460565b604082019050919050565b600060208201905081810360008301526124eb816124af565b9050919050565b7f4d6178206c696d6974206f662031302047656e302046726f677320637265617460008201527f6564000000000000000000000000000000000000000000000000000000000000602082015250565b600061254e6022836119ff565b9150612559826124f2565b604082019050919050565b6000602082019050818103600083015261257d81612541565b9050919050565b7f4e487b7100000000000000000000000000000000000000000000000000000000600052601160045260246000fd5b60006125be82611c57565b915063ffffffff8214156125d5576125d4612584565b5b600182019050919050565b7f546f6b656e20646f6573206e6f74206578697374000000000000000000000000600082015250565b60006126166014836119ff565b9150612621826125e0565b602082019050919050565b6000602082019050818103600083015261264581612609565b9050919050565b7f43616e6e6f742073657420796f757273656c6620617320616e206f706572617460008201527f6f72200000000000000000000000000000000000000000000000000000000000602082015250565b60006126a86023836119ff565b91506126b38261264c565b604082019050919050565b600060208201905081810360008301526126d78161269b565b9050919050565b7f63616e6e6f74207472616e7366657220746f207a65726f206164647265737300600082015250565b6000612714601f836119ff565b915061271f826126de565b602082019050919050565b6000602082019050818103600083015261274381612707565b9050919050565b7f596f7520646f206e6f74206f776e207468697320746f6b656e00000000000000600082015250565b60006127806019836119ff565b915061278b8261274a565b602082019050919050565b600060208201905081810360008301526127af81612773565b9050919050565b7f4e487b7100000000000000000000000000000000000000000000000000000000600052603260045260246000fd5b60006127f082611aaf565b91507fffffffffffffffffffffffffffffffffffffffffffffffffffffffffffffffff82141561282357612822612584565b5b600182019050919050565b600061283982611aaf565b9150600082141561284d5761284c612584565b5b600182039050919050565b7f4e487b7100000000000000000000000000000000000000000000000000000000600052601260045260246000fd5b600061289282611aaf565b915061289d83611aaf565b9250826128ad576128ac612858565b5b828204905092915050565b60006128c382611aaf565b91506128ce83611aaf565b9250826128de576128dd612858565b5b828206905092915050565b60006128f482611aaf565b91506128ff83611aaf565b9250817fffffffffffffffffffffffffffffffffffffffffffffffffffffffffffffffff048311821515161561293857612937612584565b5b828202905092915050565b600061294e82611aaf565b915061295983611aaf565b9250827fffffffffffffffffffffffffffffffffffffffffffffffffffffffffffffffff0382111561298e5761298d612584565b5b828201905092915050565b60006129a482611db9565b91506129af83611db9565b92508261ffff038211156129c6576129c5612584565b5b828201905092915050565b60006129dc82611db9565b91506129e783611db9565b9250826129f7576129f6612858565b5b828204905092915050565b6000612a0d82611aaf565b9150612a1883611aaf565b925082821015612a2b57612a2a612584565b5b828203905092915050565b6000819050919050565b6000612a5b612a56612a5184611c57565b612a36565b611aaf565b9050919050565b612a6b81612a40565b82525050565b600060a082019050612a866000830188611b44565b612a936020830187611bda565b612aa06040830186612a62565b612aad6060830185612a62565b612aba6080830184611bda565b9695505050505050565b7f5f746f20616464726573732063616e6e6f742074616b6520455243373231207460008201527f6f6b656e73000000000000000000000000000000000000000000000000000000602082015250565b6000612b206025836119ff565b9150612b2b82612ac4565b604082019050919050565b60006020820190508181036000830152612b4f81612b13565b9050919050565b600081519050919050565b600082825260208201905092915050565b6000612b7d82612b56565b612b878185612b61565b9350612b97818560208601611a10565b612ba081611a43565b840191505092915050565b6000608082019050612bc06000830187611b44565b612bcd6020830186611b44565b612bda6040830185611bda565b8181036060830152612bec8184612b72565b905095945050505050565b600081519050612c0681611965565b92915050565b600060208284031215612c2257612c2161192f565b5b6000612c3084828501612bf7565b9150509291505056fea2646970667358221220d315729bea81a2c870d88daaf68d171a1e31d002048e53e8bb4c79ac16ee318464736f6c634300080b0033",
  "immutableReferences": {},
  "source": "pragma solidity >=0.4.22 <0.9.0;\nimport \"./IERC721.sol\";\nimport \"./IERC165.sol\";\nimport \"./Owner.sol\";\n\ninterface IERC721TokenReceiver {\n    function onERC721Received(address _operator, address _from, uint256 _tokenId, bytes calldata _data) external returns(bytes4);\n}\n\n\ncontract FroggyContract is IERC721,IERC165,isOwner{\n\n    bytes4 constant MAGIC_NUMBER = bytes4(keccak256(\"onERC721Received(address,address,uint256,bytes)\"));\n    // _interface_id's are generated from the hashing of all IERC721 or IERC165 functions within the contract\n    // these hashes are constant as all token standard contracts will output the same hash \n    bytes4 private constant _INTERFACE_ID_ERC721 = 0x80ac58cd;\n    bytes4 private constant _INTERFACE_ID_ERC165 = 0x01ffc9a7;\n\n    string private constant _name = \"ALFROGS\";\n    string private constant _symbol = \"ALF\";\n\n    uint32 public GEN0FrogCap = 10;\n    uint32 public GEN0FrogCount;\n\n    event Birth(address owner, uint256 tokenId, uint256 mum, uint256 dad, uint256 genes);\n\n    struct Frog {\n        uint256 genes;\n        uint64 birthTime;\n        uint32 mumId;\n        uint32 dadId;\n        uint16 generation;\n    }\n\n    Frog[] Frogs;\n\n    mapping (uint256 => address) public frogIndexToOwner;\n    mapping (address => uint256) ownershipTokenCount;\n\n    mapping (address => mapping (address => bool)) OperatorApprovals;\n    mapping (uint256 => address) FrogIdxToApprovedAddress;\n\n    function breed(uint32 _dadId,uint32 _mumId) public{\n        require(msg.sender == ownerOf(_dadId) && msg.sender == ownerOf(_mumId), \"You don't own or have persmission to breed these cats\");\n        \n        (uint256 dadDNA,,,,uint16 dadGen,) = getFrogDetails(_dadId);\n        (uint256 mumDNA,,,,uint16 mumGen,) = getFrogDetails(_mumId);\n\n        uint256 newDna = _mixDna(dadDNA,mumDNA); \n        uint16 newGeneration = _calculateGen(dadGen,mumGen);\n\n        _createFrog(newDna,_mumId,_dadId,newGeneration,msg.sender);\n        \n    }\n\n    /**\n     * @dev Returns whether contract supports _interfaceId. \n     */\n    function supportsInterface(bytes4 _interfaceId) public pure returns(bool){\n        return _interfaceId == _INTERFACE_ID_ERC721 || _interfaceId == _INTERFACE_ID_ERC165;\n    }\n\n    /**\n     * @dev Returns the number of tokens in ``owner``'s account.\n     */\n    function balanceOf(address owner) public view returns (uint256 balance){\n        return ownershipTokenCount[owner];\n    }\n    /*\n     * @dev Returns the total number of tokens in circulation.\n     */\n    function totalSupply() public view returns (uint256 total){\n        return Frogs.length;\n    }\n    /*\n     * @dev Returns the name of the token.\n     */\n    function name() public pure returns (string memory tokenName){\n        return _name;\n    }\n    /*\n     * @dev Returns the symbol of the token.\n     */\n    function symbol() public pure returns (string memory tokenSymbol){\n        return _symbol;\n    }\n    /**\n     * @dev Returns the owner of the `tokenId` token.\n     *\n     * Requirements:\n     *\n     * - `tokenId` must exist.\n     */\n    function ownerOf(uint256 tokenId) public view returns (address owner){\n        require(_frogExists(tokenId), \"Token does not exist\");\n        return frogIndexToOwner[tokenId];\n    }\n     /* @dev Transfers `tokenId` token from `msg.sender` to `to`.\n     *\n     *\n     * Requirements:\n     *\n     * - `to` cannot be the zero address.\n     * - `to` can not be the contract address.\n     * - `tokenId` token must be owned by `msg.sender`.\n     *\n     * Emits a {Transfer} event.\n     */\n    function transfer(address to, uint256 tokenId) public{\n        require(to != address(0), \"cannot transfer to zero address\");\n        require(to != address(this), \"cannot transfer to contract address\");\n        require( _owns(msg.sender,tokenId), \"You do not own this token\");\n        \n        _transfer(msg.sender, to, tokenId);\n    }\n     /* @dev Transfers `tokenId` token from `msg.sender` to `to`.\n     * Returns true/false is _claimant owns _tokenId\n     */\n    function _owns(address _claimant, uint256 _tokenId) internal view returns (bool) {\n      return frogIndexToOwner[_tokenId] == _claimant;\n    }\n\n    function _transfer(address _from, address _to, uint256 _tokenId) private { \n        \n        ownershipTokenCount[_to] ++;\n        frogIndexToOwner[_tokenId] = _to;\n\n        if(_from != address(0)){\n            ownershipTokenCount[_from] --;   \n            delete FrogIdxToApprovedAddress[_tokenId];\n        }\n\n        // Emit the transfer event.\n        emit Transfer(msg.sender, _to, _tokenId);\n    }\n\n    function _createFrog(        \n        uint256 _genes,\n        uint32 _mumId,\n        uint32 _dadId,\n        uint16 _generation,\n        address _owner\n    ) private returns(uint256){\n\n        Frog memory newFrog = Frog(_genes,\n                                    uint64(block.timestamp),\n                                    _mumId,\n                                    _dadId,\n                                    _generation);\n\n        Frogs.push(newFrog);\n        uint256 newTokenId = Frogs.length - 1;\n        frogIndexToOwner[newTokenId] = _owner;\n        ownershipTokenCount[_owner] ++;\n\n        emit Birth(_owner,newTokenId,_mumId,_dadId,_genes);\n\n        return newTokenId;\n\n    }\n\n    function createFrogGen0(uint256 _genes) public onlyOwner returns(uint256) {\n        require(GEN0FrogCount<=GEN0FrogCap, \"Max limit of 10 Gen0 Frogs created\");\n        GEN0FrogCount++;\n        return _createFrog(_genes, 0,0,0,msg.sender);\n    }\n\n   \n    \n    function getFrogDetails(uint256 tokenId) public view returns(\n        uint256 genes,\n        uint64 birthTime,\n        uint32 mumId,\n        uint32 dadId,\n        uint16 generation,\n        address owner)\n    {\n        Frog storage frog = Frogs[tokenId];\n\n        genes = frog.genes;\n        birthTime = frog.birthTime;\n        mumId = frog.mumId;\n        dadId = frog.dadId;\n        generation = frog.generation;\n        owner = frogIndexToOwner[tokenId];        \n        \n    }\n\n    function approve(address _approved, uint256 _tokenId) external {\n        \n        require(_frogExists(_tokenId),\"Frog does not exist\");\n\n        require(msg.sender == ownerOf(_tokenId) || \n        OperatorApprovals[ownerOf(_tokenId)][msg.sender],\n        \"Only the owner or operator of this token can approve another address\");\n        \n        require(msg.sender != _approved, \"Can't approve yourself\");\n\n        FrogIdxToApprovedAddress[_tokenId] = _approved;\n\n        emit Approval(ownerOf(_tokenId), _approved, _tokenId);\n    }\n\n    function setApprovalForAll(address _operator, bool _approved) external{\n        require(msg.sender != _operator, \"Cannot set yourself as an operator \");\n        OperatorApprovals[msg.sender][_operator] = _approved;\n        emit ApprovalForAll(msg.sender, _operator, _approved);\n    }\n\n    function getApproved(uint256 _tokenId) public view returns(address){\n        require(_frogExists(_tokenId),\"token ID provided is not a valid NFT\");\n        return FrogIdxToApprovedAddress[_tokenId];\n    }\n\n    function isApprovedForAll(address _owner, address _operator) public view returns (bool){\n        return OperatorApprovals[_owner][_operator];\n    }\n    \n    function _frogExists(uint _tokenId) private view returns(bool){\n        return _tokenId< Frogs.length;\n    }\n\n\n    function transferFrom(address _from, address _to, uint256 _tokenId) public{\n        require(_to != address(0), \"recieving contract is not a valid address\");\n        require(_to != address(this), \"cannot transfer to contract address\");\n        require(msg.sender == _from || \n        isApprovedForAll(_from, msg.sender) || \n        msg.sender == getApproved(_tokenId),\n        \"Only the Owner/Operator/Approved address of this token can transfer this token\");\n        require(_from == ownerOf(_tokenId), \"the _from address stated is not the owner of this token \");\n        require(_frogExists(_tokenId), \"token specified does not exist\");\n\n        _transfer(_from, _to, _tokenId);\n    }   \n\n\n\n    ///  checks if `_to` is a smart contract (code size > 0). If so, it calls\n    ///  `onERC721Received` on `_to` and throws if the return value is not\n    ///  `bytes4(keccak256(\"onERC721Received(address,address,uint256,bytes)\"))`.\n    function safeTransferFrom(address _from, address _to, uint256 _tokenId, bytes calldata data) public{\n        _safeTransfer(_from, _to, _tokenId, data);\n    }\n\n    function safeTransferFrom(address _from, address _to, uint256 _tokenId) public{\n        _safeTransfer(_from, _to, _tokenId, \"\");\n    }\n\n    function _safeTransfer(address _from,address _to,uint _tokenId, bytes memory _data) internal {\n        transferFrom(_from, _to, _tokenId);\n        require(_checkERC721Support(_from,_to,_tokenId,_data),\"_to address cannot take ERC721 tokens\");\n    }\n\n    function _checkERC721Support(address _from, address _to, uint _tokenId, bytes memory _data) internal returns(bool){\n\n        if(!_isContract(_to)){\n            return true;\n        }else{\n            //do external call onERC721Received on the smart contract\n            bytes4 returnedData = IERC721TokenReceiver(_to).onERC721Received(msg.sender,_from,_tokenId,_data);\n            return returnedData == MAGIC_NUMBER;\n        }\n    }\n\n\n    function _isContract(address _addr) private view returns (bool isContract){\n        uint32 size;\n        assembly {\n            size := extcodesize(_addr)\n        }\n        return (size > 0);\n    }\n\n    function _mixDna(uint256 _dadDna, uint256 _mumDna) internal pure returns(uint256){\n\n        //11 22 33 44 55 66 77 88 \n        //12 34 45 56 67 78 89 01\n        uint256 dadHalf = _dadDna / 100000000;\n        uint256 mumHalf = _mumDna % 100000000;\n        return (100000000 * dadHalf) + mumHalf;\n    }\n\n    function _calculateGen(uint16 _dadGen, uint16 _mumGen) private pure returns(uint16){\n        //this function makes sure if breeding with higher generation number, the offspring will become lower generation\n        if(_dadGen == 0 && _mumGen == 0 ){\n            return 1;\n        }else{\n            return (_dadGen + _mumGen + 1) / 2;\n        }\n    }\n\n}   ",
  "sourcePath": "/Users/alfielloyd/Documents/GitHub/academy-kitties-template/contracts/FroggyContract.sol",
  "compiler": {
    "name": "solc",
    "version": "0.8.11+commit.d7f03943.Emscripten.clang"
  },
  "schemaVersion": "3.4.4",
  "updatedAt": "2022-02-18T23:56:14.543Z",
  "networkType": "ethereum",
  "devdoc": {
    "kind": "dev",
    "methods": {
      "approve(address,uint256)": {
        "details": "The zero address indicates there is no approved address.  Throws unless `msg.sender` is the current NFT owner, or an authorized  operator of the current owner.",
        "params": {
          "_approved": "The new approved NFT controller",
          "_tokenId": "The NFT to approve"
        }
      },
      "balanceOf(address)": {
        "details": "Returns the number of tokens in ``owner``'s account."
      },
      "getApproved(uint256)": {
        "details": "Throws if `_tokenId` is not a valid NFT.",
        "params": {
          "_tokenId": "The NFT to find the approved address for"
        },
        "returns": {
          "_0": "The approved address for this NFT, or the zero address if there is none"
        }
      },
      "isApprovedForAll(address,address)": {
        "params": {
          "_operator": "The address that acts on behalf of the owner",
          "_owner": "The address that owns the NFTs"
        },
        "returns": {
          "_0": "True if `_operator` is an approved operator for `_owner`, false otherwise"
        }
      },
      "ownerOf(uint256)": {
        "details": "Returns the owner of the `tokenId` token. Requirements: - `tokenId` must exist."
      },
      "safeTransferFrom(address,address,uint256)": {
        "details": "This works identically to the other function with an extra data parameter,  except this function just sets data to \"\".",
        "params": {
          "_from": "The current owner of the NFT",
          "_to": "The new owner",
          "_tokenId": "The NFT to transfer"
        }
      },
      "setApprovalForAll(address,bool)": {
        "details": "Emits the ApprovalForAll event. The contract MUST allow  multiple operators per owner.",
        "params": {
          "_approved": "True if the operator is approved, false to revoke approval",
          "_operator": "Address to add to the set of authorized operators"
        }
      },
      "supportsInterface(bytes4)": {
        "details": "Returns whether contract supports _interfaceId. "
      },
      "transferFrom(address,address,uint256)": {
        "details": "Throws unless `msg.sender` is the current owner, an authorized  operator, or the approved address for this NFT. Throws if `_from` is  not the current owner. Throws if `_to` is the zero address. Throws if  `_tokenId` is not a valid NFT.",
        "params": {
          "_from": "The current owner of the NFT",
          "_to": "The new owner",
          "_tokenId": "The NFT to transfer"
        }
      }
    },
    "version": 1
  },
  "userdoc": {
    "kind": "user",
    "methods": {
      "approve(address,uint256)": {
        "notice": "Change or reaffirm the approved address for an NFT"
      },
      "getApproved(uint256)": {
        "notice": "Get the approved address for a single NFT"
      },
      "isApprovedForAll(address,address)": {
        "notice": "Query if an address is an authorized operator for another address"
      },
      "safeTransferFrom(address,address,uint256)": {
        "notice": "Transfers the ownership of an NFT from one address to another address"
      },
      "safeTransferFrom(address,address,uint256,bytes)": {
        "notice": "checks if `_to` is a smart contract (code size > 0). If so, it calls  `onERC721Received` on `_to` and throws if the return value is not  `bytes4(keccak256(\"onERC721Received(address,address,uint256,bytes)\"))`."
      },
      "setApprovalForAll(address,bool)": {
        "notice": "Enable or disable approval for a third party (\"operator\") to manage  all of `msg.sender`'s assets"
      },
      "transferFrom(address,address,uint256)": {
        "notice": "Transfer ownership of an NFT -- THE CALLER IS RESPONSIBLE  TO CONFIRM THAT `_to` IS CAPABLE OF RECEIVING NFTS OR ELSE  THEY MAY BE PERMANENTLY LOST"
      }
    },
    "version": 1
  }
}