{
  "contractName": "FroggyContract",
  "abi": [
    {
      "anonymous": false,
      "inputs": [
        {
          "indexed": true,
          "internalType": "address",
          "name": "owner",
          "type": "address"
        },
        {
          "indexed": true,
          "internalType": "address",
          "name": "approved",
          "type": "address"
        },
        {
          "indexed": true,
          "internalType": "uint256",
          "name": "tokenId",
          "type": "uint256"
        }
      ],
      "name": "Approval",
      "type": "event"
    },
    {
      "anonymous": false,
      "inputs": [
        {
          "indexed": true,
          "internalType": "address",
          "name": "owner",
          "type": "address"
        },
        {
          "indexed": true,
          "internalType": "address",
          "name": "operator",
          "type": "address"
        },
        {
          "indexed": false,
          "internalType": "bool",
          "name": "approved",
          "type": "bool"
        }
      ],
      "name": "ApprovalForAll",
      "type": "event"
    },
    {
      "anonymous": false,
      "inputs": [
        {
          "indexed": false,
          "internalType": "address",
          "name": "owner",
          "type": "address"
        },
        {
          "indexed": false,
          "internalType": "uint256",
          "name": "tokenId",
          "type": "uint256"
        },
        {
          "indexed": false,
          "internalType": "uint256",
          "name": "mum",
          "type": "uint256"
        },
        {
          "indexed": false,
          "internalType": "uint256",
          "name": "dad",
          "type": "uint256"
        },
        {
          "indexed": false,
          "internalType": "uint256",
          "name": "genes",
          "type": "uint256"
        }
      ],
      "name": "Birth",
      "type": "event"
    },
    {
      "anonymous": false,
      "inputs": [
        {
          "indexed": true,
          "internalType": "address",
          "name": "from",
          "type": "address"
        },
        {
          "indexed": true,
          "internalType": "address",
          "name": "to",
          "type": "address"
        },
        {
          "indexed": true,
          "internalType": "uint256",
          "name": "tokenId",
          "type": "uint256"
        }
      ],
      "name": "Transfer",
      "type": "event"
    },
    {
      "inputs": [],
      "name": "GEN0FrogCap",
      "outputs": [
        {
          "internalType": "uint32",
          "name": "",
          "type": "uint32"
        }
      ],
      "stateMutability": "view",
      "type": "function",
      "constant": true
    },
    {
      "inputs": [],
      "name": "GEN0FrogCount",
      "outputs": [
        {
          "internalType": "uint32",
          "name": "",
          "type": "uint32"
        }
      ],
      "stateMutability": "view",
      "type": "function",
      "constant": true
    },
    {
      "inputs": [
        {
          "internalType": "uint256",
          "name": "",
          "type": "uint256"
        }
      ],
      "name": "frogIndexToOwner",
      "outputs": [
        {
          "internalType": "address",
          "name": "",
          "type": "address"
        }
      ],
      "stateMutability": "view",
      "type": "function",
      "constant": true
    },
    {
      "inputs": [
        {
          "internalType": "address",
          "name": "owner",
          "type": "address"
        }
      ],
      "name": "balanceOf",
      "outputs": [
        {
          "internalType": "uint256",
          "name": "balance",
          "type": "uint256"
        }
      ],
      "stateMutability": "view",
      "type": "function",
      "constant": true
    },
    {
      "inputs": [],
      "name": "totalSupply",
      "outputs": [
        {
          "internalType": "uint256",
          "name": "total",
          "type": "uint256"
        }
      ],
      "stateMutability": "view",
      "type": "function",
      "constant": true
    },
    {
      "inputs": [],
      "name": "name",
      "outputs": [
        {
          "internalType": "string",
          "name": "tokenName",
          "type": "string"
        }
      ],
      "stateMutability": "view",
      "type": "function",
      "constant": true
    },
    {
      "inputs": [],
      "name": "symbol",
      "outputs": [
        {
          "internalType": "string",
          "name": "tokenSymbol",
          "type": "string"
        }
      ],
      "stateMutability": "view",
      "type": "function",
      "constant": true
    },
    {
      "inputs": [
        {
          "internalType": "uint256",
          "name": "tokenId",
          "type": "uint256"
        }
      ],
      "name": "ownerOf",
      "outputs": [
        {
          "internalType": "address",
          "name": "owner",
          "type": "address"
        }
      ],
      "stateMutability": "view",
      "type": "function",
      "constant": true
    },
    {
      "inputs": [
        {
          "internalType": "address",
          "name": "to",
          "type": "address"
        },
        {
          "internalType": "uint256",
          "name": "tokenId",
          "type": "uint256"
        }
      ],
      "name": "transfer",
      "outputs": [],
      "stateMutability": "nonpayable",
      "type": "function"
    },
    {
      "inputs": [
        {
          "internalType": "uint256",
          "name": "_genes",
          "type": "uint256"
        }
      ],
      "name": "createFrogGen0",
      "outputs": [
        {
          "internalType": "uint256",
          "name": "",
          "type": "uint256"
        }
      ],
      "stateMutability": "nonpayable",
      "type": "function"
    },
    {
      "inputs": [
        {
          "internalType": "uint256",
          "name": "tokenId",
          "type": "uint256"
        }
      ],
      "name": "getFrogDetails",
      "outputs": [
        {
          "internalType": "uint256",
          "name": "genes",
          "type": "uint256"
        },
        {
          "internalType": "uint64",
          "name": "birthTime",
          "type": "uint64"
        },
        {
          "internalType": "uint32",
          "name": "mumId",
          "type": "uint32"
        },
        {
          "internalType": "uint32",
          "name": "dadId",
          "type": "uint32"
        },
        {
          "internalType": "uint16",
          "name": "generation",
          "type": "uint16"
        },
        {
          "internalType": "address",
          "name": "owner",
          "type": "address"
        }
      ],
      "stateMutability": "view",
      "type": "function",
      "constant": true
    },
    {
      "inputs": [
        {
          "internalType": "address",
          "name": "_approved",
          "type": "address"
        },
        {
          "internalType": "uint256",
          "name": "_tokenId",
          "type": "uint256"
        }
      ],
      "name": "approve",
      "outputs": [],
      "stateMutability": "nonpayable",
      "type": "function"
    },
    {
      "inputs": [
        {
          "internalType": "address",
          "name": "_operator",
          "type": "address"
        },
        {
          "internalType": "bool",
          "name": "_approved",
          "type": "bool"
        }
      ],
      "name": "setApprovalForAll",
      "outputs": [],
      "stateMutability": "nonpayable",
      "type": "function"
    },
    {
      "inputs": [
        {
          "internalType": "uint256",
          "name": "_tokenId",
          "type": "uint256"
        }
      ],
      "name": "getApproved",
      "outputs": [
        {
          "internalType": "address",
          "name": "",
          "type": "address"
        }
      ],
      "stateMutability": "view",
      "type": "function",
      "constant": true
    },
    {
      "inputs": [
        {
          "internalType": "address",
          "name": "_owner",
          "type": "address"
        },
        {
          "internalType": "address",
          "name": "_operator",
          "type": "address"
        }
      ],
      "name": "isApprovedForAll",
      "outputs": [
        {
          "internalType": "bool",
          "name": "",
          "type": "bool"
        }
      ],
      "stateMutability": "view",
      "type": "function",
      "constant": true
    }
  ],
  "bytecode": "0x6080604052600a600060146101000a81548163ffffffff021916908363ffffffff16021790555034801561003257600080fd5b50336000806101000a81548173ffffffffffffffffffffffffffffffffffffffff021916908373ffffffffffffffffffffffffffffffffffffffff160217905550611c04806100826000396000f3fe608060405234801561001057600080fd5b50600436106100f55760003560e01c806370a0823111610097578063ab08175511610066578063ab08175514610298578063b1c06e22146102b6578063e985e9c5146102eb578063feb13f6c1461031b576100f5565b806370a082311461021257806395d89b4114610242578063a22cb46514610260578063a9059cbb1461027c576100f5565b806318160ddd116100d357806318160ddd1461016457806335c96e47146101825780634df404e2146101b25780636352211e146101e2576100f5565b806306fdde03146100fa578063081812fc14610118578063095ea7b314610148575b600080fd5b610102610339565b60405161010f919061118c565b60405180910390f35b610132600480360381019061012d91906111e9565b610376565b60405161013f9190611257565b60405180910390f35b610162600480360381019061015d919061129e565b6103fb565b005b61016c610617565b60405161017991906112ed565b60405180910390f35b61019c600480360381019061019791906111e9565b610624565b6040516101a99190611257565b60405180910390f35b6101cc60048036038101906101c791906111e9565b610657565b6040516101d991906112ed565b60405180910390f35b6101fc60048036038101906101f791906111e9565b61077c565b6040516102099190611257565b60405180910390f35b61022c60048036038101906102279190611308565b610801565b60405161023991906112ed565b60405180910390f35b61024a61084a565b604051610257919061118c565b60405180910390f35b61027a6004803603810190610275919061136d565b610887565b005b6102966004803603810190610291919061129e565b6109f3565b005b6102a0610b2a565b6040516102ad91906113cc565b60405180910390f35b6102d060048036038101906102cb91906111e9565b610b40565b6040516102e296959493929190611427565b60405180910390f35b61030560048036038101906103009190611488565b610c14565b60405161031291906114d7565b60405180910390f35b610323610ca8565b60405161033091906113cc565b60405180910390f35b60606040518060400160405280600781526020017f414c46524f475300000000000000000000000000000000000000000000000000815250905090565b600061038182610cbe565b6103c0576040517f08c379a00000000000000000000000000000000000000000000000000000000081526004016103b790611564565b60405180910390fd5b6005600083815260200190815260200160002060009054906101000a900473ffffffffffffffffffffffffffffffffffffffff169050919050565b61040481610cbe565b610443576040517f08c379a000000000000000000000000000000000000000000000000000000000815260040161043a906115d0565b60405180910390fd5b61044c8161077c565b73ffffffffffffffffffffffffffffffffffffffff163373ffffffffffffffffffffffffffffffffffffffff16148061051357506004600061048d8361077c565b73ffffffffffffffffffffffffffffffffffffffff1673ffffffffffffffffffffffffffffffffffffffff16815260200190815260200160002060003373ffffffffffffffffffffffffffffffffffffffff1673ffffffffffffffffffffffffffffffffffffffff16815260200190815260200160002060009054906101000a900460ff165b610552576040517f08c379a000000000000000000000000000000000000000000000000000000000815260040161054990611688565b60405180910390fd5b8173ffffffffffffffffffffffffffffffffffffffff163373ffffffffffffffffffffffffffffffffffffffff1614156105c1576040517f08c379a00000000000000000000000000000000000000000000000000000000081526004016105b8906116f4565b60405180910390fd5b816005600083815260200190815260200160002060006101000a81548173ffffffffffffffffffffffffffffffffffffffff021916908373ffffffffffffffffffffffffffffffffffffffff1602179055505050565b6000600180549050905090565b60026020528060005260406000206000915054906101000a900473ffffffffffffffffffffffffffffffffffffffff1681565b60008060009054906101000a900473ffffffffffffffffffffffffffffffffffffffff1673ffffffffffffffffffffffffffffffffffffffff163373ffffffffffffffffffffffffffffffffffffffff16146106b257600080fd5b600060149054906101000a900463ffffffff1663ffffffff16600060189054906101000a900463ffffffff1663ffffffff161115610725576040517f08c379a000000000000000000000000000000000000000000000000000000000815260040161071c90611786565b60405180910390fd5b6000601881819054906101000a900463ffffffff1680929190610747906117d5565b91906101000a81548163ffffffff021916908363ffffffff1602179055505061077582600080600033610ccf565b9050919050565b600061078782610cbe565b6107c6576040517f08c379a00000000000000000000000000000000000000000000000000000000081526004016107bd9061184e565b60405180910390fd5b6002600083815260200190815260200160002060009054906101000a900473ffffffffffffffffffffffffffffffffffffffff169050919050565b6000600360008373ffffffffffffffffffffffffffffffffffffffff1673ffffffffffffffffffffffffffffffffffffffff168152602001908152602001600020549050919050565b60606040518060400160405280600381526020017f414c460000000000000000000000000000000000000000000000000000000000815250905090565b8173ffffffffffffffffffffffffffffffffffffffff163373ffffffffffffffffffffffffffffffffffffffff1614156108f6576040517f08c379a00000000000000000000000000000000000000000000000000000000081526004016108ed906118e0565b60405180910390fd5b80600460003373ffffffffffffffffffffffffffffffffffffffff1673ffffffffffffffffffffffffffffffffffffffff16815260200190815260200160002060008473ffffffffffffffffffffffffffffffffffffffff1673ffffffffffffffffffffffffffffffffffffffff16815260200190815260200160002060006101000a81548160ff0219169083151502179055508173ffffffffffffffffffffffffffffffffffffffff163373ffffffffffffffffffffffffffffffffffffffff167f17307eab39ab6107e8899845ad3d59bd9653f200f220920489ca2b5937696c31836040516109e791906114d7565b60405180910390a35050565b600073ffffffffffffffffffffffffffffffffffffffff168273ffffffffffffffffffffffffffffffffffffffff161415610a63576040517f08c379a0000000000000000000000000000000000000000000000000000000008152600401610a5a9061194c565b60405180910390fd5b3073ffffffffffffffffffffffffffffffffffffffff168273ffffffffffffffffffffffffffffffffffffffff161415610ad2576040517f08c379a0000000000000000000000000000000000000000000000000000000008152600401610ac9906119de565b60405180910390fd5b610adc3382610ef6565b610b1b576040517f08c379a0000000000000000000000000000000000000000000000000000000008152600401610b1290611a4a565b60405180910390fd5b610b26338383610f62565b5050565b600060149054906101000a900463ffffffff1681565b600080600080600080600060018881548110610b5f57610b5e611a6a565b5b90600052602060002090600202019050806000015496508060010160009054906101000a900467ffffffffffffffff1695508060010160089054906101000a900463ffffffff16945080600101600c9054906101000a900463ffffffff1693508060010160109054906101000a900461ffff1692506002600089815260200190815260200160002060009054906101000a900473ffffffffffffffffffffffffffffffffffffffff1691505091939550919395565b6000600460008473ffffffffffffffffffffffffffffffffffffffff1673ffffffffffffffffffffffffffffffffffffffff16815260200190815260200160002060008373ffffffffffffffffffffffffffffffffffffffff1673ffffffffffffffffffffffffffffffffffffffff16815260200190815260200160002060009054906101000a900460ff16905092915050565b600060189054906101000a900463ffffffff1681565b600060018054905082109050919050565b6000806040518060a001604052808881526020014267ffffffffffffffff1681526020018763ffffffff1681526020018663ffffffff1681526020018561ffff16815250905060018190806001815401808255809150506001900390600052602060002090600202016000909190919091506000820151816000015560208201518160010160006101000a81548167ffffffffffffffff021916908367ffffffffffffffff16021790555060408201518160010160086101000a81548163ffffffff021916908363ffffffff160217905550606082015181600101600c6101000a81548163ffffffff021916908363ffffffff16021790555060808201518160010160106101000a81548161ffff021916908361ffff1602179055505050600060018080549050610e009190611a99565b9050836002600083815260200190815260200160002060006101000a81548173ffffffffffffffffffffffffffffffffffffffff021916908373ffffffffffffffffffffffffffffffffffffffff160217905550600360008573ffffffffffffffffffffffffffffffffffffffff1673ffffffffffffffffffffffffffffffffffffffff1681526020019081526020016000206000815480929190610ea490611acd565b91905055507f0a5311bd2a6608f08a180df2ee7c5946819a649b204b554bb8e39825b2c50ad5848289898c604051610ee0959493929190611b51565b60405180910390a1809250505095945050505050565b60008273ffffffffffffffffffffffffffffffffffffffff166002600084815260200190815260200160002060009054906101000a900473ffffffffffffffffffffffffffffffffffffffff1673ffffffffffffffffffffffffffffffffffffffff1614905092915050565b600360008373ffffffffffffffffffffffffffffffffffffffff1673ffffffffffffffffffffffffffffffffffffffff1681526020019081526020016000206000815480929190610fb290611acd565b9190505550816002600083815260200190815260200160002060006101000a81548173ffffffffffffffffffffffffffffffffffffffff021916908373ffffffffffffffffffffffffffffffffffffffff160217905550600073ffffffffffffffffffffffffffffffffffffffff168373ffffffffffffffffffffffffffffffffffffffff161461109357600360008473ffffffffffffffffffffffffffffffffffffffff1673ffffffffffffffffffffffffffffffffffffffff168152602001908152602001600020600081548092919061108d90611ba4565b91905055505b808273ffffffffffffffffffffffffffffffffffffffff163373ffffffffffffffffffffffffffffffffffffffff167fddf252ad1be2c89b69c2b068fc378daa952ba7f163c4a11628f55a4df523b3ef60405160405180910390a4505050565b600081519050919050565b600082825260208201905092915050565b60005b8381101561112d578082015181840152602081019050611112565b8381111561113c576000848401525b50505050565b6000601f19601f8301169050919050565b600061115e826110f3565b61116881856110fe565b935061117881856020860161110f565b61118181611142565b840191505092915050565b600060208201905081810360008301526111a68184611153565b905092915050565b600080fd5b6000819050919050565b6111c6816111b3565b81146111d157600080fd5b50565b6000813590506111e3816111bd565b92915050565b6000602082840312156111ff576111fe6111ae565b5b600061120d848285016111d4565b91505092915050565b600073ffffffffffffffffffffffffffffffffffffffff82169050919050565b600061124182611216565b9050919050565b61125181611236565b82525050565b600060208201905061126c6000830184611248565b92915050565b61127b81611236565b811461128657600080fd5b50565b60008135905061129881611272565b92915050565b600080604083850312156112b5576112b46111ae565b5b60006112c385828601611289565b92505060206112d4858286016111d4565b9150509250929050565b6112e7816111b3565b82525050565b600060208201905061130260008301846112de565b92915050565b60006020828403121561131e5761131d6111ae565b5b600061132c84828501611289565b91505092915050565b60008115159050919050565b61134a81611335565b811461135557600080fd5b50565b60008135905061136781611341565b92915050565b60008060408385031215611384576113836111ae565b5b600061139285828601611289565b92505060206113a385828601611358565b9150509250929050565b600063ffffffff82169050919050565b6113c6816113ad565b82525050565b60006020820190506113e160008301846113bd565b92915050565b600067ffffffffffffffff82169050919050565b611404816113e7565b82525050565b600061ffff82169050919050565b6114218161140a565b82525050565b600060c08201905061143c60008301896112de565b61144960208301886113fb565b61145660408301876113bd565b61146360608301866113bd565b6114706080830185611418565b61147d60a0830184611248565b979650505050505050565b6000806040838503121561149f5761149e6111ae565b5b60006114ad85828601611289565b92505060206114be85828601611289565b9150509250929050565b6114d181611335565b82525050565b60006020820190506114ec60008301846114c8565b92915050565b7f746f6b656e2049442070726f7669646564206973206e6f7420612076616c696460008201527f204e465400000000000000000000000000000000000000000000000000000000602082015250565b600061154e6024836110fe565b9150611559826114f2565b604082019050919050565b6000602082019050818103600083015261157d81611541565b9050919050565b7f46726f6720646f6573206e6f7420657869737400000000000000000000000000600082015250565b60006115ba6013836110fe565b91506115c582611584565b602082019050919050565b600060208201905081810360008301526115e9816115ad565b9050919050565b7f4f6e6c7920746865206f776e6572206f72206f70657261746f72206f6620746860008201527f697320746f6b656e2063616e20617070726f766520616e6f746865722061646460208201527f7265737300000000000000000000000000000000000000000000000000000000604082015250565b60006116726044836110fe565b915061167d826115f0565b606082019050919050565b600060208201905081810360008301526116a181611665565b9050919050565b7f43616e277420617070726f766520796f757273656c6600000000000000000000600082015250565b60006116de6016836110fe565b91506116e9826116a8565b602082019050919050565b6000602082019050818103600083015261170d816116d1565b9050919050565b7f4d6178206c696d6974206f662031302047656e302046726f677320637265617460008201527f6564000000000000000000000000000000000000000000000000000000000000602082015250565b60006117706022836110fe565b915061177b82611714565b604082019050919050565b6000602082019050818103600083015261179f81611763565b9050919050565b7f4e487b7100000000000000000000000000000000000000000000000000000000600052601160045260246000fd5b60006117e0826113ad565b915063ffffffff8214156117f7576117f66117a6565b5b600182019050919050565b7f546f6b656e20646f6573206e6f74206578697374000000000000000000000000600082015250565b60006118386014836110fe565b915061184382611802565b602082019050919050565b600060208201905081810360008301526118678161182b565b9050919050565b7f43616e6e6f742073657420796f757273656c6620617320616e206f706572617460008201527f6f72200000000000000000000000000000000000000000000000000000000000602082015250565b60006118ca6023836110fe565b91506118d58261186e565b604082019050919050565b600060208201905081810360008301526118f9816118bd565b9050919050565b7f63616e6e6f74207472616e7366657220746f207a65726f206164647265737300600082015250565b6000611936601f836110fe565b915061194182611900565b602082019050919050565b6000602082019050818103600083015261196581611929565b9050919050565b7f63616e6e6f74207472616e7366657220746f20636f6e7472616374206164647260008201527f6573730000000000000000000000000000000000000000000000000000000000602082015250565b60006119c86023836110fe565b91506119d38261196c565b604082019050919050565b600060208201905081810360008301526119f7816119bb565b9050919050565b7f596f7520646f206e6f74206f776e207468697320746f6b656e00000000000000600082015250565b6000611a346019836110fe565b9150611a3f826119fe565b602082019050919050565b60006020820190508181036000830152611a6381611a27565b9050919050565b7f4e487b7100000000000000000000000000000000000000000000000000000000600052603260045260246000fd5b6000611aa4826111b3565b9150611aaf836111b3565b925082821015611ac257611ac16117a6565b5b828203905092915050565b6000611ad8826111b3565b91507fffffffffffffffffffffffffffffffffffffffffffffffffffffffffffffffff821415611b0b57611b0a6117a6565b5b600182019050919050565b6000819050919050565b6000611b3b611b36611b31846113ad565b611b16565b6111b3565b9050919050565b611b4b81611b20565b82525050565b600060a082019050611b666000830188611248565b611b7360208301876112de565b611b806040830186611b42565b611b8d6060830185611b42565b611b9a60808301846112de565b9695505050505050565b6000611baf826111b3565b91506000821415611bc357611bc26117a6565b5b60018203905091905056fea2646970667358221220c369e6a8c93e96924e97c6c5bd09ed7065e54c88334530fbd7e8addbda8c6be464736f6c634300080b0033",
  "immutableReferences": {},
  "source": "pragma solidity >=0.4.22 <0.9.0;\nimport \"./IERC721.sol\";\nimport \"./Owner.sol\";\n\ncontract FroggyContract is IERC721,isOwner{\n\n    uint32 public GEN0FrogCap = 10;\n    uint32 public GEN0FrogCount;\n\n    event Birth(address owner, uint256 tokenId, uint256 mum, uint256 dad, uint256 genes);\n\n\n    string private constant _name = \"ALFROGS\";\n    string private constant _symbol = \"ALF\";\n\n    struct Frog {\n        uint256 genes;\n        uint64 birthTime;\n        uint32 mumId;\n        uint32 dadId;\n        uint16 generation;\n    }\n\n    Frog[] Frogs;\n\n\n    mapping (uint256 => address) public frogIndexToOwner;\n    mapping (address => uint256) ownershipTokenCount;\n\n\n    /**\n     * @dev Returns the number of tokens in ``owner``'s account.\n     */\n    function balanceOf(address owner) public view returns (uint256 balance){\n        return ownershipTokenCount[owner];\n    }\n    /*\n     * @dev Returns the total number of tokens in circulation.\n     */\n    function totalSupply() public view returns (uint256 total){\n        return Frogs.length;\n    }\n    /*\n     * @dev Returns the name of the token.\n     */\n    function name() public view returns (string memory tokenName){\n        return _name;\n    }\n    /*\n     * @dev Returns the symbol of the token.\n     */\n    function symbol() public view returns (string memory tokenSymbol){\n        return _symbol;\n    }\n    /**\n     * @dev Returns the owner of the `tokenId` token.\n     *\n     * Requirements:\n     *\n     * - `tokenId` must exist.\n     */\n    function ownerOf(uint256 tokenId) public view returns (address owner){\n        require(_frogExists(tokenId), \"Token does not exist\");\n        return frogIndexToOwner[tokenId];\n    }\n     /* @dev Transfers `tokenId` token from `msg.sender` to `to`.\n     *\n     *\n     * Requirements:\n     *\n     * - `to` cannot be the zero address.\n     * - `to` can not be the contract address.\n     * - `tokenId` token must be owned by `msg.sender`.\n     *\n     * Emits a {Transfer} event.\n     */\n    function transfer(address to, uint256 tokenId) public{\n        require(to != address(0), \"cannot transfer to zero address\");\n        require(to != address(this), \"cannot transfer to contract address\");\n        require( _owns(msg.sender,tokenId), \"You do not own this token\");\n        \n        _transfer(msg.sender, to, tokenId);\n    }\n     /* @dev Transfers `tokenId` token from `msg.sender` to `to`.\n     * Returns true/false is _claimant owns _tokenId\n     */\n    function _owns(address _claimant, uint256 _tokenId) internal view returns (bool) {\n      return frogIndexToOwner[_tokenId] == _claimant;\n    }\n\n    function _transfer(address _from, address _to, uint256 _tokenId) private { \n        \n        ownershipTokenCount[_to] ++;\n        frogIndexToOwner[_tokenId] = _to;\n\n        if(_from != address(0)){\n            ownershipTokenCount[_from] --;    \n        }\n\n        // Emit the transfer event.\n        emit Transfer(msg.sender, _to, _tokenId);\n    }\n\n    function _createFrog(\n        uint256 _genes,\n        uint32 _mumId,\n        uint32 _dadId,\n        uint16 _generation,\n        address _owner\n    ) private returns(uint256){\n\n        Frog memory newFrog = Frog(_genes,\n                                    uint64(block.timestamp),\n                                    _mumId,\n                                    _dadId,\n                                    _generation);\n\n        Frogs.push(newFrog);\n        uint256 newTokenId = Frogs.length - 1;\n        frogIndexToOwner[newTokenId] = _owner;\n        ownershipTokenCount[_owner] ++;\n\n\n\n\n        \n\n        emit Birth(_owner,newTokenId,_mumId,_dadId,_genes);\n\n        return newTokenId;\n\n    }\n\n    function createFrogGen0(uint256 _genes) public onlyOwner returns(uint256) {\n        require(GEN0FrogCount<=GEN0FrogCap, \"Max limit of 10 Gen0 Frogs created\");\n        GEN0FrogCount++;\n        return _createFrog(_genes, 0,0,0,msg.sender);\n    }\n\n   \n    \n    function getFrogDetails(uint256 tokenId) external view returns(\n        uint256 genes,\n        uint64 birthTime,\n        uint32 mumId,\n        uint32 dadId,\n        uint16 generation,\n        address owner)\n    {\n        Frog storage frog = Frogs[tokenId];\n\n        genes = frog.genes;\n        birthTime = frog.birthTime;\n        mumId = frog.mumId;\n        dadId = frog.dadId;\n        generation = frog.generation;\n        owner = frogIndexToOwner[tokenId];        \n        \n    }\n\n    mapping (address => mapping (address => bool)) OperatorApprovals;\n    mapping (uint256 => address) FrogIdxToApprovedAddress;\n\n    function approve(address _approved, uint256 _tokenId) external {\n        \n        require(_frogExists(_tokenId),\"Frog does not exist\");\n\n        require(msg.sender == ownerOf(_tokenId) || \n        OperatorApprovals[ownerOf(_tokenId)][msg.sender],\n         \"Only the owner or operator of this token can approve another address\");\n        \n        require(msg.sender != _approved, \"Can't approve yourself\");\n\n        FrogIdxToApprovedAddress[_tokenId] = _approved;\n    }\n\n    function setApprovalForAll(address _operator, bool _approved) external{\n        require(msg.sender != _operator, \"Cannot set yourself as an operator \");\n        OperatorApprovals[msg.sender][_operator] = _approved;\n        emit ApprovalForAll(msg.sender, _operator, _approved);\n    }\n\n    function getApproved(uint256 _tokenId) external view returns(address){\n        require(_frogExists(_tokenId),\"token ID provided is not a valid NFT\");\n        return FrogIdxToApprovedAddress[_tokenId];\n    }\n\n    function isApprovedForAll(address _owner, address _operator) external view returns (bool){\n        return OperatorApprovals[_owner][_operator];\n    }\n    \n    function _frogExists(uint _tokenId) private view returns(bool){\n        return _tokenId< Frogs.length;\n    }\n\n}   ",
  "sourcePath": "/Users/alfielloyd/Documents/GitHub/academy-kitties-template/contracts/FroggyContract.sol",
  "compiler": {
    "name": "solc",
    "version": "0.8.11+commit.d7f03943.Emscripten.clang"
  },
  "schemaVersion": "3.4.4",
  "updatedAt": "2022-02-12T11:13:57.228Z",
  "networkType": "ethereum",
  "devdoc": {
    "kind": "dev",
    "methods": {
      "approve(address,uint256)": {
        "details": "The zero address indicates there is no approved address.  Throws unless `msg.sender` is the current NFT owner, or an authorized  operator of the current owner.",
        "params": {
          "_approved": "The new approved NFT controller",
          "_tokenId": "The NFT to approve"
        }
      },
      "balanceOf(address)": {
        "details": "Returns the number of tokens in ``owner``'s account."
      },
      "getApproved(uint256)": {
        "details": "Throws if `_tokenId` is not a valid NFT.",
        "params": {
          "_tokenId": "The NFT to find the approved address for"
        },
        "returns": {
          "_0": "The approved address for this NFT, or the zero address if there is none"
        }
      },
      "isApprovedForAll(address,address)": {
        "params": {
          "_operator": "The address that acts on behalf of the owner",
          "_owner": "The address that owns the NFTs"
        },
        "returns": {
          "_0": "True if `_operator` is an approved operator for `_owner`, false otherwise"
        }
      },
      "ownerOf(uint256)": {
        "details": "Returns the owner of the `tokenId` token. Requirements: - `tokenId` must exist."
      },
      "setApprovalForAll(address,bool)": {
        "details": "Emits the ApprovalForAll event. The contract MUST allow  multiple operators per owner.",
        "params": {
          "_approved": "True if the operator is approved, false to revoke approval",
          "_operator": "Address to add to the set of authorized operators"
        }
      }
    },
    "version": 1
  },
  "userdoc": {
    "kind": "user",
    "methods": {
      "approve(address,uint256)": {
        "notice": "Change or reaffirm the approved address for an NFT"
      },
      "getApproved(uint256)": {
        "notice": "Get the approved address for a single NFT"
      },
      "isApprovedForAll(address,address)": {
        "notice": "Query if an address is an authorized operator for another address"
      },
      "setApprovalForAll(address,bool)": {
        "notice": "Enable or disable approval for a third party (\"operator\") to manage  all of `msg.sender`'s assets"
      }
    },
    "version": 1
  }
}