{
  "contractName": "FroggyContract",
  "abi": [
    {
      "anonymous": false,
      "inputs": [
        {
          "indexed": true,
          "internalType": "address",
          "name": "owner",
          "type": "address"
        },
        {
          "indexed": true,
          "internalType": "address",
          "name": "approved",
          "type": "address"
        },
        {
          "indexed": true,
          "internalType": "uint256",
          "name": "tokenId",
          "type": "uint256"
        }
      ],
      "name": "Approval",
      "type": "event"
    },
    {
      "anonymous": false,
      "inputs": [
        {
          "indexed": true,
          "internalType": "address",
          "name": "owner",
          "type": "address"
        },
        {
          "indexed": true,
          "internalType": "address",
          "name": "operator",
          "type": "address"
        },
        {
          "indexed": false,
          "internalType": "bool",
          "name": "approved",
          "type": "bool"
        }
      ],
      "name": "ApprovalForAll",
      "type": "event"
    },
    {
      "anonymous": false,
      "inputs": [
        {
          "indexed": false,
          "internalType": "address",
          "name": "owner",
          "type": "address"
        },
        {
          "indexed": false,
          "internalType": "uint256",
          "name": "tokenId",
          "type": "uint256"
        },
        {
          "indexed": false,
          "internalType": "uint256",
          "name": "mum",
          "type": "uint256"
        },
        {
          "indexed": false,
          "internalType": "uint256",
          "name": "dad",
          "type": "uint256"
        },
        {
          "indexed": false,
          "internalType": "uint256",
          "name": "genes",
          "type": "uint256"
        }
      ],
      "name": "Birth",
      "type": "event"
    },
    {
      "anonymous": false,
      "inputs": [
        {
          "indexed": true,
          "internalType": "address",
          "name": "from",
          "type": "address"
        },
        {
          "indexed": true,
          "internalType": "address",
          "name": "to",
          "type": "address"
        },
        {
          "indexed": true,
          "internalType": "uint256",
          "name": "tokenId",
          "type": "uint256"
        }
      ],
      "name": "Transfer",
      "type": "event"
    },
    {
      "inputs": [],
      "name": "GEN0FrogCap",
      "outputs": [
        {
          "internalType": "uint32",
          "name": "",
          "type": "uint32"
        }
      ],
      "stateMutability": "view",
      "type": "function",
      "constant": true
    },
    {
      "inputs": [],
      "name": "GEN0FrogCount",
      "outputs": [
        {
          "internalType": "uint32",
          "name": "",
          "type": "uint32"
        }
      ],
      "stateMutability": "view",
      "type": "function",
      "constant": true
    },
    {
      "inputs": [
        {
          "internalType": "uint256",
          "name": "",
          "type": "uint256"
        }
      ],
      "name": "frogIndexToOwner",
      "outputs": [
        {
          "internalType": "address",
          "name": "",
          "type": "address"
        }
      ],
      "stateMutability": "view",
      "type": "function",
      "constant": true
    },
    {
      "inputs": [
        {
          "internalType": "address",
          "name": "owner",
          "type": "address"
        }
      ],
      "name": "balanceOf",
      "outputs": [
        {
          "internalType": "uint256",
          "name": "balance",
          "type": "uint256"
        }
      ],
      "stateMutability": "view",
      "type": "function",
      "constant": true
    },
    {
      "inputs": [],
      "name": "totalSupply",
      "outputs": [
        {
          "internalType": "uint256",
          "name": "total",
          "type": "uint256"
        }
      ],
      "stateMutability": "view",
      "type": "function",
      "constant": true
    },
    {
      "inputs": [],
      "name": "name",
      "outputs": [
        {
          "internalType": "string",
          "name": "tokenName",
          "type": "string"
        }
      ],
      "stateMutability": "pure",
      "type": "function",
      "constant": true
    },
    {
      "inputs": [],
      "name": "symbol",
      "outputs": [
        {
          "internalType": "string",
          "name": "tokenSymbol",
          "type": "string"
        }
      ],
      "stateMutability": "pure",
      "type": "function",
      "constant": true
    },
    {
      "inputs": [
        {
          "internalType": "uint256",
          "name": "tokenId",
          "type": "uint256"
        }
      ],
      "name": "ownerOf",
      "outputs": [
        {
          "internalType": "address",
          "name": "owner",
          "type": "address"
        }
      ],
      "stateMutability": "view",
      "type": "function",
      "constant": true
    },
    {
      "inputs": [
        {
          "internalType": "address",
          "name": "to",
          "type": "address"
        },
        {
          "internalType": "uint256",
          "name": "tokenId",
          "type": "uint256"
        }
      ],
      "name": "transfer",
      "outputs": [],
      "stateMutability": "nonpayable",
      "type": "function"
    },
    {
      "inputs": [
        {
          "internalType": "uint256",
          "name": "_genes",
          "type": "uint256"
        }
      ],
      "name": "createFrogGen0",
      "outputs": [
        {
          "internalType": "uint256",
          "name": "",
          "type": "uint256"
        }
      ],
      "stateMutability": "nonpayable",
      "type": "function"
    },
    {
      "inputs": [
        {
          "internalType": "uint256",
          "name": "tokenId",
          "type": "uint256"
        }
      ],
      "name": "getFrogDetails",
      "outputs": [
        {
          "internalType": "uint256",
          "name": "genes",
          "type": "uint256"
        },
        {
          "internalType": "uint64",
          "name": "birthTime",
          "type": "uint64"
        },
        {
          "internalType": "uint32",
          "name": "mumId",
          "type": "uint32"
        },
        {
          "internalType": "uint32",
          "name": "dadId",
          "type": "uint32"
        },
        {
          "internalType": "uint16",
          "name": "generation",
          "type": "uint16"
        },
        {
          "internalType": "address",
          "name": "owner",
          "type": "address"
        }
      ],
      "stateMutability": "view",
      "type": "function",
      "constant": true
    },
    {
      "inputs": [
        {
          "internalType": "address",
          "name": "_approved",
          "type": "address"
        },
        {
          "internalType": "uint256",
          "name": "_tokenId",
          "type": "uint256"
        }
      ],
      "name": "approve",
      "outputs": [],
      "stateMutability": "nonpayable",
      "type": "function"
    },
    {
      "inputs": [
        {
          "internalType": "address",
          "name": "_operator",
          "type": "address"
        },
        {
          "internalType": "bool",
          "name": "_approved",
          "type": "bool"
        }
      ],
      "name": "setApprovalForAll",
      "outputs": [],
      "stateMutability": "nonpayable",
      "type": "function"
    },
    {
      "inputs": [
        {
          "internalType": "uint256",
          "name": "_tokenId",
          "type": "uint256"
        }
      ],
      "name": "getApproved",
      "outputs": [
        {
          "internalType": "address",
          "name": "",
          "type": "address"
        }
      ],
      "stateMutability": "view",
      "type": "function",
      "constant": true
    },
    {
      "inputs": [
        {
          "internalType": "address",
          "name": "_owner",
          "type": "address"
        },
        {
          "internalType": "address",
          "name": "_operator",
          "type": "address"
        }
      ],
      "name": "isApprovedForAll",
      "outputs": [
        {
          "internalType": "bool",
          "name": "",
          "type": "bool"
        }
      ],
      "stateMutability": "view",
      "type": "function",
      "constant": true
    },
    {
      "inputs": [
        {
          "internalType": "address",
          "name": "_from",
          "type": "address"
        },
        {
          "internalType": "address",
          "name": "_to",
          "type": "address"
        },
        {
          "internalType": "uint256",
          "name": "_tokenId",
          "type": "uint256"
        }
      ],
      "name": "transferFrom",
      "outputs": [],
      "stateMutability": "nonpayable",
      "type": "function"
    },
    {
      "inputs": [
        {
          "internalType": "address",
          "name": "_from",
          "type": "address"
        },
        {
          "internalType": "address",
          "name": "_to",
          "type": "address"
        },
        {
          "internalType": "uint256",
          "name": "_tokenId",
          "type": "uint256"
        }
      ],
      "name": "safeTransferFrom",
      "outputs": [],
      "stateMutability": "nonpayable",
      "type": "function"
    },
    {
      "inputs": [
        {
          "internalType": "address",
          "name": "_from",
          "type": "address"
        },
        {
          "internalType": "address",
          "name": "_to",
          "type": "address"
        },
        {
          "internalType": "uint256",
          "name": "_tokenId",
          "type": "uint256"
        },
        {
          "internalType": "bytes",
          "name": "data",
          "type": "bytes"
        }
      ],
      "name": "safeTransferFrom",
      "outputs": [],
      "stateMutability": "nonpayable",
      "type": "function"
    }
  ],
  "bytecode": "0x6080604052600a600060146101000a81548163ffffffff021916908363ffffffff16021790555034801561003257600080fd5b50336000806101000a81548173ffffffffffffffffffffffffffffffffffffffff021916908373ffffffffffffffffffffffffffffffffffffffff1602179055506126b8806100826000396000f3fe608060405234801561001057600080fd5b50600436106101165760003560e01c806370a08231116100a2578063ab08175511610071578063ab081755146102f1578063b1c06e221461030f578063b88d4fde14610344578063e985e9c514610360578063feb13f6c1461039057610116565b806370a082311461026b57806395d89b411461029b578063a22cb465146102b9578063a9059cbb146102d557610116565b806323b872dd116100e957806323b872dd146101a357806335c96e47146101bf57806342842e0e146101ef5780634df404e21461020b5780636352211e1461023b57610116565b806306fdde031461011b578063081812fc14610139578063095ea7b31461016957806318160ddd14610185575b600080fd5b6101236103ae565b60405161013091906116fb565b60405180910390f35b610153600480360381019061014e919061175d565b6103eb565b60405161016091906117cb565b60405180910390f35b610183600480360381019061017e9190611812565b610470565b005b61018d6106ef565b60405161019a9190611861565b60405180910390f35b6101bd60048036038101906101b8919061187c565b6106fc565b005b6101d960048036038101906101d4919061175d565b610966565b6040516101e691906117cb565b60405180910390f35b6102096004803603810190610204919061187c565b610999565b005b6102256004803603810190610220919061175d565b6109b9565b6040516102329190611861565b60405180910390f35b6102556004803603810190610250919061175d565b610ade565b60405161026291906117cb565b60405180910390f35b610285600480360381019061028091906118cf565b610b63565b6040516102929190611861565b60405180910390f35b6102a3610bac565b6040516102b091906116fb565b60405180910390f35b6102d360048036038101906102ce9190611934565b610be9565b005b6102ef60048036038101906102ea9190611812565b610d55565b005b6102f9610e8c565b6040516103069190611993565b60405180910390f35b6103296004803603810190610324919061175d565b610ea2565b60405161033b969594939291906119ee565b60405180910390f35b61035e60048036038101906103599190611ab4565b610f76565b005b61037a60048036038101906103759190611b3c565b610fcd565b6040516103879190611b8b565b60405180910390f35b610398611061565b6040516103a59190611993565b60405180910390f35b60606040518060400160405280600781526020017f414c46524f475300000000000000000000000000000000000000000000000000815250905090565b60006103f682611077565b610435576040517f08c379a000000000000000000000000000000000000000000000000000000000815260040161042c90611c18565b60405180910390fd5b6005600083815260200190815260200160002060009054906101000a900473ffffffffffffffffffffffffffffffffffffffff169050919050565b61047981611077565b6104b8576040517f08c379a00000000000000000000000000000000000000000000000000000000081526004016104af90611c84565b60405180910390fd5b6104c181610ade565b73ffffffffffffffffffffffffffffffffffffffff163373ffffffffffffffffffffffffffffffffffffffff16148061058857506004600061050283610ade565b73ffffffffffffffffffffffffffffffffffffffff1673ffffffffffffffffffffffffffffffffffffffff16815260200190815260200160002060003373ffffffffffffffffffffffffffffffffffffffff1673ffffffffffffffffffffffffffffffffffffffff16815260200190815260200160002060009054906101000a900460ff165b6105c7576040517f08c379a00000000000000000000000000000000000000000000000000000000081526004016105be90611d3c565b60405180910390fd5b8173ffffffffffffffffffffffffffffffffffffffff163373ffffffffffffffffffffffffffffffffffffffff161415610636576040517f08c379a000000000000000000000000000000000000000000000000000000000815260040161062d90611da8565b60405180910390fd5b816005600083815260200190815260200160002060006101000a81548173ffffffffffffffffffffffffffffffffffffffff021916908373ffffffffffffffffffffffffffffffffffffffff160217905550808273ffffffffffffffffffffffffffffffffffffffff166106a983610ade565b73ffffffffffffffffffffffffffffffffffffffff167f8c5be1e5ebec7d5bd14f71427d1e84f3dd0314c0f7b2291e5b200ac8c7c3b92560405160405180910390a45050565b6000600180549050905090565b600073ffffffffffffffffffffffffffffffffffffffff168273ffffffffffffffffffffffffffffffffffffffff16141561076c576040517f08c379a000000000000000000000000000000000000000000000000000000000815260040161076390611e3a565b60405180910390fd5b3073ffffffffffffffffffffffffffffffffffffffff168273ffffffffffffffffffffffffffffffffffffffff1614156107db576040517f08c379a00000000000000000000000000000000000000000000000000000000081526004016107d290611ecc565b60405180910390fd5b8273ffffffffffffffffffffffffffffffffffffffff163373ffffffffffffffffffffffffffffffffffffffff16148061081b575061081a8333610fcd565b5b80610859575061082a816103eb565b73ffffffffffffffffffffffffffffffffffffffff163373ffffffffffffffffffffffffffffffffffffffff16145b610898576040517f08c379a000000000000000000000000000000000000000000000000000000000815260040161088f90611f84565b60405180910390fd5b6108a181610ade565b73ffffffffffffffffffffffffffffffffffffffff168373ffffffffffffffffffffffffffffffffffffffff161461090e576040517f08c379a000000000000000000000000000000000000000000000000000000000815260040161090590612016565b60405180910390fd5b61091781611077565b610956576040517f08c379a000000000000000000000000000000000000000000000000000000000815260040161094d90612082565b60405180910390fd5b610961838383611088565b505050565b60026020528060005260406000206000915054906101000a900473ffffffffffffffffffffffffffffffffffffffff1681565b6109b48383836040518060200160405280600081525061124f565b505050565b60008060009054906101000a900473ffffffffffffffffffffffffffffffffffffffff1673ffffffffffffffffffffffffffffffffffffffff163373ffffffffffffffffffffffffffffffffffffffff1614610a1457600080fd5b600060149054906101000a900463ffffffff1663ffffffff16600060189054906101000a900463ffffffff1663ffffffff161115610a87576040517f08c379a0000000000000000000000000000000000000000000000000000000008152600401610a7e90612114565b60405180910390fd5b6000601881819054906101000a900463ffffffff1680929190610aa990612163565b91906101000a81548163ffffffff021916908363ffffffff16021790555050610ad7826000806000336112ab565b9050919050565b6000610ae982611077565b610b28576040517f08c379a0000000000000000000000000000000000000000000000000000000008152600401610b1f906121dc565b60405180910390fd5b6002600083815260200190815260200160002060009054906101000a900473ffffffffffffffffffffffffffffffffffffffff169050919050565b6000600360008373ffffffffffffffffffffffffffffffffffffffff1673ffffffffffffffffffffffffffffffffffffffff168152602001908152602001600020549050919050565b60606040518060400160405280600381526020017f414c460000000000000000000000000000000000000000000000000000000000815250905090565b8173ffffffffffffffffffffffffffffffffffffffff163373ffffffffffffffffffffffffffffffffffffffff161415610c58576040517f08c379a0000000000000000000000000000000000000000000000000000000008152600401610c4f9061226e565b60405180910390fd5b80600460003373ffffffffffffffffffffffffffffffffffffffff1673ffffffffffffffffffffffffffffffffffffffff16815260200190815260200160002060008473ffffffffffffffffffffffffffffffffffffffff1673ffffffffffffffffffffffffffffffffffffffff16815260200190815260200160002060006101000a81548160ff0219169083151502179055508173ffffffffffffffffffffffffffffffffffffffff163373ffffffffffffffffffffffffffffffffffffffff167f17307eab39ab6107e8899845ad3d59bd9653f200f220920489ca2b5937696c3183604051610d499190611b8b565b60405180910390a35050565b600073ffffffffffffffffffffffffffffffffffffffff168273ffffffffffffffffffffffffffffffffffffffff161415610dc5576040517f08c379a0000000000000000000000000000000000000000000000000000000008152600401610dbc906122da565b60405180910390fd5b3073ffffffffffffffffffffffffffffffffffffffff168273ffffffffffffffffffffffffffffffffffffffff161415610e34576040517f08c379a0000000000000000000000000000000000000000000000000000000008152600401610e2b90611ecc565b60405180910390fd5b610e3e33826114d2565b610e7d576040517f08c379a0000000000000000000000000000000000000000000000000000000008152600401610e7490612346565b60405180910390fd5b610e88338383611088565b5050565b600060149054906101000a900463ffffffff1681565b600080600080600080600060018881548110610ec157610ec0612366565b5b90600052602060002090600202019050806000015496508060010160009054906101000a900467ffffffffffffffff1695508060010160089054906101000a900463ffffffff16945080600101600c9054906101000a900463ffffffff1693508060010160109054906101000a900461ffff1692506002600089815260200190815260200160002060009054906101000a900473ffffffffffffffffffffffffffffffffffffffff1691505091939550919395565b610fc685858585858080601f016020809104026020016040519081016040528093929190818152602001838380828437600081840152601f19601f8201169050808301925050505050505061124f565b5050505050565b6000600460008473ffffffffffffffffffffffffffffffffffffffff1673ffffffffffffffffffffffffffffffffffffffff16815260200190815260200160002060008373ffffffffffffffffffffffffffffffffffffffff1673ffffffffffffffffffffffffffffffffffffffff16815260200190815260200160002060009054906101000a900460ff16905092915050565b600060189054906101000a900463ffffffff1681565b600060018054905082109050919050565b600360008373ffffffffffffffffffffffffffffffffffffffff1673ffffffffffffffffffffffffffffffffffffffff16815260200190815260200160002060008154809291906110d890612395565b9190505550816002600083815260200190815260200160002060006101000a81548173ffffffffffffffffffffffffffffffffffffffff021916908373ffffffffffffffffffffffffffffffffffffffff160217905550600073ffffffffffffffffffffffffffffffffffffffff168373ffffffffffffffffffffffffffffffffffffffff16146111ef57600360008473ffffffffffffffffffffffffffffffffffffffff1673ffffffffffffffffffffffffffffffffffffffff16815260200190815260200160002060008154809291906111b3906123de565b91905055506005600082815260200190815260200160002060006101000a81549073ffffffffffffffffffffffffffffffffffffffff02191690555b808273ffffffffffffffffffffffffffffffffffffffff163373ffffffffffffffffffffffffffffffffffffffff167fddf252ad1be2c89b69c2b068fc378daa952ba7f163c4a11628f55a4df523b3ef60405160405180910390a4505050565b61125a8484846106fc565b6112668484848461153e565b6112a5576040517f08c379a000000000000000000000000000000000000000000000000000000000815260040161129c9061247a565b60405180910390fd5b50505050565b6000806040518060a001604052808881526020014267ffffffffffffffff1681526020018763ffffffff1681526020018663ffffffff1681526020018561ffff16815250905060018190806001815401808255809150506001900390600052602060002090600202016000909190919091506000820151816000015560208201518160010160006101000a81548167ffffffffffffffff021916908367ffffffffffffffff16021790555060408201518160010160086101000a81548163ffffffff021916908363ffffffff160217905550606082015181600101600c6101000a81548163ffffffff021916908363ffffffff16021790555060808201518160010160106101000a81548161ffff021916908361ffff16021790555050506000600180805490506113dc919061249a565b9050836002600083815260200190815260200160002060006101000a81548173ffffffffffffffffffffffffffffffffffffffff021916908373ffffffffffffffffffffffffffffffffffffffff160217905550600360008573ffffffffffffffffffffffffffffffffffffffff1673ffffffffffffffffffffffffffffffffffffffff168152602001908152602001600020600081548092919061148090612395565b91905055507f0a5311bd2a6608f08a180df2ee7c5946819a649b204b554bb8e39825b2c50ad5848289898c6040516114bc959493929190612509565b60405180910390a1809250505095945050505050565b60008273ffffffffffffffffffffffffffffffffffffffff166002600084815260200190815260200160002060009054906101000a900473ffffffffffffffffffffffffffffffffffffffff1673ffffffffffffffffffffffffffffffffffffffff1614905092915050565b600061154984611649565b6115565760019050611641565b60008473ffffffffffffffffffffffffffffffffffffffff1663150b7a02338887876040518563ffffffff1660e01b815260040161159794939291906125b1565b6020604051808303816000875af11580156115b6573d6000803e3d6000fd5b505050506040513d601f19601f820116820180604052508101906115da9190612655565b90507f150b7a023d4804d13e8c85fb27262cb750cf6ba9f9dd3bb30d90f482ceeb4b1f7bffffffffffffffffffffffffffffffffffffffffffffffffffffffff1916817bffffffffffffffffffffffffffffffffffffffffffffffffffffffff1916149150505b949350505050565b600080823b905060008163ffffffff1611915050919050565b600081519050919050565b600082825260208201905092915050565b60005b8381101561169c578082015181840152602081019050611681565b838111156116ab576000848401525b50505050565b6000601f19601f8301169050919050565b60006116cd82611662565b6116d7818561166d565b93506116e781856020860161167e565b6116f0816116b1565b840191505092915050565b6000602082019050818103600083015261171581846116c2565b905092915050565b600080fd5b600080fd5b6000819050919050565b61173a81611727565b811461174557600080fd5b50565b60008135905061175781611731565b92915050565b6000602082840312156117735761177261171d565b5b600061178184828501611748565b91505092915050565b600073ffffffffffffffffffffffffffffffffffffffff82169050919050565b60006117b58261178a565b9050919050565b6117c5816117aa565b82525050565b60006020820190506117e060008301846117bc565b92915050565b6117ef816117aa565b81146117fa57600080fd5b50565b60008135905061180c816117e6565b92915050565b600080604083850312156118295761182861171d565b5b6000611837858286016117fd565b925050602061184885828601611748565b9150509250929050565b61185b81611727565b82525050565b60006020820190506118766000830184611852565b92915050565b6000806000606084860312156118955761189461171d565b5b60006118a3868287016117fd565b93505060206118b4868287016117fd565b92505060406118c586828701611748565b9150509250925092565b6000602082840312156118e5576118e461171d565b5b60006118f3848285016117fd565b91505092915050565b60008115159050919050565b611911816118fc565b811461191c57600080fd5b50565b60008135905061192e81611908565b92915050565b6000806040838503121561194b5761194a61171d565b5b6000611959858286016117fd565b925050602061196a8582860161191f565b9150509250929050565b600063ffffffff82169050919050565b61198d81611974565b82525050565b60006020820190506119a86000830184611984565b92915050565b600067ffffffffffffffff82169050919050565b6119cb816119ae565b82525050565b600061ffff82169050919050565b6119e8816119d1565b82525050565b600060c082019050611a036000830189611852565b611a1060208301886119c2565b611a1d6040830187611984565b611a2a6060830186611984565b611a3760808301856119df565b611a4460a08301846117bc565b979650505050505050565b600080fd5b600080fd5b600080fd5b60008083601f840112611a7457611a73611a4f565b5b8235905067ffffffffffffffff811115611a9157611a90611a54565b5b602083019150836001820283011115611aad57611aac611a59565b5b9250929050565b600080600080600060808688031215611ad057611acf61171d565b5b6000611ade888289016117fd565b9550506020611aef888289016117fd565b9450506040611b0088828901611748565b935050606086013567ffffffffffffffff811115611b2157611b20611722565b5b611b2d88828901611a5e565b92509250509295509295909350565b60008060408385031215611b5357611b5261171d565b5b6000611b61858286016117fd565b9250506020611b72858286016117fd565b9150509250929050565b611b85816118fc565b82525050565b6000602082019050611ba06000830184611b7c565b92915050565b7f746f6b656e2049442070726f7669646564206973206e6f7420612076616c696460008201527f204e465400000000000000000000000000000000000000000000000000000000602082015250565b6000611c0260248361166d565b9150611c0d82611ba6565b604082019050919050565b60006020820190508181036000830152611c3181611bf5565b9050919050565b7f46726f6720646f6573206e6f7420657869737400000000000000000000000000600082015250565b6000611c6e60138361166d565b9150611c7982611c38565b602082019050919050565b60006020820190508181036000830152611c9d81611c61565b9050919050565b7f4f6e6c7920746865206f776e6572206f72206f70657261746f72206f6620746860008201527f697320746f6b656e2063616e20617070726f766520616e6f746865722061646460208201527f7265737300000000000000000000000000000000000000000000000000000000604082015250565b6000611d2660448361166d565b9150611d3182611ca4565b606082019050919050565b60006020820190508181036000830152611d5581611d19565b9050919050565b7f43616e277420617070726f766520796f757273656c6600000000000000000000600082015250565b6000611d9260168361166d565b9150611d9d82611d5c565b602082019050919050565b60006020820190508181036000830152611dc181611d85565b9050919050565b7f726563696576696e6720636f6e7472616374206973206e6f7420612076616c6960008201527f6420616464726573730000000000000000000000000000000000000000000000602082015250565b6000611e2460298361166d565b9150611e2f82611dc8565b604082019050919050565b60006020820190508181036000830152611e5381611e17565b9050919050565b7f63616e6e6f74207472616e7366657220746f20636f6e7472616374206164647260008201527f6573730000000000000000000000000000000000000000000000000000000000602082015250565b6000611eb660238361166d565b9150611ec182611e5a565b604082019050919050565b60006020820190508181036000830152611ee581611ea9565b9050919050565b7f4f6e6c7920746865204f776e65722f4f70657261746f722f417070726f76656460008201527f2061646472657373206f66207468697320746f6b656e2063616e207472616e7360208201527f666572207468697320746f6b656e000000000000000000000000000000000000604082015250565b6000611f6e604e8361166d565b9150611f7982611eec565b606082019050919050565b60006020820190508181036000830152611f9d81611f61565b9050919050565b7f746865205f66726f6d206164647265737320737461746564206973206e6f742060008201527f746865206f776e6572206f66207468697320746f6b656e200000000000000000602082015250565b600061200060388361166d565b915061200b82611fa4565b604082019050919050565b6000602082019050818103600083015261202f81611ff3565b9050919050565b7f746f6b656e2073706563696669656420646f6573206e6f742065786973740000600082015250565b600061206c601e8361166d565b915061207782612036565b602082019050919050565b6000602082019050818103600083015261209b8161205f565b9050919050565b7f4d6178206c696d6974206f662031302047656e302046726f677320637265617460008201527f6564000000000000000000000000000000000000000000000000000000000000602082015250565b60006120fe60228361166d565b9150612109826120a2565b604082019050919050565b6000602082019050818103600083015261212d816120f1565b9050919050565b7f4e487b7100000000000000000000000000000000000000000000000000000000600052601160045260246000fd5b600061216e82611974565b915063ffffffff82141561218557612184612134565b5b600182019050919050565b7f546f6b656e20646f6573206e6f74206578697374000000000000000000000000600082015250565b60006121c660148361166d565b91506121d182612190565b602082019050919050565b600060208201905081810360008301526121f5816121b9565b9050919050565b7f43616e6e6f742073657420796f757273656c6620617320616e206f706572617460008201527f6f72200000000000000000000000000000000000000000000000000000000000602082015250565b600061225860238361166d565b9150612263826121fc565b604082019050919050565b600060208201905081810360008301526122878161224b565b9050919050565b7f63616e6e6f74207472616e7366657220746f207a65726f206164647265737300600082015250565b60006122c4601f8361166d565b91506122cf8261228e565b602082019050919050565b600060208201905081810360008301526122f3816122b7565b9050919050565b7f596f7520646f206e6f74206f776e207468697320746f6b656e00000000000000600082015250565b600061233060198361166d565b915061233b826122fa565b602082019050919050565b6000602082019050818103600083015261235f81612323565b9050919050565b7f4e487b7100000000000000000000000000000000000000000000000000000000600052603260045260246000fd5b60006123a082611727565b91507fffffffffffffffffffffffffffffffffffffffffffffffffffffffffffffffff8214156123d3576123d2612134565b5b600182019050919050565b60006123e982611727565b915060008214156123fd576123fc612134565b5b600182039050919050565b7f5f746f20616464726573732063616e6e6f742074616b6520455243373231207460008201527f6f6b656e73000000000000000000000000000000000000000000000000000000602082015250565b600061246460258361166d565b915061246f82612408565b604082019050919050565b6000602082019050818103600083015261249381612457565b9050919050565b60006124a582611727565b91506124b083611727565b9250828210156124c3576124c2612134565b5b828203905092915050565b6000819050919050565b60006124f36124ee6124e984611974565b6124ce565b611727565b9050919050565b612503816124d8565b82525050565b600060a08201905061251e60008301886117bc565b61252b6020830187611852565b61253860408301866124fa565b61254560608301856124fa565b6125526080830184611852565b9695505050505050565b600081519050919050565b600082825260208201905092915050565b60006125838261255c565b61258d8185612567565b935061259d81856020860161167e565b6125a6816116b1565b840191505092915050565b60006080820190506125c660008301876117bc565b6125d360208301866117bc565b6125e06040830185611852565b81810360608301526125f28184612578565b905095945050505050565b60007fffffffff0000000000000000000000000000000000000000000000000000000082169050919050565b612632816125fd565b811461263d57600080fd5b50565b60008151905061264f81612629565b92915050565b60006020828403121561266b5761266a61171d565b5b600061267984828501612640565b9150509291505056fea264697066735822122062b9a4b7cb536932e9806c253fd807a92cc288bc06af91055b4448cd1e76030964736f6c634300080b0033",
  "immutableReferences": {},
  "source": "pragma solidity >=0.4.22 <0.9.0;\nimport \"./IERC721.sol\";\nimport \"./Owner.sol\";\n\ninterface ERC721TokenReceiver {\n    function onERC721Received(address _operator, address _from, uint256 _tokenId, bytes calldata _data) external returns(bytes4);\n}\n\ncontract FroggyContract is IERC721,isOwner{\n\n    bytes4 constant MAGIC_NUMBER = bytes4(keccak256(\"onERC721Received(address,address,uint256,bytes)\"));\n\n    uint32 public GEN0FrogCap = 10;\n    uint32 public GEN0FrogCount;\n\n    event Birth(address owner, uint256 tokenId, uint256 mum, uint256 dad, uint256 genes);\n\n\n    string private constant _name = \"ALFROGS\";\n    string private constant _symbol = \"ALF\";\n\n    struct Frog {\n        uint256 genes;\n        uint64 birthTime;\n        uint32 mumId;\n        uint32 dadId;\n        uint16 generation;\n    }\n\n    Frog[] Frogs;\n\n\n    mapping (uint256 => address) public frogIndexToOwner;\n    mapping (address => uint256) ownershipTokenCount;\n\n\n    /**\n     * @dev Returns the number of tokens in ``owner``'s account.\n     */\n    function balanceOf(address owner) public view returns (uint256 balance){\n        return ownershipTokenCount[owner];\n    }\n    /*\n     * @dev Returns the total number of tokens in circulation.\n     */\n    function totalSupply() public view returns (uint256 total){\n        return Frogs.length;\n    }\n    /*\n     * @dev Returns the name of the token.\n     */\n    function name() public pure returns (string memory tokenName){\n        return _name;\n    }\n    /*\n     * @dev Returns the symbol of the token.\n     */\n    function symbol() public pure returns (string memory tokenSymbol){\n        return _symbol;\n    }\n    /**\n     * @dev Returns the owner of the `tokenId` token.\n     *\n     * Requirements:\n     *\n     * - `tokenId` must exist.\n     */\n    function ownerOf(uint256 tokenId) public view returns (address owner){\n        require(_frogExists(tokenId), \"Token does not exist\");\n        return frogIndexToOwner[tokenId];\n    }\n     /* @dev Transfers `tokenId` token from `msg.sender` to `to`.\n     *\n     *\n     * Requirements:\n     *\n     * - `to` cannot be the zero address.\n     * - `to` can not be the contract address.\n     * - `tokenId` token must be owned by `msg.sender`.\n     *\n     * Emits a {Transfer} event.\n     */\n    function transfer(address to, uint256 tokenId) public{\n        require(to != address(0), \"cannot transfer to zero address\");\n        require(to != address(this), \"cannot transfer to contract address\");\n        require( _owns(msg.sender,tokenId), \"You do not own this token\");\n        \n        _transfer(msg.sender, to, tokenId);\n    }\n     /* @dev Transfers `tokenId` token from `msg.sender` to `to`.\n     * Returns true/false is _claimant owns _tokenId\n     */\n    function _owns(address _claimant, uint256 _tokenId) internal view returns (bool) {\n      return frogIndexToOwner[_tokenId] == _claimant;\n    }\n\n    function _transfer(address _from, address _to, uint256 _tokenId) private { \n        \n        ownershipTokenCount[_to] ++;\n        frogIndexToOwner[_tokenId] = _to;\n\n        if(_from != address(0)){\n            ownershipTokenCount[_from] --;   \n            delete FrogIdxToApprovedAddress[_tokenId];\n        }\n\n        // Emit the transfer event.\n        emit Transfer(msg.sender, _to, _tokenId);\n    }\n\n    function _createFrog(\n        uint256 _genes,\n        uint32 _mumId,\n        uint32 _dadId,\n        uint16 _generation,\n        address _owner\n    ) private returns(uint256){\n\n        Frog memory newFrog = Frog(_genes,\n                                    uint64(block.timestamp),\n                                    _mumId,\n                                    _dadId,\n                                    _generation);\n\n        Frogs.push(newFrog);\n        uint256 newTokenId = Frogs.length - 1;\n        frogIndexToOwner[newTokenId] = _owner;\n        ownershipTokenCount[_owner] ++;\n\n\n\n\n        \n\n        emit Birth(_owner,newTokenId,_mumId,_dadId,_genes);\n\n        return newTokenId;\n\n    }\n\n    function createFrogGen0(uint256 _genes) public onlyOwner returns(uint256) {\n        require(GEN0FrogCount<=GEN0FrogCap, \"Max limit of 10 Gen0 Frogs created\");\n        GEN0FrogCount++;\n        return _createFrog(_genes, 0,0,0,msg.sender);\n    }\n\n   \n    \n    function getFrogDetails(uint256 tokenId) external view returns(\n        uint256 genes,\n        uint64 birthTime,\n        uint32 mumId,\n        uint32 dadId,\n        uint16 generation,\n        address owner)\n    {\n        Frog storage frog = Frogs[tokenId];\n\n        genes = frog.genes;\n        birthTime = frog.birthTime;\n        mumId = frog.mumId;\n        dadId = frog.dadId;\n        generation = frog.generation;\n        owner = frogIndexToOwner[tokenId];        \n        \n    }\n\n    mapping (address => mapping (address => bool)) OperatorApprovals;\n    mapping (uint256 => address) FrogIdxToApprovedAddress;\n\n    function approve(address _approved, uint256 _tokenId) external {\n        \n        require(_frogExists(_tokenId),\"Frog does not exist\");\n\n        require(msg.sender == ownerOf(_tokenId) || \n        OperatorApprovals[ownerOf(_tokenId)][msg.sender],\n        \"Only the owner or operator of this token can approve another address\");\n        \n        require(msg.sender != _approved, \"Can't approve yourself\");\n\n        FrogIdxToApprovedAddress[_tokenId] = _approved;\n\n        emit Approval(ownerOf(_tokenId), _approved, _tokenId);\n    }\n\n    function setApprovalForAll(address _operator, bool _approved) external{\n        require(msg.sender != _operator, \"Cannot set yourself as an operator \");\n        OperatorApprovals[msg.sender][_operator] = _approved;\n        emit ApprovalForAll(msg.sender, _operator, _approved);\n    }\n\n    function getApproved(uint256 _tokenId) public view returns(address){\n        require(_frogExists(_tokenId),\"token ID provided is not a valid NFT\");\n        return FrogIdxToApprovedAddress[_tokenId];\n    }\n\n    function isApprovedForAll(address _owner, address _operator) public view returns (bool){\n        return OperatorApprovals[_owner][_operator];\n    }\n    \n    function _frogExists(uint _tokenId) private view returns(bool){\n        return _tokenId< Frogs.length;\n    }\n\n\n    function transferFrom(address _from, address _to, uint256 _tokenId) public{\n        require(_to != address(0), \"recieving contract is not a valid address\");\n        require(_to != address(this), \"cannot transfer to contract address\");\n        require(msg.sender == _from || \n        isApprovedForAll(_from, msg.sender) || \n        msg.sender == getApproved(_tokenId),\n        \"Only the Owner/Operator/Approved address of this token can transfer this token\");\n        require(_from == ownerOf(_tokenId), \"the _from address stated is not the owner of this token \");\n        require(_frogExists(_tokenId), \"token specified does not exist\");\n\n        _transfer(_from, _to, _tokenId);\n    }   \n\n\n\n    ///  checks if `_to` is a smart contract (code size > 0). If so, it calls\n    ///  `onERC721Received` on `_to` and throws if the return value is not\n    ///  `bytes4(keccak256(\"onERC721Received(address,address,uint256,bytes)\"))`.\n    function safeTransferFrom(address _from, address _to, uint256 _tokenId, bytes calldata data) public{\n        _safeTransfer(_from, _to, _tokenId, data);\n    }\n\n    function safeTransferFrom(address _from, address _to, uint256 _tokenId) public{\n        _safeTransfer(_from, _to, _tokenId, \"\");\n    }\n\n    function _safeTransfer(address _from,address _to,uint _tokenId, bytes memory _data) internal {\n        transferFrom(_from, _to, _tokenId);\n        require(_checkERC721Support(_from,_to,_tokenId,_data),\"_to address cannot take ERC721 tokens\");\n    }\n\n    function _checkERC721Support(address _from, address _to, uint _tokenId, bytes memory _data) internal returns(bool){\n\n        if(!_isContract(_to)){\n            return true;\n        }else{\n            //do external call onERC721Received on the smart contract\n            bytes4 returnedData = ERC721TokenReceiver(_to).onERC721Received(msg.sender,_from,_tokenId,_data);\n            return returnedData == MAGIC_NUMBER;\n        }\n    }\n\n\n    function _isContract(address _addr) private view returns (bool isContract){\n        uint32 size;\n        assembly {\n            size := extcodesize(_addr)\n        }\n        return (size > 0);\n    }\n\n}   ",
  "sourcePath": "/Users/alfielloyd/Documents/GitHub/academy-kitties-template/contracts/FroggyContract.sol",
  "compiler": {
    "name": "solc",
    "version": "0.8.11+commit.d7f03943.Emscripten.clang"
  },
  "schemaVersion": "3.4.4",
  "updatedAt": "2022-02-13T02:42:31.603Z",
  "networkType": "ethereum",
  "devdoc": {
    "kind": "dev",
    "methods": {
      "approve(address,uint256)": {
        "details": "The zero address indicates there is no approved address.  Throws unless `msg.sender` is the current NFT owner, or an authorized  operator of the current owner.",
        "params": {
          "_approved": "The new approved NFT controller",
          "_tokenId": "The NFT to approve"
        }
      },
      "balanceOf(address)": {
        "details": "Returns the number of tokens in ``owner``'s account."
      },
      "getApproved(uint256)": {
        "details": "Throws if `_tokenId` is not a valid NFT.",
        "params": {
          "_tokenId": "The NFT to find the approved address for"
        },
        "returns": {
          "_0": "The approved address for this NFT, or the zero address if there is none"
        }
      },
      "isApprovedForAll(address,address)": {
        "params": {
          "_operator": "The address that acts on behalf of the owner",
          "_owner": "The address that owns the NFTs"
        },
        "returns": {
          "_0": "True if `_operator` is an approved operator for `_owner`, false otherwise"
        }
      },
      "ownerOf(uint256)": {
        "details": "Returns the owner of the `tokenId` token. Requirements: - `tokenId` must exist."
      },
      "safeTransferFrom(address,address,uint256)": {
        "details": "This works identically to the other function with an extra data parameter,  except this function just sets data to \"\".",
        "params": {
          "_from": "The current owner of the NFT",
          "_to": "The new owner",
          "_tokenId": "The NFT to transfer"
        }
      },
      "setApprovalForAll(address,bool)": {
        "details": "Emits the ApprovalForAll event. The contract MUST allow  multiple operators per owner.",
        "params": {
          "_approved": "True if the operator is approved, false to revoke approval",
          "_operator": "Address to add to the set of authorized operators"
        }
      },
      "transferFrom(address,address,uint256)": {
        "details": "Throws unless `msg.sender` is the current owner, an authorized  operator, or the approved address for this NFT. Throws if `_from` is  not the current owner. Throws if `_to` is the zero address. Throws if  `_tokenId` is not a valid NFT.",
        "params": {
          "_from": "The current owner of the NFT",
          "_to": "The new owner",
          "_tokenId": "The NFT to transfer"
        }
      }
    },
    "version": 1
  },
  "userdoc": {
    "kind": "user",
    "methods": {
      "approve(address,uint256)": {
        "notice": "Change or reaffirm the approved address for an NFT"
      },
      "getApproved(uint256)": {
        "notice": "Get the approved address for a single NFT"
      },
      "isApprovedForAll(address,address)": {
        "notice": "Query if an address is an authorized operator for another address"
      },
      "safeTransferFrom(address,address,uint256)": {
        "notice": "Transfers the ownership of an NFT from one address to another address"
      },
      "safeTransferFrom(address,address,uint256,bytes)": {
        "notice": "checks if `_to` is a smart contract (code size > 0). If so, it calls  `onERC721Received` on `_to` and throws if the return value is not  `bytes4(keccak256(\"onERC721Received(address,address,uint256,bytes)\"))`."
      },
      "setApprovalForAll(address,bool)": {
        "notice": "Enable or disable approval for a third party (\"operator\") to manage  all of `msg.sender`'s assets"
      },
      "transferFrom(address,address,uint256)": {
        "notice": "Transfer ownership of an NFT -- THE CALLER IS RESPONSIBLE  TO CONFIRM THAT `_to` IS CAPABLE OF RECEIVING NFTS OR ELSE  THEY MAY BE PERMANENTLY LOST"
      }
    },
    "version": 1
  }
}