{
  "contractName": "FroggyContract",
  "abi": [
    {
      "anonymous": false,
      "inputs": [
        {
          "indexed": true,
          "internalType": "address",
          "name": "owner",
          "type": "address"
        },
        {
          "indexed": true,
          "internalType": "address",
          "name": "approved",
          "type": "address"
        },
        {
          "indexed": true,
          "internalType": "uint256",
          "name": "tokenId",
          "type": "uint256"
        }
      ],
      "name": "Approval",
      "type": "event"
    },
    {
      "anonymous": false,
      "inputs": [
        {
          "indexed": false,
          "internalType": "address",
          "name": "owner",
          "type": "address"
        },
        {
          "indexed": false,
          "internalType": "uint256",
          "name": "tokenId",
          "type": "uint256"
        },
        {
          "indexed": false,
          "internalType": "uint256",
          "name": "mum",
          "type": "uint256"
        },
        {
          "indexed": false,
          "internalType": "uint256",
          "name": "dad",
          "type": "uint256"
        },
        {
          "indexed": false,
          "internalType": "uint256",
          "name": "genes",
          "type": "uint256"
        }
      ],
      "name": "Birth",
      "type": "event"
    },
    {
      "anonymous": false,
      "inputs": [
        {
          "indexed": true,
          "internalType": "address",
          "name": "from",
          "type": "address"
        },
        {
          "indexed": true,
          "internalType": "address",
          "name": "to",
          "type": "address"
        },
        {
          "indexed": true,
          "internalType": "uint256",
          "name": "tokenId",
          "type": "uint256"
        }
      ],
      "name": "Transfer",
      "type": "event"
    },
    {
      "inputs": [
        {
          "internalType": "uint256",
          "name": "",
          "type": "uint256"
        }
      ],
      "name": "frogIndexToOwner",
      "outputs": [
        {
          "internalType": "address",
          "name": "",
          "type": "address"
        }
      ],
      "stateMutability": "view",
      "type": "function",
      "constant": true
    },
    {
      "inputs": [
        {
          "internalType": "address",
          "name": "owner",
          "type": "address"
        }
      ],
      "name": "balanceOf",
      "outputs": [
        {
          "internalType": "uint256",
          "name": "balance",
          "type": "uint256"
        }
      ],
      "stateMutability": "view",
      "type": "function",
      "constant": true
    },
    {
      "inputs": [],
      "name": "totalSupply",
      "outputs": [
        {
          "internalType": "uint256",
          "name": "total",
          "type": "uint256"
        }
      ],
      "stateMutability": "view",
      "type": "function",
      "constant": true
    },
    {
      "inputs": [],
      "name": "name",
      "outputs": [
        {
          "internalType": "string",
          "name": "tokenName",
          "type": "string"
        }
      ],
      "stateMutability": "view",
      "type": "function",
      "constant": true
    },
    {
      "inputs": [],
      "name": "symbol",
      "outputs": [
        {
          "internalType": "string",
          "name": "tokenSymbol",
          "type": "string"
        }
      ],
      "stateMutability": "view",
      "type": "function",
      "constant": true
    },
    {
      "inputs": [
        {
          "internalType": "uint256",
          "name": "tokenId",
          "type": "uint256"
        }
      ],
      "name": "ownerOf",
      "outputs": [
        {
          "internalType": "address",
          "name": "owner",
          "type": "address"
        }
      ],
      "stateMutability": "view",
      "type": "function",
      "constant": true
    },
    {
      "inputs": [
        {
          "internalType": "address",
          "name": "to",
          "type": "address"
        },
        {
          "internalType": "uint256",
          "name": "tokenId",
          "type": "uint256"
        }
      ],
      "name": "transfer",
      "outputs": [],
      "stateMutability": "nonpayable",
      "type": "function"
    },
    {
      "inputs": [
        {
          "internalType": "uint256",
          "name": "_genes",
          "type": "uint256"
        }
      ],
      "name": "createFrogGen0",
      "outputs": [
        {
          "internalType": "uint256",
          "name": "",
          "type": "uint256"
        }
      ],
      "stateMutability": "nonpayable",
      "type": "function"
    }
  ],
  "bytecode": "0x608060405234801561001057600080fd5b50610dd8806100206000396000f3fe608060405234801561001057600080fd5b50600436106100885760003560e01c80636352211e1161005b5780636352211e1461012957806370a082311461015957806395d89b4114610189578063a9059cbb146101a757610088565b806306fdde031461008d57806318160ddd146100ab57806335c96e47146100c95780634df404e2146100f9575b600080fd5b6100956101c3565b6040516100a291906108af565b60405180910390f35b6100b3610200565b6040516100c091906108ea565b60405180910390f35b6100e360048036038101906100de9190610936565b61020c565b6040516100f091906109a4565b60405180910390f35b610113600480360381019061010e9190610936565b61023f565b60405161012091906108ea565b60405180910390f35b610143600480360381019061013e9190610936565b610257565b60405161015091906109a4565b60405180910390f35b610173600480360381019061016e91906109eb565b6102db565b60405161018091906108ea565b60405180910390f35b610191610324565b60405161019e91906108af565b60405180910390f35b6101c160048036038101906101bc9190610a18565b610361565b005b60606040518060400160405280600781526020017f414c46524f475300000000000000000000000000000000000000000000000000815250905090565b60008080549050905090565b60016020528060005260406000206000915054906101000a900473ffffffffffffffffffffffffffffffffffffffff1681565b600061025082600080600033610498565b9050919050565b600080805490508211156102a0576040517f08c379a000000000000000000000000000000000000000000000000000000000815260040161029790610aa4565b60405180910390fd5b6001600083815260200190815260200160002060009054906101000a900473ffffffffffffffffffffffffffffffffffffffff169050919050565b6000600260008373ffffffffffffffffffffffffffffffffffffffff1673ffffffffffffffffffffffffffffffffffffffff168152602001908152602001600020549050919050565b60606040518060400160405280600381526020017f414c460000000000000000000000000000000000000000000000000000000000815250905090565b600073ffffffffffffffffffffffffffffffffffffffff168273ffffffffffffffffffffffffffffffffffffffff1614156103d1576040517f08c379a00000000000000000000000000000000000000000000000000000000081526004016103c890610b10565b60405180910390fd5b3073ffffffffffffffffffffffffffffffffffffffff168273ffffffffffffffffffffffffffffffffffffffff161415610440576040517f08c379a000000000000000000000000000000000000000000000000000000000815260040161043790610ba2565b60405180910390fd5b61044a3382610619565b610489576040517f08c379a000000000000000000000000000000000000000000000000000000000815260040161048090610c0e565b60405180910390fd5b610494338383610685565b5050565b6000806040518060a001604052808881526020014267ffffffffffffffff1681526020018763ffffffff1681526020018663ffffffff1681526020018561ffff16815250905060008190806001815401808255809150506001900390600052602060002090600202016000909190919091506000820151816000015560208201518160010160006101000a81548167ffffffffffffffff021916908367ffffffffffffffff16021790555060408201518160010160086101000a81548163ffffffff021916908363ffffffff160217905550606082015181600101600c6101000a81548163ffffffff021916908363ffffffff16021790555060808201518160010160106101000a81548161ffff021916908361ffff1602179055505050600060016000805490506105ca9190610c5d565b90507f0a5311bd2a6608f08a180df2ee7c5946819a649b204b554bb8e39825b2c50ad5848289898c604051610603959493929190610cdc565b60405180910390a1809250505095945050505050565b60008273ffffffffffffffffffffffffffffffffffffffff166001600084815260200190815260200160002060009054906101000a900473ffffffffffffffffffffffffffffffffffffffff1673ffffffffffffffffffffffffffffffffffffffff1614905092915050565b600260008373ffffffffffffffffffffffffffffffffffffffff1673ffffffffffffffffffffffffffffffffffffffff16815260200190815260200160002060008154809291906106d590610d2f565b9190505550816001600083815260200190815260200160002060006101000a81548173ffffffffffffffffffffffffffffffffffffffff021916908373ffffffffffffffffffffffffffffffffffffffff160217905550600073ffffffffffffffffffffffffffffffffffffffff168373ffffffffffffffffffffffffffffffffffffffff16146107b657600260008473ffffffffffffffffffffffffffffffffffffffff1673ffffffffffffffffffffffffffffffffffffffff16815260200190815260200160002060008154809291906107b090610d78565b91905055505b808273ffffffffffffffffffffffffffffffffffffffff163373ffffffffffffffffffffffffffffffffffffffff167fddf252ad1be2c89b69c2b068fc378daa952ba7f163c4a11628f55a4df523b3ef60405160405180910390a4505050565b600081519050919050565b600082825260208201905092915050565b60005b83811015610850578082015181840152602081019050610835565b8381111561085f576000848401525b50505050565b6000601f19601f8301169050919050565b600061088182610816565b61088b8185610821565b935061089b818560208601610832565b6108a481610865565b840191505092915050565b600060208201905081810360008301526108c98184610876565b905092915050565b6000819050919050565b6108e4816108d1565b82525050565b60006020820190506108ff60008301846108db565b92915050565b600080fd5b610913816108d1565b811461091e57600080fd5b50565b6000813590506109308161090a565b92915050565b60006020828403121561094c5761094b610905565b5b600061095a84828501610921565b91505092915050565b600073ffffffffffffffffffffffffffffffffffffffff82169050919050565b600061098e82610963565b9050919050565b61099e81610983565b82525050565b60006020820190506109b96000830184610995565b92915050565b6109c881610983565b81146109d357600080fd5b50565b6000813590506109e5816109bf565b92915050565b600060208284031215610a0157610a00610905565b5b6000610a0f848285016109d6565b91505092915050565b60008060408385031215610a2f57610a2e610905565b5b6000610a3d858286016109d6565b9250506020610a4e85828601610921565b9150509250929050565b7f546f6b656e20646f6573206e6f74206578697374000000000000000000000000600082015250565b6000610a8e601483610821565b9150610a9982610a58565b602082019050919050565b60006020820190508181036000830152610abd81610a81565b9050919050565b7f63616e6e6f74207472616e7366657220746f207a65726f206164647265737300600082015250565b6000610afa601f83610821565b9150610b0582610ac4565b602082019050919050565b60006020820190508181036000830152610b2981610aed565b9050919050565b7f63616e6e6f74207472616e7366657220746f20636f6e7472616374206164647260008201527f6573730000000000000000000000000000000000000000000000000000000000602082015250565b6000610b8c602383610821565b9150610b9782610b30565b604082019050919050565b60006020820190508181036000830152610bbb81610b7f565b9050919050565b7f596f7520646f206e6f74206f776e207468697320746f6b656e00000000000000600082015250565b6000610bf8601983610821565b9150610c0382610bc2565b602082019050919050565b60006020820190508181036000830152610c2781610beb565b9050919050565b7f4e487b7100000000000000000000000000000000000000000000000000000000600052601160045260246000fd5b6000610c68826108d1565b9150610c73836108d1565b925082821015610c8657610c85610c2e565b5b828203905092915050565b600063ffffffff82169050919050565b6000819050919050565b6000610cc6610cc1610cbc84610c91565b610ca1565b6108d1565b9050919050565b610cd681610cab565b82525050565b600060a082019050610cf16000830188610995565b610cfe60208301876108db565b610d0b6040830186610ccd565b610d186060830185610ccd565b610d2560808301846108db565b9695505050505050565b6000610d3a826108d1565b91507fffffffffffffffffffffffffffffffffffffffffffffffffffffffffffffffff821415610d6d57610d6c610c2e565b5b600182019050919050565b6000610d83826108d1565b91506000821415610d9757610d96610c2e565b5b60018203905091905056fea2646970667358221220d9a33dbc98c392d54c883755cfbca3a60507cc862701648c9e8ca27bb93cad0164736f6c634300080b0033",
  "immutableReferences": {},
  "source": "pragma solidity >=0.4.22 <0.9.0;\nimport \"./IERC721.sol\";\n\ncontract FroggyContract is IERC721{\n\n    event Birth(address owner, uint256 tokenId, uint256 mum, uint256 dad, uint256 genes);\n\n\n    string private constant _name = \"ALFROGS\";\n    string private constant _symbol = \"ALF\";\n\n    struct Frog {\n        uint256 genes;\n        uint64 birthTime;\n        uint32 mumId;\n        uint32 dadId;\n        uint16 generation;\n    }\n\n    Frog[] Frogs;\n\n\n    mapping (uint256 => address) public frogIndexToOwner;\n    mapping (address => uint256) ownershipTokenCount;\n\n\n    /**\n     * @dev Returns the number of tokens in ``owner``'s account.\n     */\n    function balanceOf(address owner) public view returns (uint256 balance){\n        return ownershipTokenCount[owner];\n    }\n    /*\n     * @dev Returns the total number of tokens in circulation.\n     */\n    function totalSupply() public view returns (uint256 total){\n        return Frogs.length;\n    }\n    /*\n     * @dev Returns the name of the token.\n     */\n    function name() public view returns (string memory tokenName){\n        return _name;\n    }\n    /*\n     * @dev Returns the symbol of the token.\n     */\n    function symbol() public view returns (string memory tokenSymbol){\n        return _symbol;\n    }\n    /**\n     * @dev Returns the owner of the `tokenId` token.\n     *\n     * Requirements:\n     *\n     * - `tokenId` must exist.\n     */\n    function ownerOf(uint256 tokenId) public view returns (address owner){\n        require(tokenId<= Frogs.length, \"Token does not exist\");\n        return frogIndexToOwner[tokenId];\n    }\n     /* @dev Transfers `tokenId` token from `msg.sender` to `to`.\n     *\n     *\n     * Requirements:\n     *\n     * - `to` cannot be the zero address.\n     * - `to` can not be the contract address.\n     * - `tokenId` token must be owned by `msg.sender`.\n     *\n     * Emits a {Transfer} event.\n     */\n    function transfer(address to, uint256 tokenId) public{\n        require(to != address(0), \"cannot transfer to zero address\");\n        require(to != address(this), \"cannot transfer to contract address\");\n        require( _owns(msg.sender,tokenId), \"You do not own this token\");\n        \n        _transfer(msg.sender, to, tokenId);\n    }\n     /* @dev Transfers `tokenId` token from `msg.sender` to `to`.\n     * Returns true/false is _claimant owns _tokenId\n     */\n    function _owns(address _claimant, uint256 _tokenId) internal view returns (bool) {\n      return frogIndexToOwner[_tokenId] == _claimant;\n    }\n\n    function _transfer(address _from, address _to, uint256 _tokenId) private { \n        \n        ownershipTokenCount[_to] ++;\n        frogIndexToOwner[_tokenId] = _to;\n\n        if(_from != address(0)){\n            ownershipTokenCount[_from] --;    \n        }\n\n        // Emit the transfer event.\n        emit Transfer(msg.sender, _to, _tokenId);\n    }\n\n    function _createFrog(\n        uint256 _genes,\n        uint32 _mumId,\n        uint32 _dadId,\n        uint16 _generation,\n        address _owner\n    ) private returns(uint256){\n\n        Frog memory newFrog = Frog(_genes,\n                                    uint64(block.timestamp),\n                                    _mumId,\n                                    _dadId,\n                                    _generation);\n\n        Frogs.push(newFrog);\n\n        uint256 newTokenId = Frogs.length - 1;\n\n        emit Birth(_owner,newTokenId,_mumId,_dadId,_genes);\n\n        return newTokenId;\n\n    }\n\n    function createFrogGen0(uint256 _genes) public returns(uint256) {\n        return _createFrog(_genes, 0,0,0,msg.sender);\n    }\n\n\n\n}",
  "sourcePath": "/Users/alfielloyd/Documents/GitHub/academy-kitties-template/contracts/FroggyContract.sol",
  "compiler": {
    "name": "solc",
    "version": "0.8.11+commit.d7f03943.Emscripten.clang"
  },
  "schemaVersion": "3.4.4",
  "updatedAt": "2022-02-03T21:55:21.206Z",
  "networkType": "ethereum",
  "devdoc": {
    "kind": "dev",
    "methods": {
      "balanceOf(address)": {
        "details": "Returns the number of tokens in ``owner``'s account."
      },
      "ownerOf(uint256)": {
        "details": "Returns the owner of the `tokenId` token. Requirements: - `tokenId` must exist."
      }
    },
    "version": 1
  },
  "userdoc": {
    "kind": "user",
    "methods": {},
    "version": 1
  }
}