{
  "contractName": "FroggyContract",
  "abi": [
    {
      "anonymous": false,
      "inputs": [
        {
          "indexed": true,
          "internalType": "address",
          "name": "owner",
          "type": "address"
        },
        {
          "indexed": true,
          "internalType": "address",
          "name": "approved",
          "type": "address"
        },
        {
          "indexed": true,
          "internalType": "uint256",
          "name": "tokenId",
          "type": "uint256"
        }
      ],
      "name": "Approval",
      "type": "event"
    },
    {
      "anonymous": false,
      "inputs": [
        {
          "indexed": true,
          "internalType": "address",
          "name": "owner",
          "type": "address"
        },
        {
          "indexed": true,
          "internalType": "address",
          "name": "operator",
          "type": "address"
        },
        {
          "indexed": false,
          "internalType": "bool",
          "name": "approved",
          "type": "bool"
        }
      ],
      "name": "ApprovalForAll",
      "type": "event"
    },
    {
      "anonymous": false,
      "inputs": [
        {
          "indexed": false,
          "internalType": "address",
          "name": "owner",
          "type": "address"
        },
        {
          "indexed": false,
          "internalType": "uint256",
          "name": "tokenId",
          "type": "uint256"
        },
        {
          "indexed": false,
          "internalType": "uint256",
          "name": "mum",
          "type": "uint256"
        },
        {
          "indexed": false,
          "internalType": "uint256",
          "name": "dad",
          "type": "uint256"
        },
        {
          "indexed": false,
          "internalType": "uint256",
          "name": "genes",
          "type": "uint256"
        }
      ],
      "name": "Birth",
      "type": "event"
    },
    {
      "anonymous": false,
      "inputs": [
        {
          "indexed": true,
          "internalType": "address",
          "name": "from",
          "type": "address"
        },
        {
          "indexed": true,
          "internalType": "address",
          "name": "to",
          "type": "address"
        },
        {
          "indexed": true,
          "internalType": "uint256",
          "name": "tokenId",
          "type": "uint256"
        }
      ],
      "name": "Transfer",
      "type": "event"
    },
    {
      "inputs": [],
      "name": "GEN0FrogCap",
      "outputs": [
        {
          "internalType": "uint32",
          "name": "",
          "type": "uint32"
        }
      ],
      "stateMutability": "view",
      "type": "function",
      "constant": true
    },
    {
      "inputs": [],
      "name": "GEN0FrogCount",
      "outputs": [
        {
          "internalType": "uint32",
          "name": "",
          "type": "uint32"
        }
      ],
      "stateMutability": "view",
      "type": "function",
      "constant": true
    },
    {
      "inputs": [
        {
          "internalType": "uint256",
          "name": "",
          "type": "uint256"
        }
      ],
      "name": "frogIndexToOwner",
      "outputs": [
        {
          "internalType": "address",
          "name": "",
          "type": "address"
        }
      ],
      "stateMutability": "view",
      "type": "function",
      "constant": true
    },
    {
      "inputs": [
        {
          "internalType": "uint32",
          "name": "_dadId",
          "type": "uint32"
        },
        {
          "internalType": "uint32",
          "name": "_mumId",
          "type": "uint32"
        }
      ],
      "name": "breed",
      "outputs": [],
      "stateMutability": "nonpayable",
      "type": "function"
    },
    {
      "inputs": [
        {
          "internalType": "bytes4",
          "name": "_interfaceId",
          "type": "bytes4"
        }
      ],
      "name": "supportsInterface",
      "outputs": [
        {
          "internalType": "bool",
          "name": "",
          "type": "bool"
        }
      ],
      "stateMutability": "pure",
      "type": "function",
      "constant": true
    },
    {
      "inputs": [
        {
          "internalType": "address",
          "name": "owner",
          "type": "address"
        }
      ],
      "name": "balanceOf",
      "outputs": [
        {
          "internalType": "uint256",
          "name": "balance",
          "type": "uint256"
        }
      ],
      "stateMutability": "view",
      "type": "function",
      "constant": true
    },
    {
      "inputs": [],
      "name": "totalSupply",
      "outputs": [
        {
          "internalType": "uint256",
          "name": "total",
          "type": "uint256"
        }
      ],
      "stateMutability": "view",
      "type": "function",
      "constant": true
    },
    {
      "inputs": [],
      "name": "name",
      "outputs": [
        {
          "internalType": "string",
          "name": "tokenName",
          "type": "string"
        }
      ],
      "stateMutability": "pure",
      "type": "function",
      "constant": true
    },
    {
      "inputs": [],
      "name": "symbol",
      "outputs": [
        {
          "internalType": "string",
          "name": "tokenSymbol",
          "type": "string"
        }
      ],
      "stateMutability": "pure",
      "type": "function",
      "constant": true
    },
    {
      "inputs": [
        {
          "internalType": "uint256",
          "name": "tokenId",
          "type": "uint256"
        }
      ],
      "name": "ownerOf",
      "outputs": [
        {
          "internalType": "address",
          "name": "owner",
          "type": "address"
        }
      ],
      "stateMutability": "view",
      "type": "function",
      "constant": true
    },
    {
      "inputs": [
        {
          "internalType": "address",
          "name": "to",
          "type": "address"
        },
        {
          "internalType": "uint256",
          "name": "tokenId",
          "type": "uint256"
        }
      ],
      "name": "transfer",
      "outputs": [],
      "stateMutability": "nonpayable",
      "type": "function"
    },
    {
      "inputs": [
        {
          "internalType": "uint256",
          "name": "_genes",
          "type": "uint256"
        }
      ],
      "name": "createFrogGen0",
      "outputs": [
        {
          "internalType": "uint256",
          "name": "",
          "type": "uint256"
        }
      ],
      "stateMutability": "nonpayable",
      "type": "function"
    },
    {
      "inputs": [
        {
          "internalType": "uint256",
          "name": "tokenId",
          "type": "uint256"
        }
      ],
      "name": "getFrogDetails",
      "outputs": [
        {
          "internalType": "uint256",
          "name": "genes",
          "type": "uint256"
        },
        {
          "internalType": "uint64",
          "name": "birthTime",
          "type": "uint64"
        },
        {
          "internalType": "uint32",
          "name": "mumId",
          "type": "uint32"
        },
        {
          "internalType": "uint32",
          "name": "dadId",
          "type": "uint32"
        },
        {
          "internalType": "uint16",
          "name": "generation",
          "type": "uint16"
        },
        {
          "internalType": "address",
          "name": "owner",
          "type": "address"
        }
      ],
      "stateMutability": "view",
      "type": "function",
      "constant": true
    },
    {
      "inputs": [
        {
          "internalType": "address",
          "name": "_approved",
          "type": "address"
        },
        {
          "internalType": "uint256",
          "name": "_tokenId",
          "type": "uint256"
        }
      ],
      "name": "approve",
      "outputs": [],
      "stateMutability": "nonpayable",
      "type": "function"
    },
    {
      "inputs": [
        {
          "internalType": "address",
          "name": "_operator",
          "type": "address"
        },
        {
          "internalType": "bool",
          "name": "_approved",
          "type": "bool"
        }
      ],
      "name": "setApprovalForAll",
      "outputs": [],
      "stateMutability": "nonpayable",
      "type": "function"
    },
    {
      "inputs": [
        {
          "internalType": "uint256",
          "name": "_tokenId",
          "type": "uint256"
        }
      ],
      "name": "getApproved",
      "outputs": [
        {
          "internalType": "address",
          "name": "",
          "type": "address"
        }
      ],
      "stateMutability": "view",
      "type": "function",
      "constant": true
    },
    {
      "inputs": [
        {
          "internalType": "address",
          "name": "_owner",
          "type": "address"
        },
        {
          "internalType": "address",
          "name": "_operator",
          "type": "address"
        }
      ],
      "name": "isApprovedForAll",
      "outputs": [
        {
          "internalType": "bool",
          "name": "",
          "type": "bool"
        }
      ],
      "stateMutability": "view",
      "type": "function",
      "constant": true
    },
    {
      "inputs": [
        {
          "internalType": "address",
          "name": "_from",
          "type": "address"
        },
        {
          "internalType": "address",
          "name": "_to",
          "type": "address"
        },
        {
          "internalType": "uint256",
          "name": "_tokenId",
          "type": "uint256"
        }
      ],
      "name": "transferFrom",
      "outputs": [],
      "stateMutability": "nonpayable",
      "type": "function"
    },
    {
      "inputs": [
        {
          "internalType": "address",
          "name": "_from",
          "type": "address"
        },
        {
          "internalType": "address",
          "name": "_to",
          "type": "address"
        },
        {
          "internalType": "uint256",
          "name": "_tokenId",
          "type": "uint256"
        }
      ],
      "name": "safeTransferFrom",
      "outputs": [],
      "stateMutability": "nonpayable",
      "type": "function"
    },
    {
      "inputs": [
        {
          "internalType": "address",
          "name": "_from",
          "type": "address"
        },
        {
          "internalType": "address",
          "name": "_to",
          "type": "address"
        },
        {
          "internalType": "uint256",
          "name": "_tokenId",
          "type": "uint256"
        },
        {
          "internalType": "bytes",
          "name": "data",
          "type": "bytes"
        }
      ],
      "name": "safeTransferFrom",
      "outputs": [],
      "stateMutability": "nonpayable",
      "type": "function"
    },
    {
      "inputs": [
        {
          "internalType": "uint256",
          "name": "_dadDna",
          "type": "uint256"
        },
        {
          "internalType": "uint256",
          "name": "_mumDna",
          "type": "uint256"
        }
      ],
      "name": "_mixDna",
      "outputs": [
        {
          "internalType": "uint256",
          "name": "",
          "type": "uint256"
        }
      ],
      "stateMutability": "view",
      "type": "function",
      "constant": true
    }
  ],
  "bytecode": "0x6080604052600a600060146101000a81548163ffffffff021916908363ffffffff16021790555034801561003257600080fd5b50336000806101000a81548173ffffffffffffffffffffffffffffffffffffffff021916908373ffffffffffffffffffffffffffffffffffffffff160217905550612ec9806100826000396000f3fe608060405234801561001057600080fd5b50600436106101375760003560e01c80636352211e116100b8578063a9059cbb1161007c578063a9059cbb14610372578063ab0817551461038e578063b1c06e22146103ac578063b88d4fde146103e1578063e985e9c5146103fd578063feb13f6c1461042d57610137565b80636352211e146102a857806370a08231146102d8578063959bb9701461030857806395d89b4114610338578063a22cb4651461035657610137565b806323b872dd116100ff57806323b872dd146101f457806324ab5e081461021057806335c96e471461022c57806342842e0e1461025c5780634df404e21461027857610137565b806301ffc9a71461013c57806306fdde031461016c578063081812fc1461018a578063095ea7b3146101ba57806318160ddd146101d6575b600080fd5b61015660048036038101906101519190611b36565b61044b565b6040516101639190611b7e565b60405180910390f35b6101746104eb565b6040516101819190611c32565b60405180910390f35b6101a4600480360381019061019f9190611c8a565b610528565b6040516101b19190611cf8565b60405180910390f35b6101d460048036038101906101cf9190611d3f565b6105ad565b005b6101de61082c565b6040516101eb9190611d8e565b60405180910390f35b61020e60048036038101906102099190611da9565b610839565b005b61022a60048036038101906102259190611e38565b610aa3565b005b61024660048036038101906102419190611c8a565b610bcc565b6040516102539190611cf8565b60405180910390f35b61027660048036038101906102719190611da9565b610bff565b005b610292600480360381019061028d9190611c8a565b610c1f565b60405161029f9190611d8e565b60405180910390f35b6102c260048036038101906102bd9190611c8a565b610d44565b6040516102cf9190611cf8565b60405180910390f35b6102f260048036038101906102ed9190611e78565b610dc9565b6040516102ff9190611d8e565b60405180910390f35b610322600480360381019061031d9190611ea5565b610e12565b60405161032f9190611d8e565b60405180910390f35b610340610fa8565b60405161034d9190611c32565b60405180910390f35b610370600480360381019061036b9190611f11565b610fe5565b005b61038c60048036038101906103879190611d3f565b611151565b005b610396611288565b6040516103a39190611f60565b60405180910390f35b6103c660048036038101906103c19190611c8a565b61129e565b6040516103d896959493929190611fbb565b60405180910390f35b6103fb60048036038101906103f69190612081565b611372565b005b61041760048036038101906104129190612109565b6113c9565b6040516104249190611b7e565b60405180910390f35b61043561145d565b6040516104429190611f60565b60405180910390f35b60006380ac58cd60e01b7bffffffffffffffffffffffffffffffffffffffffffffffffffffffff1916827bffffffffffffffffffffffffffffffffffffffffffffffffffffffff191614806104e457506301ffc9a760e01b7bffffffffffffffffffffffffffffffffffffffffffffffffffffffff1916827bffffffffffffffffffffffffffffffffffffffffffffffffffffffff1916145b9050919050565b60606040518060400160405280600781526020017f414c46524f475300000000000000000000000000000000000000000000000000815250905090565b600061053382611473565b610572576040517f08c379a0000000000000000000000000000000000000000000000000000000008152600401610569906121bb565b60405180910390fd5b6005600083815260200190815260200160002060009054906101000a900473ffffffffffffffffffffffffffffffffffffffff169050919050565b6105b681611473565b6105f5576040517f08c379a00000000000000000000000000000000000000000000000000000000081526004016105ec90612227565b60405180910390fd5b6105fe81610d44565b73ffffffffffffffffffffffffffffffffffffffff163373ffffffffffffffffffffffffffffffffffffffff1614806106c557506004600061063f83610d44565b73ffffffffffffffffffffffffffffffffffffffff1673ffffffffffffffffffffffffffffffffffffffff16815260200190815260200160002060003373ffffffffffffffffffffffffffffffffffffffff1673ffffffffffffffffffffffffffffffffffffffff16815260200190815260200160002060009054906101000a900460ff165b610704576040517f08c379a00000000000000000000000000000000000000000000000000000000081526004016106fb906122df565b60405180910390fd5b8173ffffffffffffffffffffffffffffffffffffffff163373ffffffffffffffffffffffffffffffffffffffff161415610773576040517f08c379a000000000000000000000000000000000000000000000000000000000815260040161076a9061234b565b60405180910390fd5b816005600083815260200190815260200160002060006101000a81548173ffffffffffffffffffffffffffffffffffffffff021916908373ffffffffffffffffffffffffffffffffffffffff160217905550808273ffffffffffffffffffffffffffffffffffffffff166107e683610d44565b73ffffffffffffffffffffffffffffffffffffffff167f8c5be1e5ebec7d5bd14f71427d1e84f3dd0314c0f7b2291e5b200ac8c7c3b92560405160405180910390a45050565b6000600180549050905090565b600073ffffffffffffffffffffffffffffffffffffffff168273ffffffffffffffffffffffffffffffffffffffff1614156108a9576040517f08c379a00000000000000000000000000000000000000000000000000000000081526004016108a0906123dd565b60405180910390fd5b3073ffffffffffffffffffffffffffffffffffffffff168273ffffffffffffffffffffffffffffffffffffffff161415610918576040517f08c379a000000000000000000000000000000000000000000000000000000000815260040161090f9061246f565b60405180910390fd5b8273ffffffffffffffffffffffffffffffffffffffff163373ffffffffffffffffffffffffffffffffffffffff161480610958575061095783336113c9565b5b80610996575061096781610528565b73ffffffffffffffffffffffffffffffffffffffff163373ffffffffffffffffffffffffffffffffffffffff16145b6109d5576040517f08c379a00000000000000000000000000000000000000000000000000000000081526004016109cc90612527565b60405180910390fd5b6109de81610d44565b73ffffffffffffffffffffffffffffffffffffffff168373ffffffffffffffffffffffffffffffffffffffff1614610a4b576040517f08c379a0000000000000000000000000000000000000000000000000000000008152600401610a42906125b9565b60405180910390fd5b610a5481611473565b610a93576040517f08c379a0000000000000000000000000000000000000000000000000000000008152600401610a8a90612625565b60405180910390fd5b610a9e838383611484565b505050565b610ab28263ffffffff16610d44565b73ffffffffffffffffffffffffffffffffffffffff163373ffffffffffffffffffffffffffffffffffffffff16148015610b255750610af68163ffffffff16610d44565b73ffffffffffffffffffffffffffffffffffffffff163373ffffffffffffffffffffffffffffffffffffffff16145b610b64576040517f08c379a0000000000000000000000000000000000000000000000000000000008152600401610b5b906126b7565b60405180910390fd5b600080610b768463ffffffff1661129e565b5094505050509150600080610b908563ffffffff1661129e565b50945050505091506000610ba48584610e12565b90506000610bb2858461164b565b9050610bc182888a843361169e565b505050505050505050565b60026020528060005260406000206000915054906101000a900473ffffffffffffffffffffffffffffffffffffffff1681565b610c1a838383604051806020016040528060008152506118c5565b505050565b60008060009054906101000a900473ffffffffffffffffffffffffffffffffffffffff1673ffffffffffffffffffffffffffffffffffffffff163373ffffffffffffffffffffffffffffffffffffffff1614610c7a57600080fd5b600060149054906101000a900463ffffffff1663ffffffff16600060189054906101000a900463ffffffff1663ffffffff161115610ced576040517f08c379a0000000000000000000000000000000000000000000000000000000008152600401610ce490612749565b60405180910390fd5b6000601881819054906101000a900463ffffffff1680929190610d0f90612798565b91906101000a81548163ffffffff021916908363ffffffff16021790555050610d3d8260008060003361169e565b9050919050565b6000610d4f82611473565b610d8e576040517f08c379a0000000000000000000000000000000000000000000000000000000008152600401610d8590612811565b60405180910390fd5b6002600083815260200190815260200160002060009054906101000a900473ffffffffffffffffffffffffffffffffffffffff169050919050565b6000600360008373ffffffffffffffffffffffffffffffffffffffff1673ffffffffffffffffffffffffffffffffffffffff168152602001908152602001600020549050919050565b6000610e1c611ab1565b600060ff42610e2b9190612860565b9050600060019050600060079050600191505b60808211610efb576000828460ff161614610e8457606486610e609190612860565b60ff16848260088110610e7657610e75612891565b5b602002018181525050610eb1565b606487610e919190612860565b60ff16848260088110610ea757610ea6612891565b5b6020020181815250505b606486610ebe91906128c0565b9550606487610ecd91906128c0565b965060808214610ee757600181610ee491906128f1565b90505b600282610ef49190612925565b9150610e3e565b60008092505b6008831015610f9a5760078314610f4b57848360088110610f2557610f24612891565b5b602002015181610f35919061297f565b9050606481610f449190612925565b9050610f87565b6000601960ff42610f5c9190612860565b610f6691906129e2565b600a610f729190612a13565b90508060ff1682610f83919061297f565b9150505b8280610f9290612a4a565b935050610f01565b809550505050505092915050565b60606040518060400160405280600381526020017f414c460000000000000000000000000000000000000000000000000000000000815250905090565b8173ffffffffffffffffffffffffffffffffffffffff163373ffffffffffffffffffffffffffffffffffffffff161415611054576040517f08c379a000000000000000000000000000000000000000000000000000000000815260040161104b90612b05565b60405180910390fd5b80600460003373ffffffffffffffffffffffffffffffffffffffff1673ffffffffffffffffffffffffffffffffffffffff16815260200190815260200160002060008473ffffffffffffffffffffffffffffffffffffffff1673ffffffffffffffffffffffffffffffffffffffff16815260200190815260200160002060006101000a81548160ff0219169083151502179055508173ffffffffffffffffffffffffffffffffffffffff163373ffffffffffffffffffffffffffffffffffffffff167f17307eab39ab6107e8899845ad3d59bd9653f200f220920489ca2b5937696c31836040516111459190611b7e565b60405180910390a35050565b600073ffffffffffffffffffffffffffffffffffffffff168273ffffffffffffffffffffffffffffffffffffffff1614156111c1576040517f08c379a00000000000000000000000000000000000000000000000000000000081526004016111b890612b71565b60405180910390fd5b3073ffffffffffffffffffffffffffffffffffffffff168273ffffffffffffffffffffffffffffffffffffffff161415611230576040517f08c379a00000000000000000000000000000000000000000000000000000000081526004016112279061246f565b60405180910390fd5b61123a3382611921565b611279576040517f08c379a000000000000000000000000000000000000000000000000000000000815260040161127090612bdd565b60405180910390fd5b611284338383611484565b5050565b600060149054906101000a900463ffffffff1681565b6000806000806000806000600188815481106112bd576112bc612891565b5b90600052602060002090600202019050806000015496508060010160009054906101000a900467ffffffffffffffff1695508060010160089054906101000a900463ffffffff16945080600101600c9054906101000a900463ffffffff1693508060010160109054906101000a900461ffff1692506002600089815260200190815260200160002060009054906101000a900473ffffffffffffffffffffffffffffffffffffffff1691505091939550919395565b6113c285858585858080601f016020809104026020016040519081016040528093929190818152602001838380828437600081840152601f19601f820116905080830192505050505050506118c5565b5050505050565b6000600460008473ffffffffffffffffffffffffffffffffffffffff1673ffffffffffffffffffffffffffffffffffffffff16815260200190815260200160002060008373ffffffffffffffffffffffffffffffffffffffff1673ffffffffffffffffffffffffffffffffffffffff16815260200190815260200160002060009054906101000a900460ff16905092915050565b600060189054906101000a900463ffffffff1681565b600060018054905082109050919050565b600360008373ffffffffffffffffffffffffffffffffffffffff1673ffffffffffffffffffffffffffffffffffffffff16815260200190815260200160002060008154809291906114d490612a4a565b9190505550816002600083815260200190815260200160002060006101000a81548173ffffffffffffffffffffffffffffffffffffffff021916908373ffffffffffffffffffffffffffffffffffffffff160217905550600073ffffffffffffffffffffffffffffffffffffffff168373ffffffffffffffffffffffffffffffffffffffff16146115eb57600360008473ffffffffffffffffffffffffffffffffffffffff1673ffffffffffffffffffffffffffffffffffffffff16815260200190815260200160002060008154809291906115af90612bfd565b91905055506005600082815260200190815260200160002060006101000a81549073ffffffffffffffffffffffffffffffffffffffff02191690555b808273ffffffffffffffffffffffffffffffffffffffff163373ffffffffffffffffffffffffffffffffffffffff167fddf252ad1be2c89b69c2b068fc378daa952ba7f163c4a11628f55a4df523b3ef60405160405180910390a4505050565b6000808361ffff16148015611664575060008261ffff16145b156116725760019050611698565b60028083856116819190612c27565b61168b9190612c27565b6116959190612c5f565b90505b92915050565b6000806040518060a001604052808881526020014267ffffffffffffffff1681526020018763ffffffff1681526020018663ffffffff1681526020018561ffff16815250905060018190806001815401808255809150506001900390600052602060002090600202016000909190919091506000820151816000015560208201518160010160006101000a81548167ffffffffffffffff021916908367ffffffffffffffff16021790555060408201518160010160086101000a81548163ffffffff021916908363ffffffff160217905550606082015181600101600c6101000a81548163ffffffff021916908363ffffffff16021790555060808201518160010160106101000a81548161ffff021916908361ffff16021790555050506000600180805490506117cf91906128f1565b9050836002600083815260200190815260200160002060006101000a81548173ffffffffffffffffffffffffffffffffffffffff021916908373ffffffffffffffffffffffffffffffffffffffff160217905550600360008573ffffffffffffffffffffffffffffffffffffffff1673ffffffffffffffffffffffffffffffffffffffff168152602001908152602001600020600081548092919061187390612a4a565b91905055507f0a5311bd2a6608f08a180df2ee7c5946819a649b204b554bb8e39825b2c50ad5848289898c6040516118af959493929190612ccb565b60405180910390a1809250505095945050505050565b6118d0848484610839565b6118dc8484848461198d565b61191b576040517f08c379a000000000000000000000000000000000000000000000000000000000815260040161191290612d90565b60405180910390fd5b50505050565b60008273ffffffffffffffffffffffffffffffffffffffff166002600084815260200190815260200160002060009054906101000a900473ffffffffffffffffffffffffffffffffffffffff1673ffffffffffffffffffffffffffffffffffffffff1614905092915050565b600061199884611a98565b6119a55760019050611a90565b60008473ffffffffffffffffffffffffffffffffffffffff1663150b7a02338887876040518563ffffffff1660e01b81526004016119e69493929190612e05565b6020604051808303816000875af1158015611a05573d6000803e3d6000fd5b505050506040513d601f19601f82011682018060405250810190611a299190612e66565b90507f150b7a023d4804d13e8c85fb27262cb750cf6ba9f9dd3bb30d90f482ceeb4b1f7bffffffffffffffffffffffffffffffffffffffffffffffffffffffff1916817bffffffffffffffffffffffffffffffffffffffffffffffffffffffff1916149150505b949350505050565b600080823b905060008163ffffffff1611915050919050565b604051806101000160405280600890602082028036833780820191505090505090565b600080fd5b600080fd5b60007fffffffff0000000000000000000000000000000000000000000000000000000082169050919050565b611b1381611ade565b8114611b1e57600080fd5b50565b600081359050611b3081611b0a565b92915050565b600060208284031215611b4c57611b4b611ad4565b5b6000611b5a84828501611b21565b91505092915050565b60008115159050919050565b611b7881611b63565b82525050565b6000602082019050611b936000830184611b6f565b92915050565b600081519050919050565b600082825260208201905092915050565b60005b83811015611bd3578082015181840152602081019050611bb8565b83811115611be2576000848401525b50505050565b6000601f19601f8301169050919050565b6000611c0482611b99565b611c0e8185611ba4565b9350611c1e818560208601611bb5565b611c2781611be8565b840191505092915050565b60006020820190508181036000830152611c4c8184611bf9565b905092915050565b6000819050919050565b611c6781611c54565b8114611c7257600080fd5b50565b600081359050611c8481611c5e565b92915050565b600060208284031215611ca057611c9f611ad4565b5b6000611cae84828501611c75565b91505092915050565b600073ffffffffffffffffffffffffffffffffffffffff82169050919050565b6000611ce282611cb7565b9050919050565b611cf281611cd7565b82525050565b6000602082019050611d0d6000830184611ce9565b92915050565b611d1c81611cd7565b8114611d2757600080fd5b50565b600081359050611d3981611d13565b92915050565b60008060408385031215611d5657611d55611ad4565b5b6000611d6485828601611d2a565b9250506020611d7585828601611c75565b9150509250929050565b611d8881611c54565b82525050565b6000602082019050611da36000830184611d7f565b92915050565b600080600060608486031215611dc257611dc1611ad4565b5b6000611dd086828701611d2a565b9350506020611de186828701611d2a565b9250506040611df286828701611c75565b9150509250925092565b600063ffffffff82169050919050565b611e1581611dfc565b8114611e2057600080fd5b50565b600081359050611e3281611e0c565b92915050565b60008060408385031215611e4f57611e4e611ad4565b5b6000611e5d85828601611e23565b9250506020611e6e85828601611e23565b9150509250929050565b600060208284031215611e8e57611e8d611ad4565b5b6000611e9c84828501611d2a565b91505092915050565b60008060408385031215611ebc57611ebb611ad4565b5b6000611eca85828601611c75565b9250506020611edb85828601611c75565b9150509250929050565b611eee81611b63565b8114611ef957600080fd5b50565b600081359050611f0b81611ee5565b92915050565b60008060408385031215611f2857611f27611ad4565b5b6000611f3685828601611d2a565b9250506020611f4785828601611efc565b9150509250929050565b611f5a81611dfc565b82525050565b6000602082019050611f756000830184611f51565b92915050565b600067ffffffffffffffff82169050919050565b611f9881611f7b565b82525050565b600061ffff82169050919050565b611fb581611f9e565b82525050565b600060c082019050611fd06000830189611d7f565b611fdd6020830188611f8f565b611fea6040830187611f51565b611ff76060830186611f51565b6120046080830185611fac565b61201160a0830184611ce9565b979650505050505050565b600080fd5b600080fd5b600080fd5b60008083601f8401126120415761204061201c565b5b8235905067ffffffffffffffff81111561205e5761205d612021565b5b60208301915083600182028301111561207a57612079612026565b5b9250929050565b60008060008060006080868803121561209d5761209c611ad4565b5b60006120ab88828901611d2a565b95505060206120bc88828901611d2a565b94505060406120cd88828901611c75565b935050606086013567ffffffffffffffff8111156120ee576120ed611ad9565b5b6120fa8882890161202b565b92509250509295509295909350565b600080604083850312156121205761211f611ad4565b5b600061212e85828601611d2a565b925050602061213f85828601611d2a565b9150509250929050565b7f746f6b656e2049442070726f7669646564206973206e6f7420612076616c696460008201527f204e465400000000000000000000000000000000000000000000000000000000602082015250565b60006121a5602483611ba4565b91506121b082612149565b604082019050919050565b600060208201905081810360008301526121d481612198565b9050919050565b7f46726f6720646f6573206e6f7420657869737400000000000000000000000000600082015250565b6000612211601383611ba4565b915061221c826121db565b602082019050919050565b6000602082019050818103600083015261224081612204565b9050919050565b7f4f6e6c7920746865206f776e6572206f72206f70657261746f72206f6620746860008201527f697320746f6b656e2063616e20617070726f766520616e6f746865722061646460208201527f7265737300000000000000000000000000000000000000000000000000000000604082015250565b60006122c9604483611ba4565b91506122d482612247565b606082019050919050565b600060208201905081810360008301526122f8816122bc565b9050919050565b7f43616e277420617070726f766520796f757273656c6600000000000000000000600082015250565b6000612335601683611ba4565b9150612340826122ff565b602082019050919050565b6000602082019050818103600083015261236481612328565b9050919050565b7f726563696576696e6720636f6e7472616374206973206e6f7420612076616c6960008201527f6420616464726573730000000000000000000000000000000000000000000000602082015250565b60006123c7602983611ba4565b91506123d28261236b565b604082019050919050565b600060208201905081810360008301526123f6816123ba565b9050919050565b7f63616e6e6f74207472616e7366657220746f20636f6e7472616374206164647260008201527f6573730000000000000000000000000000000000000000000000000000000000602082015250565b6000612459602383611ba4565b9150612464826123fd565b604082019050919050565b600060208201905081810360008301526124888161244c565b9050919050565b7f4f6e6c7920746865204f776e65722f4f70657261746f722f417070726f76656460008201527f2061646472657373206f66207468697320746f6b656e2063616e207472616e7360208201527f666572207468697320746f6b656e000000000000000000000000000000000000604082015250565b6000612511604e83611ba4565b915061251c8261248f565b606082019050919050565b6000602082019050818103600083015261254081612504565b9050919050565b7f746865205f66726f6d206164647265737320737461746564206973206e6f742060008201527f746865206f776e6572206f66207468697320746f6b656e200000000000000000602082015250565b60006125a3603883611ba4565b91506125ae82612547565b604082019050919050565b600060208201905081810360008301526125d281612596565b9050919050565b7f746f6b656e2073706563696669656420646f6573206e6f742065786973740000600082015250565b600061260f601e83611ba4565b915061261a826125d9565b602082019050919050565b6000602082019050818103600083015261263e81612602565b9050919050565b7f596f7520646f6e2774206f776e206f72206861766520706572736d697373696f60008201527f6e20746f20627265656420746865736520636174730000000000000000000000602082015250565b60006126a1603583611ba4565b91506126ac82612645565b604082019050919050565b600060208201905081810360008301526126d081612694565b9050919050565b7f4d6178206c696d6974206f662031302047656e302046726f677320637265617460008201527f6564000000000000000000000000000000000000000000000000000000000000602082015250565b6000612733602283611ba4565b915061273e826126d7565b604082019050919050565b6000602082019050818103600083015261276281612726565b9050919050565b7f4e487b7100000000000000000000000000000000000000000000000000000000600052601160045260246000fd5b60006127a382611dfc565b915063ffffffff8214156127ba576127b9612769565b5b600182019050919050565b7f546f6b656e20646f6573206e6f74206578697374000000000000000000000000600082015250565b60006127fb601483611ba4565b9150612806826127c5565b602082019050919050565b6000602082019050818103600083015261282a816127ee565b9050919050565b7f4e487b7100000000000000000000000000000000000000000000000000000000600052601260045260246000fd5b600061286b82611c54565b915061287683611c54565b92508261288657612885612831565b5b828206905092915050565b7f4e487b7100000000000000000000000000000000000000000000000000000000600052603260045260246000fd5b60006128cb82611c54565b91506128d683611c54565b9250826128e6576128e5612831565b5b828204905092915050565b60006128fc82611c54565b915061290783611c54565b92508282101561291a57612919612769565b5b828203905092915050565b600061293082611c54565b915061293b83611c54565b9250817fffffffffffffffffffffffffffffffffffffffffffffffffffffffffffffffff048311821515161561297457612973612769565b5b828202905092915050565b600061298a82611c54565b915061299583611c54565b9250827fffffffffffffffffffffffffffffffffffffffffffffffffffffffffffffffff038211156129ca576129c9612769565b5b828201905092915050565b600060ff82169050919050565b60006129ed826129d5565b91506129f8836129d5565b925082612a0857612a07612831565b5b828204905092915050565b6000612a1e826129d5565b9150612a29836129d5565b92508260ff03821115612a3f57612a3e612769565b5b828201905092915050565b6000612a5582611c54565b91507fffffffffffffffffffffffffffffffffffffffffffffffffffffffffffffffff821415612a8857612a87612769565b5b600182019050919050565b7f43616e6e6f742073657420796f757273656c6620617320616e206f706572617460008201527f6f72200000000000000000000000000000000000000000000000000000000000602082015250565b6000612aef602383611ba4565b9150612afa82612a93565b604082019050919050565b60006020820190508181036000830152612b1e81612ae2565b9050919050565b7f63616e6e6f74207472616e7366657220746f207a65726f206164647265737300600082015250565b6000612b5b601f83611ba4565b9150612b6682612b25565b602082019050919050565b60006020820190508181036000830152612b8a81612b4e565b9050919050565b7f596f7520646f206e6f74206f776e207468697320746f6b656e00000000000000600082015250565b6000612bc7601983611ba4565b9150612bd282612b91565b602082019050919050565b60006020820190508181036000830152612bf681612bba565b9050919050565b6000612c0882611c54565b91506000821415612c1c57612c1b612769565b5b600182039050919050565b6000612c3282611f9e565b9150612c3d83611f9e565b92508261ffff03821115612c5457612c53612769565b5b828201905092915050565b6000612c6a82611f9e565b9150612c7583611f9e565b925082612c8557612c84612831565b5b828204905092915050565b6000819050919050565b6000612cb5612cb0612cab84611dfc565b612c90565b611c54565b9050919050565b612cc581612c9a565b82525050565b600060a082019050612ce06000830188611ce9565b612ced6020830187611d7f565b612cfa6040830186612cbc565b612d076060830185612cbc565b612d146080830184611d7f565b9695505050505050565b7f5f746f20616464726573732063616e6e6f742074616b6520455243373231207460008201527f6f6b656e73000000000000000000000000000000000000000000000000000000602082015250565b6000612d7a602583611ba4565b9150612d8582612d1e565b604082019050919050565b60006020820190508181036000830152612da981612d6d565b9050919050565b600081519050919050565b600082825260208201905092915050565b6000612dd782612db0565b612de18185612dbb565b9350612df1818560208601611bb5565b612dfa81611be8565b840191505092915050565b6000608082019050612e1a6000830187611ce9565b612e276020830186611ce9565b612e346040830185611d7f565b8181036060830152612e468184612dcc565b905095945050505050565b600081519050612e6081611b0a565b92915050565b600060208284031215612e7c57612e7b611ad4565b5b6000612e8a84828501612e51565b9150509291505056fea2646970667358221220ed723d0f4679d8bf5570ceb1bf68e4bc5b0921ffd5182a647dffe0d5dc49d5b164736f6c634300080b0033",
  "immutableReferences": {},
  "source": "pragma solidity >=0.4.22 <0.9.0;\nimport \"./IERC721.sol\";\nimport \"./IERC165.sol\";\nimport \"./Owner.sol\";\n\ninterface IERC721TokenReceiver {\n    function onERC721Received(address _operator, address _from, uint256 _tokenId, bytes calldata _data) external returns(bytes4);\n}\n\n\ncontract FroggyContract is IERC721,IERC165,isOwner{\n\n    bytes4 constant MAGIC_NUMBER = bytes4(keccak256(\"onERC721Received(address,address,uint256,bytes)\"));\n    // _interface_id's are generated from the hashing of all IERC721 or IERC165 functions within the contract\n    // these hashes are constant as all token standard contracts will output the same hash \n    bytes4 private constant _INTERFACE_ID_ERC721 = 0x80ac58cd;\n    bytes4 private constant _INTERFACE_ID_ERC165 = 0x01ffc9a7;\n\n    string private constant _name = \"ALFROGS\";\n    string private constant _symbol = \"ALF\";\n\n    uint32 public GEN0FrogCap = 10;\n    uint32 public GEN0FrogCount;\n\n    event Birth(address owner, uint256 tokenId, uint256 mum, uint256 dad, uint256 genes);\n\n    struct Frog {\n        uint256 genes;\n        uint64 birthTime;\n        uint32 mumId;\n        uint32 dadId;\n        uint16 generation;\n    }\n\n    Frog[] Frogs;\n\n    mapping (uint256 => address) public frogIndexToOwner;\n    mapping (address => uint256) ownershipTokenCount;\n\n    mapping (address => mapping (address => bool)) OperatorApprovals;\n    mapping (uint256 => address) FrogIdxToApprovedAddress;\n\n    function breed(uint32 _dadId,uint32 _mumId) public{\n        require(msg.sender == ownerOf(_dadId) && msg.sender == ownerOf(_mumId), \"You don't own or have persmission to breed these cats\");\n        \n        (uint256 dadDNA,,,,uint16 dadGen,) = getFrogDetails(_dadId);\n        (uint256 mumDNA,,,,uint16 mumGen,) = getFrogDetails(_mumId);\n\n        uint256 newDna = _mixDna(dadDNA,mumDNA); \n        uint16 newGeneration = _calculateGen(dadGen,mumGen);\n\n        _createFrog(newDna,_mumId,_dadId,newGeneration,msg.sender);\n        \n    }\n\n    /**\n     * @dev Returns whether contract supports _interfaceId. \n     */\n    function supportsInterface(bytes4 _interfaceId) public pure returns(bool){\n        return _interfaceId == _INTERFACE_ID_ERC721 || _interfaceId == _INTERFACE_ID_ERC165;\n    }\n\n    /**\n     * @dev Returns the number of tokens in ``owner``'s account.\n     */\n    function balanceOf(address owner) public view returns (uint256 balance){\n        return ownershipTokenCount[owner];\n    }\n    /*\n     * @dev Returns the total number of tokens in circulation.\n     */\n    function totalSupply() public view returns (uint256 total){\n        return Frogs.length;\n    }\n    /*\n     * @dev Returns the name of the token.\n     */\n    function name() public pure returns (string memory tokenName){\n        return _name;\n    }\n    /*\n     * @dev Returns the symbol of the token.\n     */\n    function symbol() public pure returns (string memory tokenSymbol){\n        return _symbol;\n    }\n    /**\n     * @dev Returns the owner of the `tokenId` token.\n     *\n     * Requirements:\n     *\n     * - `tokenId` must exist.\n     */\n    function ownerOf(uint256 tokenId) public view returns (address owner){\n        require(_frogExists(tokenId), \"Token does not exist\");\n        return frogIndexToOwner[tokenId];\n    }\n     /* @dev Transfers `tokenId` token from `msg.sender` to `to`.\n     *\n     *\n     * Requirements:\n     *\n     * - `to` cannot be the zero address.\n     * - `to` can not be the contract address.\n     * - `tokenId` token must be owned by `msg.sender`.\n     *\n     * Emits a {Transfer} event.\n     */\n    function transfer(address to, uint256 tokenId) public{\n        require(to != address(0), \"cannot transfer to zero address\");\n        require(to != address(this), \"cannot transfer to contract address\");\n        require( _owns(msg.sender,tokenId), \"You do not own this token\");\n        \n        _transfer(msg.sender, to, tokenId);\n    }\n     /* @dev Transfers `tokenId` token from `msg.sender` to `to`.\n     * Returns true/false is _claimant owns _tokenId\n     */\n    function _owns(address _claimant, uint256 _tokenId) internal view returns (bool) {\n      return frogIndexToOwner[_tokenId] == _claimant;\n    }\n\n    function _transfer(address _from, address _to, uint256 _tokenId) private { \n        \n        ownershipTokenCount[_to] ++;\n        frogIndexToOwner[_tokenId] = _to;\n\n        if(_from != address(0)){\n            ownershipTokenCount[_from] --;   \n            delete FrogIdxToApprovedAddress[_tokenId];\n        }\n\n        // Emit the transfer event.\n        emit Transfer(msg.sender, _to, _tokenId);\n    }\n\n    function _createFrog(        \n        uint256 _genes,\n        uint32 _mumId,\n        uint32 _dadId,\n        uint16 _generation,\n        address _owner\n    ) private returns(uint256){\n\n        Frog memory newFrog = Frog(_genes,\n                                    uint64(block.timestamp),\n                                    _mumId,\n                                    _dadId,\n                                    _generation);\n\n        Frogs.push(newFrog);\n        uint256 newTokenId = Frogs.length - 1;\n        frogIndexToOwner[newTokenId] = _owner;\n        ownershipTokenCount[_owner] ++;\n\n        emit Birth(_owner,newTokenId,_mumId,_dadId,_genes);\n\n        return newTokenId;\n\n    }\n\n    function createFrogGen0(uint256 _genes) public onlyOwner returns(uint256) {\n        require(GEN0FrogCount<=GEN0FrogCap, \"Max limit of 10 Gen0 Frogs created\");\n        GEN0FrogCount++;\n        return _createFrog(_genes, 0,0,0,msg.sender);\n    }\n\n   \n    \n    function getFrogDetails(uint256 tokenId) public view returns(\n        uint256 genes,\n        uint64 birthTime,\n        uint32 mumId,\n        uint32 dadId,\n        uint16 generation,\n        address owner)\n    {\n        Frog storage frog = Frogs[tokenId];\n\n        genes = frog.genes;\n        birthTime = frog.birthTime;\n        mumId = frog.mumId;\n        dadId = frog.dadId;\n        generation = frog.generation;\n        owner = frogIndexToOwner[tokenId];        \n        \n    }\n\n    function approve(address _approved, uint256 _tokenId) external {\n        \n        require(_frogExists(_tokenId),\"Frog does not exist\");\n\n        require(msg.sender == ownerOf(_tokenId) || \n        OperatorApprovals[ownerOf(_tokenId)][msg.sender],\n        \"Only the owner or operator of this token can approve another address\");\n        \n        require(msg.sender != _approved, \"Can't approve yourself\");\n\n        FrogIdxToApprovedAddress[_tokenId] = _approved;\n\n        emit Approval(ownerOf(_tokenId), _approved, _tokenId);\n    }\n\n    function setApprovalForAll(address _operator, bool _approved) external{\n        require(msg.sender != _operator, \"Cannot set yourself as an operator \");\n        OperatorApprovals[msg.sender][_operator] = _approved;\n        emit ApprovalForAll(msg.sender, _operator, _approved);\n    }\n\n    function getApproved(uint256 _tokenId) public view returns(address){\n        require(_frogExists(_tokenId),\"token ID provided is not a valid NFT\");\n        return FrogIdxToApprovedAddress[_tokenId];\n    }\n\n    function isApprovedForAll(address _owner, address _operator) public view returns (bool){\n        return OperatorApprovals[_owner][_operator];\n    }\n    \n    function _frogExists(uint _tokenId) private view returns(bool){\n        return _tokenId< Frogs.length;\n    }\n\n\n    function transferFrom(address _from, address _to, uint256 _tokenId) public{\n        require(_to != address(0), \"recieving contract is not a valid address\");\n        require(_to != address(this), \"cannot transfer to contract address\");\n        require(msg.sender == _from || \n        isApprovedForAll(_from, msg.sender) || \n        msg.sender == getApproved(_tokenId),\n        \"Only the Owner/Operator/Approved address of this token can transfer this token\");\n        require(_from == ownerOf(_tokenId), \"the _from address stated is not the owner of this token \");\n        require(_frogExists(_tokenId), \"token specified does not exist\");\n\n        _transfer(_from, _to, _tokenId);\n    }   \n\n\n\n    ///  checks if `_to` is a smart contract (code size > 0). If so, it calls\n    ///  `onERC721Received` on `_to` and throws if the return value is not\n    ///  `bytes4(keccak256(\"onERC721Received(address,address,uint256,bytes)\"))`.\n    function safeTransferFrom(address _from, address _to, uint256 _tokenId, bytes calldata data) public{\n        _safeTransfer(_from, _to, _tokenId, data);\n    }\n\n    function safeTransferFrom(address _from, address _to, uint256 _tokenId) public{\n        _safeTransfer(_from, _to, _tokenId, \"\");\n    }\n\n    function _safeTransfer(address _from,address _to,uint _tokenId, bytes memory _data) internal {\n        transferFrom(_from, _to, _tokenId);\n        require(_checkERC721Support(_from,_to,_tokenId,_data),\"_to address cannot take ERC721 tokens\");\n    }\n\n    function _checkERC721Support(address _from, address _to, uint _tokenId, bytes memory _data) internal returns(bool){\n\n        if(!_isContract(_to)){\n            return true;\n        }else{\n            //do external call onERC721Received on the smart contract\n            bytes4 returnedData = IERC721TokenReceiver(_to).onERC721Received(msg.sender,_from,_tokenId,_data);\n            return returnedData == MAGIC_NUMBER;\n        }\n    }\n\n\n    function _isContract(address _addr) private view returns (bool isContract){\n        uint32 size;\n        assembly {\n            size := extcodesize(_addr)\n        }\n        return (size > 0);\n    }\n    \n    /*function _mixDna(uint256 _dadDna, uint256 _mumDna) internal view returns(uint256){\n\n        uint[8] memory dnaArray;\n        uint8 randomByte = uint8( block.timestamp % 255); //00000000 - 11111111 (0-255)\n        uint8 dnaArrayIdx= 7;\n        uint256 newDna = 0;\n\n        for(uint i = 0; i<128; i = i * 2 ){\n            //iterate thru each bit and if ==0 take from dad, if ==1 take from mum\n            if(randomByte & i != 0){\n                //get the last 2 bits of _mumDna 11 22 33 44 55 66 77 88 -> 88                \n                uint mum2Nums = _mumDna % 100;                \n                //append the 2 numbers onto the end of the array\n                dnaArray[dnaArrayIdx] = mum2Nums;\n                //decrease the index of the array \n                \n            }else{\n                uint dad2Nums = _dadDna % 100;\n                dnaArray[dnaArrayIdx] = dad2Nums;\n            }\n            _mumDna = _mumDna /100;\n            _dadDna = _dadDna /100;\n            dnaArrayIdx--;            \n        }\n\n        for(uint i =0; i<8; i++){\n            newDna = newDna += dnaArray[i];\n            if(i != 7){\n                newDna = newDna * 100;\n            }\n        }\n        return newDna;\n    }\n    */\n\n    function _mixDna(uint256 _dadDna, uint256 _mumDna) public view returns(uint256){\n\n        uint256[8] memory geneArray;\n        uint8 random = uint8( block.timestamp % 255); //00000000 - 11111111 (0-255)\n        uint256 i = 1;\n        uint256 index = 7;\n        for(i = 1; i<=128; i = i * 2 ){\n            //iterate thru each bit and if ==0 take from dad, if ==1 take from mum\n            if(random & i != 0){\n                geneArray[index] = uint8(_mumDna % 100);              \n            }else{\n                geneArray[index] = uint8(_dadDna % 100);\n            }\n            _mumDna = _mumDna /100;\n            _dadDna = _dadDna /100;\n            if(i != 128){\n                index = index - 1;            \n            }\n        }\n        uint256 newGene;\n        for(i =0; i<8; i++){\n            if(i != 7){\n                newGene = newGene + geneArray[i];\n                newGene = newGene * 100;\n            }else{\n                uint8 randSpecial = 10 + (uint8( block.timestamp % 255)/25);\n                newGene = newGene + randSpecial;\n            }\n            \n        }\n        return newGene;\n    }\n\n    function _calculateGen(uint16 _dadGen, uint16 _mumGen) private pure returns(uint16){\n        //this function makes sure if breeding with higher generation number, the offspring will become lower generation\n        if(_dadGen == 0 && _mumGen == 0 ){\n            return 1;\n        }else{\n            return (_dadGen + _mumGen + 2) / 2;\n        }\n    }\n\n}   ",
  "sourcePath": "/Users/alfielloyd/Documents/GitHub/academy-kitties-template/contracts/FroggyContract.sol",
  "compiler": {
    "name": "solc",
    "version": "0.8.11+commit.d7f03943.Emscripten.clang"
  },
  "schemaVersion": "3.4.4",
  "updatedAt": "2022-03-02T19:59:32.594Z",
  "networkType": "ethereum",
  "devdoc": {
    "kind": "dev",
    "methods": {
      "approve(address,uint256)": {
        "details": "The zero address indicates there is no approved address.  Throws unless `msg.sender` is the current NFT owner, or an authorized  operator of the current owner.",
        "params": {
          "_approved": "The new approved NFT controller",
          "_tokenId": "The NFT to approve"
        }
      },
      "balanceOf(address)": {
        "details": "Returns the number of tokens in ``owner``'s account."
      },
      "getApproved(uint256)": {
        "details": "Throws if `_tokenId` is not a valid NFT.",
        "params": {
          "_tokenId": "The NFT to find the approved address for"
        },
        "returns": {
          "_0": "The approved address for this NFT, or the zero address if there is none"
        }
      },
      "isApprovedForAll(address,address)": {
        "params": {
          "_operator": "The address that acts on behalf of the owner",
          "_owner": "The address that owns the NFTs"
        },
        "returns": {
          "_0": "True if `_operator` is an approved operator for `_owner`, false otherwise"
        }
      },
      "ownerOf(uint256)": {
        "details": "Returns the owner of the `tokenId` token. Requirements: - `tokenId` must exist."
      },
      "safeTransferFrom(address,address,uint256)": {
        "details": "This works identically to the other function with an extra data parameter,  except this function just sets data to \"\".",
        "params": {
          "_from": "The current owner of the NFT",
          "_to": "The new owner",
          "_tokenId": "The NFT to transfer"
        }
      },
      "setApprovalForAll(address,bool)": {
        "details": "Emits the ApprovalForAll event. The contract MUST allow  multiple operators per owner.",
        "params": {
          "_approved": "True if the operator is approved, false to revoke approval",
          "_operator": "Address to add to the set of authorized operators"
        }
      },
      "supportsInterface(bytes4)": {
        "details": "Returns whether contract supports _interfaceId. "
      },
      "transferFrom(address,address,uint256)": {
        "details": "Throws unless `msg.sender` is the current owner, an authorized  operator, or the approved address for this NFT. Throws if `_from` is  not the current owner. Throws if `_to` is the zero address. Throws if  `_tokenId` is not a valid NFT.",
        "params": {
          "_from": "The current owner of the NFT",
          "_to": "The new owner",
          "_tokenId": "The NFT to transfer"
        }
      }
    },
    "version": 1
  },
  "userdoc": {
    "kind": "user",
    "methods": {
      "approve(address,uint256)": {
        "notice": "Change or reaffirm the approved address for an NFT"
      },
      "getApproved(uint256)": {
        "notice": "Get the approved address for a single NFT"
      },
      "isApprovedForAll(address,address)": {
        "notice": "Query if an address is an authorized operator for another address"
      },
      "safeTransferFrom(address,address,uint256)": {
        "notice": "Transfers the ownership of an NFT from one address to another address"
      },
      "safeTransferFrom(address,address,uint256,bytes)": {
        "notice": "checks if `_to` is a smart contract (code size > 0). If so, it calls  `onERC721Received` on `_to` and throws if the return value is not  `bytes4(keccak256(\"onERC721Received(address,address,uint256,bytes)\"))`."
      },
      "setApprovalForAll(address,bool)": {
        "notice": "Enable or disable approval for a third party (\"operator\") to manage  all of `msg.sender`'s assets"
      },
      "transferFrom(address,address,uint256)": {
        "notice": "Transfer ownership of an NFT -- THE CALLER IS RESPONSIBLE  TO CONFIRM THAT `_to` IS CAPABLE OF RECEIVING NFTS OR ELSE  THEY MAY BE PERMANENTLY LOST"
      }
    },
    "version": 1
  }
}