{
  "contractName": "FroggyContract",
  "abi": [
    {
      "anonymous": false,
      "inputs": [
        {
          "indexed": true,
          "internalType": "address",
          "name": "owner",
          "type": "address"
        },
        {
          "indexed": true,
          "internalType": "address",
          "name": "approved",
          "type": "address"
        },
        {
          "indexed": true,
          "internalType": "uint256",
          "name": "tokenId",
          "type": "uint256"
        }
      ],
      "name": "Approval",
      "type": "event"
    },
    {
      "anonymous": false,
      "inputs": [
        {
          "indexed": true,
          "internalType": "address",
          "name": "owner",
          "type": "address"
        },
        {
          "indexed": true,
          "internalType": "address",
          "name": "operator",
          "type": "address"
        },
        {
          "indexed": false,
          "internalType": "bool",
          "name": "approved",
          "type": "bool"
        }
      ],
      "name": "ApprovalForAll",
      "type": "event"
    },
    {
      "anonymous": false,
      "inputs": [
        {
          "indexed": false,
          "internalType": "address",
          "name": "owner",
          "type": "address"
        },
        {
          "indexed": false,
          "internalType": "uint256",
          "name": "tokenId",
          "type": "uint256"
        },
        {
          "indexed": false,
          "internalType": "uint256",
          "name": "mum",
          "type": "uint256"
        },
        {
          "indexed": false,
          "internalType": "uint256",
          "name": "dad",
          "type": "uint256"
        },
        {
          "indexed": false,
          "internalType": "uint256",
          "name": "genes",
          "type": "uint256"
        }
      ],
      "name": "Birth",
      "type": "event"
    },
    {
      "anonymous": false,
      "inputs": [
        {
          "indexed": true,
          "internalType": "address",
          "name": "from",
          "type": "address"
        },
        {
          "indexed": true,
          "internalType": "address",
          "name": "to",
          "type": "address"
        },
        {
          "indexed": true,
          "internalType": "uint256",
          "name": "tokenId",
          "type": "uint256"
        }
      ],
      "name": "Transfer",
      "type": "event"
    },
    {
      "inputs": [],
      "name": "GEN0FrogCap",
      "outputs": [
        {
          "internalType": "uint32",
          "name": "",
          "type": "uint32"
        }
      ],
      "stateMutability": "view",
      "type": "function"
    },
    {
      "inputs": [],
      "name": "GEN0FrogCount",
      "outputs": [
        {
          "internalType": "uint32",
          "name": "",
          "type": "uint32"
        }
      ],
      "stateMutability": "view",
      "type": "function"
    },
    {
      "inputs": [
        {
          "internalType": "uint256",
          "name": "",
          "type": "uint256"
        }
      ],
      "name": "frogIndexToOwner",
      "outputs": [
        {
          "internalType": "address",
          "name": "",
          "type": "address"
        }
      ],
      "stateMutability": "view",
      "type": "function"
    },
    {
      "inputs": [
        {
          "internalType": "bytes4",
          "name": "_interfaceId",
          "type": "bytes4"
        }
      ],
      "name": "supportsInterface",
      "outputs": [
        {
          "internalType": "bool",
          "name": "",
          "type": "bool"
        }
      ],
      "stateMutability": "view",
      "type": "function"
    },
    {
      "inputs": [
        {
          "internalType": "address",
          "name": "owner",
          "type": "address"
        }
      ],
      "name": "balanceOf",
      "outputs": [
        {
          "internalType": "uint256",
          "name": "balance",
          "type": "uint256"
        }
      ],
      "stateMutability": "view",
      "type": "function"
    },
    {
      "inputs": [],
      "name": "totalSupply",
      "outputs": [
        {
          "internalType": "uint256",
          "name": "total",
          "type": "uint256"
        }
      ],
      "stateMutability": "view",
      "type": "function"
    },
    {
      "inputs": [],
      "name": "name",
      "outputs": [
        {
          "internalType": "string",
          "name": "tokenName",
          "type": "string"
        }
      ],
      "stateMutability": "pure",
      "type": "function"
    },
    {
      "inputs": [],
      "name": "symbol",
      "outputs": [
        {
          "internalType": "string",
          "name": "tokenSymbol",
          "type": "string"
        }
      ],
      "stateMutability": "pure",
      "type": "function"
    },
    {
      "inputs": [
        {
          "internalType": "uint256",
          "name": "tokenId",
          "type": "uint256"
        }
      ],
      "name": "ownerOf",
      "outputs": [
        {
          "internalType": "address",
          "name": "owner",
          "type": "address"
        }
      ],
      "stateMutability": "view",
      "type": "function"
    },
    {
      "inputs": [
        {
          "internalType": "address",
          "name": "to",
          "type": "address"
        },
        {
          "internalType": "uint256",
          "name": "tokenId",
          "type": "uint256"
        }
      ],
      "name": "transfer",
      "outputs": [],
      "stateMutability": "nonpayable",
      "type": "function"
    },
    {
      "inputs": [
        {
          "internalType": "uint256",
          "name": "_genes",
          "type": "uint256"
        }
      ],
      "name": "createFrogGen0",
      "outputs": [
        {
          "internalType": "uint256",
          "name": "",
          "type": "uint256"
        }
      ],
      "stateMutability": "nonpayable",
      "type": "function"
    },
    {
      "inputs": [
        {
          "internalType": "uint256",
          "name": "tokenId",
          "type": "uint256"
        }
      ],
      "name": "getFrogDetails",
      "outputs": [
        {
          "internalType": "uint256",
          "name": "genes",
          "type": "uint256"
        },
        {
          "internalType": "uint64",
          "name": "birthTime",
          "type": "uint64"
        },
        {
          "internalType": "uint32",
          "name": "mumId",
          "type": "uint32"
        },
        {
          "internalType": "uint32",
          "name": "dadId",
          "type": "uint32"
        },
        {
          "internalType": "uint16",
          "name": "generation",
          "type": "uint16"
        },
        {
          "internalType": "address",
          "name": "owner",
          "type": "address"
        }
      ],
      "stateMutability": "view",
      "type": "function"
    },
    {
      "inputs": [
        {
          "internalType": "address",
          "name": "_approved",
          "type": "address"
        },
        {
          "internalType": "uint256",
          "name": "_tokenId",
          "type": "uint256"
        }
      ],
      "name": "approve",
      "outputs": [],
      "stateMutability": "nonpayable",
      "type": "function"
    },
    {
      "inputs": [
        {
          "internalType": "address",
          "name": "_operator",
          "type": "address"
        },
        {
          "internalType": "bool",
          "name": "_approved",
          "type": "bool"
        }
      ],
      "name": "setApprovalForAll",
      "outputs": [],
      "stateMutability": "nonpayable",
      "type": "function"
    },
    {
      "inputs": [
        {
          "internalType": "uint256",
          "name": "_tokenId",
          "type": "uint256"
        }
      ],
      "name": "getApproved",
      "outputs": [
        {
          "internalType": "address",
          "name": "",
          "type": "address"
        }
      ],
      "stateMutability": "view",
      "type": "function"
    },
    {
      "inputs": [
        {
          "internalType": "address",
          "name": "_owner",
          "type": "address"
        },
        {
          "internalType": "address",
          "name": "_operator",
          "type": "address"
        }
      ],
      "name": "isApprovedForAll",
      "outputs": [
        {
          "internalType": "bool",
          "name": "",
          "type": "bool"
        }
      ],
      "stateMutability": "view",
      "type": "function"
    },
    {
      "inputs": [
        {
          "internalType": "address",
          "name": "_from",
          "type": "address"
        },
        {
          "internalType": "address",
          "name": "_to",
          "type": "address"
        },
        {
          "internalType": "uint256",
          "name": "_tokenId",
          "type": "uint256"
        }
      ],
      "name": "transferFrom",
      "outputs": [],
      "stateMutability": "nonpayable",
      "type": "function"
    },
    {
      "inputs": [
        {
          "internalType": "address",
          "name": "_from",
          "type": "address"
        },
        {
          "internalType": "address",
          "name": "_to",
          "type": "address"
        },
        {
          "internalType": "uint256",
          "name": "_tokenId",
          "type": "uint256"
        }
      ],
      "name": "safeTransferFrom",
      "outputs": [],
      "stateMutability": "nonpayable",
      "type": "function"
    },
    {
      "inputs": [
        {
          "internalType": "address",
          "name": "_from",
          "type": "address"
        },
        {
          "internalType": "address",
          "name": "_to",
          "type": "address"
        },
        {
          "internalType": "uint256",
          "name": "_tokenId",
          "type": "uint256"
        },
        {
          "internalType": "bytes",
          "name": "data",
          "type": "bytes"
        }
      ],
      "name": "safeTransferFrom",
      "outputs": [],
      "stateMutability": "nonpayable",
      "type": "function"
    }
  ],
  "bytecode": "0x6080604052600a600060146101000a81548163ffffffff021916908363ffffffff16021790555034801561003257600080fd5b50336000806101000a81548173ffffffffffffffffffffffffffffffffffffffff021916908373ffffffffffffffffffffffffffffffffffffffff1602179055506127d5806100826000396000f3fe608060405234801561001057600080fd5b50600436106101215760003560e01c80636352211e116100ad578063ab08175511610071578063ab0817551461032c578063b1c06e221461034a578063b88d4fde1461037f578063e985e9c51461039b578063feb13f6c146103cb57610121565b80636352211e1461027657806370a08231146102a657806395d89b41146102d6578063a22cb465146102f4578063a9059cbb1461031057610121565b806318160ddd116100f457806318160ddd146101c057806323b872dd146101de57806335c96e47146101fa57806342842e0e1461022a5780634df404e21461024657610121565b806301ffc9a71461012657806306fdde0314610156578063081812fc14610174578063095ea7b3146101a4575b600080fd5b610140600480360381019061013b919061179f565b6103e9565b60405161014d91906117e7565b60405180910390f35b61015e610489565b60405161016b919061189b565b60405180910390f35b61018e600480360381019061018991906118f3565b6104c6565b60405161019b9190611961565b60405180910390f35b6101be60048036038101906101b991906119a8565b61054b565b005b6101c86107ca565b6040516101d591906119f7565b60405180910390f35b6101f860048036038101906101f39190611a12565b6107d7565b005b610214600480360381019061020f91906118f3565b610a41565b6040516102219190611961565b60405180910390f35b610244600480360381019061023f9190611a12565b610a74565b005b610260600480360381019061025b91906118f3565b610a94565b60405161026d91906119f7565b60405180910390f35b610290600480360381019061028b91906118f3565b610bb9565b60405161029d9190611961565b60405180910390f35b6102c060048036038101906102bb9190611a65565b610c3e565b6040516102cd91906119f7565b60405180910390f35b6102de610c87565b6040516102eb919061189b565b60405180910390f35b61030e60048036038101906103099190611abe565b610cc4565b005b61032a600480360381019061032591906119a8565b610e30565b005b610334610f67565b6040516103419190611b1d565b60405180910390f35b610364600480360381019061035f91906118f3565b610f7d565b60405161037696959493929190611b78565b60405180910390f35b61039960048036038101906103949190611c3e565b611051565b005b6103b560048036038101906103b09190611cc6565b6110a8565b6040516103c291906117e7565b60405180910390f35b6103d361113c565b6040516103e09190611b1d565b60405180910390f35b60006380ac58cd60e01b7bffffffffffffffffffffffffffffffffffffffffffffffffffffffff1916827bffffffffffffffffffffffffffffffffffffffffffffffffffffffff1916148061048257506301ffc9a760e01b7bffffffffffffffffffffffffffffffffffffffffffffffffffffffff1916827bffffffffffffffffffffffffffffffffffffffffffffffffffffffff1916145b9050919050565b60606040518060400160405280600781526020017f414c46524f475300000000000000000000000000000000000000000000000000815250905090565b60006104d182611152565b610510576040517f08c379a000000000000000000000000000000000000000000000000000000000815260040161050790611d78565b60405180910390fd5b6005600083815260200190815260200160002060009054906101000a900473ffffffffffffffffffffffffffffffffffffffff169050919050565b61055481611152565b610593576040517f08c379a000000000000000000000000000000000000000000000000000000000815260040161058a90611de4565b60405180910390fd5b61059c81610bb9565b73ffffffffffffffffffffffffffffffffffffffff163373ffffffffffffffffffffffffffffffffffffffff1614806106635750600460006105dd83610bb9565b73ffffffffffffffffffffffffffffffffffffffff1673ffffffffffffffffffffffffffffffffffffffff16815260200190815260200160002060003373ffffffffffffffffffffffffffffffffffffffff1673ffffffffffffffffffffffffffffffffffffffff16815260200190815260200160002060009054906101000a900460ff165b6106a2576040517f08c379a000000000000000000000000000000000000000000000000000000000815260040161069990611e9c565b60405180910390fd5b8173ffffffffffffffffffffffffffffffffffffffff163373ffffffffffffffffffffffffffffffffffffffff161415610711576040517f08c379a000000000000000000000000000000000000000000000000000000000815260040161070890611f08565b60405180910390fd5b816005600083815260200190815260200160002060006101000a81548173ffffffffffffffffffffffffffffffffffffffff021916908373ffffffffffffffffffffffffffffffffffffffff160217905550808273ffffffffffffffffffffffffffffffffffffffff1661078483610bb9565b73ffffffffffffffffffffffffffffffffffffffff167f8c5be1e5ebec7d5bd14f71427d1e84f3dd0314c0f7b2291e5b200ac8c7c3b92560405160405180910390a45050565b6000600180549050905090565b600073ffffffffffffffffffffffffffffffffffffffff168273ffffffffffffffffffffffffffffffffffffffff161415610847576040517f08c379a000000000000000000000000000000000000000000000000000000000815260040161083e90611f9a565b60405180910390fd5b3073ffffffffffffffffffffffffffffffffffffffff168273ffffffffffffffffffffffffffffffffffffffff1614156108b6576040517f08c379a00000000000000000000000000000000000000000000000000000000081526004016108ad9061202c565b60405180910390fd5b8273ffffffffffffffffffffffffffffffffffffffff163373ffffffffffffffffffffffffffffffffffffffff1614806108f657506108f583336110a8565b5b806109345750610905816104c6565b73ffffffffffffffffffffffffffffffffffffffff163373ffffffffffffffffffffffffffffffffffffffff16145b610973576040517f08c379a000000000000000000000000000000000000000000000000000000000815260040161096a906120e4565b60405180910390fd5b61097c81610bb9565b73ffffffffffffffffffffffffffffffffffffffff168373ffffffffffffffffffffffffffffffffffffffff16146109e9576040517f08c379a00000000000000000000000000000000000000000000000000000000081526004016109e090612176565b60405180910390fd5b6109f281611152565b610a31576040517f08c379a0000000000000000000000000000000000000000000000000000000008152600401610a28906121e2565b60405180910390fd5b610a3c838383611163565b505050565b60026020528060005260406000206000915054906101000a900473ffffffffffffffffffffffffffffffffffffffff1681565b610a8f8383836040518060200160405280600081525061132a565b505050565b60008060009054906101000a900473ffffffffffffffffffffffffffffffffffffffff1673ffffffffffffffffffffffffffffffffffffffff163373ffffffffffffffffffffffffffffffffffffffff1614610aef57600080fd5b600060149054906101000a900463ffffffff1663ffffffff16600060189054906101000a900463ffffffff1663ffffffff161115610b62576040517f08c379a0000000000000000000000000000000000000000000000000000000008152600401610b5990612274565b60405180910390fd5b6000601881819054906101000a900463ffffffff1680929190610b84906122c3565b91906101000a81548163ffffffff021916908363ffffffff16021790555050610bb282600080600033611386565b9050919050565b6000610bc482611152565b610c03576040517f08c379a0000000000000000000000000000000000000000000000000000000008152600401610bfa9061233c565b60405180910390fd5b6002600083815260200190815260200160002060009054906101000a900473ffffffffffffffffffffffffffffffffffffffff169050919050565b6000600360008373ffffffffffffffffffffffffffffffffffffffff1673ffffffffffffffffffffffffffffffffffffffff168152602001908152602001600020549050919050565b60606040518060400160405280600381526020017f414c460000000000000000000000000000000000000000000000000000000000815250905090565b8173ffffffffffffffffffffffffffffffffffffffff163373ffffffffffffffffffffffffffffffffffffffff161415610d33576040517f08c379a0000000000000000000000000000000000000000000000000000000008152600401610d2a906123ce565b60405180910390fd5b80600460003373ffffffffffffffffffffffffffffffffffffffff1673ffffffffffffffffffffffffffffffffffffffff16815260200190815260200160002060008473ffffffffffffffffffffffffffffffffffffffff1673ffffffffffffffffffffffffffffffffffffffff16815260200190815260200160002060006101000a81548160ff0219169083151502179055508173ffffffffffffffffffffffffffffffffffffffff163373ffffffffffffffffffffffffffffffffffffffff167f17307eab39ab6107e8899845ad3d59bd9653f200f220920489ca2b5937696c3183604051610e2491906117e7565b60405180910390a35050565b600073ffffffffffffffffffffffffffffffffffffffff168273ffffffffffffffffffffffffffffffffffffffff161415610ea0576040517f08c379a0000000000000000000000000000000000000000000000000000000008152600401610e979061243a565b60405180910390fd5b3073ffffffffffffffffffffffffffffffffffffffff168273ffffffffffffffffffffffffffffffffffffffff161415610f0f576040517f08c379a0000000000000000000000000000000000000000000000000000000008152600401610f069061202c565b60405180910390fd5b610f1933826115ad565b610f58576040517f08c379a0000000000000000000000000000000000000000000000000000000008152600401610f4f906124a6565b60405180910390fd5b610f63338383611163565b5050565b600060149054906101000a900463ffffffff1681565b600080600080600080600060018881548110610f9c57610f9b6124c6565b5b90600052602060002090600202019050806000015496508060010160009054906101000a900467ffffffffffffffff1695508060010160089054906101000a900463ffffffff16945080600101600c9054906101000a900463ffffffff1693508060010160109054906101000a900461ffff1692506002600089815260200190815260200160002060009054906101000a900473ffffffffffffffffffffffffffffffffffffffff1691505091939550919395565b6110a185858585858080601f016020809104026020016040519081016040528093929190818152602001838380828437600081840152601f19601f8201169050808301925050505050505061132a565b5050505050565b6000600460008473ffffffffffffffffffffffffffffffffffffffff1673ffffffffffffffffffffffffffffffffffffffff16815260200190815260200160002060008373ffffffffffffffffffffffffffffffffffffffff1673ffffffffffffffffffffffffffffffffffffffff16815260200190815260200160002060009054906101000a900460ff16905092915050565b600060189054906101000a900463ffffffff1681565b600060018054905082109050919050565b600360008373ffffffffffffffffffffffffffffffffffffffff1673ffffffffffffffffffffffffffffffffffffffff16815260200190815260200160002060008154809291906111b3906124f5565b9190505550816002600083815260200190815260200160002060006101000a81548173ffffffffffffffffffffffffffffffffffffffff021916908373ffffffffffffffffffffffffffffffffffffffff160217905550600073ffffffffffffffffffffffffffffffffffffffff168373ffffffffffffffffffffffffffffffffffffffff16146112ca57600360008473ffffffffffffffffffffffffffffffffffffffff1673ffffffffffffffffffffffffffffffffffffffff168152602001908152602001600020600081548092919061128e9061253e565b91905055506005600082815260200190815260200160002060006101000a81549073ffffffffffffffffffffffffffffffffffffffff02191690555b808273ffffffffffffffffffffffffffffffffffffffff163373ffffffffffffffffffffffffffffffffffffffff167fddf252ad1be2c89b69c2b068fc378daa952ba7f163c4a11628f55a4df523b3ef60405160405180910390a4505050565b6113358484846107d7565b61134184848484611619565b611380576040517f08c379a0000000000000000000000000000000000000000000000000000000008152600401611377906125da565b60405180910390fd5b50505050565b6000806040518060a001604052808881526020014267ffffffffffffffff1681526020018763ffffffff1681526020018663ffffffff1681526020018561ffff16815250905060018190806001815401808255809150506001900390600052602060002090600202016000909190919091506000820151816000015560208201518160010160006101000a81548167ffffffffffffffff021916908367ffffffffffffffff16021790555060408201518160010160086101000a81548163ffffffff021916908363ffffffff160217905550606082015181600101600c6101000a81548163ffffffff021916908363ffffffff16021790555060808201518160010160106101000a81548161ffff021916908361ffff16021790555050506000600180805490506114b791906125fa565b9050836002600083815260200190815260200160002060006101000a81548173ffffffffffffffffffffffffffffffffffffffff021916908373ffffffffffffffffffffffffffffffffffffffff160217905550600360008573ffffffffffffffffffffffffffffffffffffffff1673ffffffffffffffffffffffffffffffffffffffff168152602001908152602001600020600081548092919061155b906124f5565b91905055507f0a5311bd2a6608f08a180df2ee7c5946819a649b204b554bb8e39825b2c50ad5848289898c604051611597959493929190612669565b60405180910390a1809250505095945050505050565b60008273ffffffffffffffffffffffffffffffffffffffff166002600084815260200190815260200160002060009054906101000a900473ffffffffffffffffffffffffffffffffffffffff1673ffffffffffffffffffffffffffffffffffffffff1614905092915050565b600061162484611724565b611631576001905061171c565b60008473ffffffffffffffffffffffffffffffffffffffff1663150b7a02338887876040518563ffffffff1660e01b81526004016116729493929190612711565b6020604051808303816000875af1158015611691573d6000803e3d6000fd5b505050506040513d601f19601f820116820180604052508101906116b59190612772565b90507f150b7a023d4804d13e8c85fb27262cb750cf6ba9f9dd3bb30d90f482ceeb4b1f7bffffffffffffffffffffffffffffffffffffffffffffffffffffffff1916817bffffffffffffffffffffffffffffffffffffffffffffffffffffffff1916149150505b949350505050565b600080823b905060008163ffffffff1611915050919050565b600080fd5b600080fd5b60007fffffffff0000000000000000000000000000000000000000000000000000000082169050919050565b61177c81611747565b811461178757600080fd5b50565b60008135905061179981611773565b92915050565b6000602082840312156117b5576117b461173d565b5b60006117c38482850161178a565b91505092915050565b60008115159050919050565b6117e1816117cc565b82525050565b60006020820190506117fc60008301846117d8565b92915050565b600081519050919050565b600082825260208201905092915050565b60005b8381101561183c578082015181840152602081019050611821565b8381111561184b576000848401525b50505050565b6000601f19601f8301169050919050565b600061186d82611802565b611877818561180d565b935061188781856020860161181e565b61189081611851565b840191505092915050565b600060208201905081810360008301526118b58184611862565b905092915050565b6000819050919050565b6118d0816118bd565b81146118db57600080fd5b50565b6000813590506118ed816118c7565b92915050565b6000602082840312156119095761190861173d565b5b6000611917848285016118de565b91505092915050565b600073ffffffffffffffffffffffffffffffffffffffff82169050919050565b600061194b82611920565b9050919050565b61195b81611940565b82525050565b60006020820190506119766000830184611952565b92915050565b61198581611940565b811461199057600080fd5b50565b6000813590506119a28161197c565b92915050565b600080604083850312156119bf576119be61173d565b5b60006119cd85828601611993565b92505060206119de858286016118de565b9150509250929050565b6119f1816118bd565b82525050565b6000602082019050611a0c60008301846119e8565b92915050565b600080600060608486031215611a2b57611a2a61173d565b5b6000611a3986828701611993565b9350506020611a4a86828701611993565b9250506040611a5b868287016118de565b9150509250925092565b600060208284031215611a7b57611a7a61173d565b5b6000611a8984828501611993565b91505092915050565b611a9b816117cc565b8114611aa657600080fd5b50565b600081359050611ab881611a92565b92915050565b60008060408385031215611ad557611ad461173d565b5b6000611ae385828601611993565b9250506020611af485828601611aa9565b9150509250929050565b600063ffffffff82169050919050565b611b1781611afe565b82525050565b6000602082019050611b326000830184611b0e565b92915050565b600067ffffffffffffffff82169050919050565b611b5581611b38565b82525050565b600061ffff82169050919050565b611b7281611b5b565b82525050565b600060c082019050611b8d60008301896119e8565b611b9a6020830188611b4c565b611ba76040830187611b0e565b611bb46060830186611b0e565b611bc16080830185611b69565b611bce60a0830184611952565b979650505050505050565b600080fd5b600080fd5b600080fd5b60008083601f840112611bfe57611bfd611bd9565b5b8235905067ffffffffffffffff811115611c1b57611c1a611bde565b5b602083019150836001820283011115611c3757611c36611be3565b5b9250929050565b600080600080600060808688031215611c5a57611c5961173d565b5b6000611c6888828901611993565b9550506020611c7988828901611993565b9450506040611c8a888289016118de565b935050606086013567ffffffffffffffff811115611cab57611caa611742565b5b611cb788828901611be8565b92509250509295509295909350565b60008060408385031215611cdd57611cdc61173d565b5b6000611ceb85828601611993565b9250506020611cfc85828601611993565b9150509250929050565b7f746f6b656e2049442070726f7669646564206973206e6f7420612076616c696460008201527f204e465400000000000000000000000000000000000000000000000000000000602082015250565b6000611d6260248361180d565b9150611d6d82611d06565b604082019050919050565b60006020820190508181036000830152611d9181611d55565b9050919050565b7f46726f6720646f6573206e6f7420657869737400000000000000000000000000600082015250565b6000611dce60138361180d565b9150611dd982611d98565b602082019050919050565b60006020820190508181036000830152611dfd81611dc1565b9050919050565b7f4f6e6c7920746865206f776e6572206f72206f70657261746f72206f6620746860008201527f697320746f6b656e2063616e20617070726f766520616e6f746865722061646460208201527f7265737300000000000000000000000000000000000000000000000000000000604082015250565b6000611e8660448361180d565b9150611e9182611e04565b606082019050919050565b60006020820190508181036000830152611eb581611e79565b9050919050565b7f43616e277420617070726f766520796f757273656c6600000000000000000000600082015250565b6000611ef260168361180d565b9150611efd82611ebc565b602082019050919050565b60006020820190508181036000830152611f2181611ee5565b9050919050565b7f726563696576696e6720636f6e7472616374206973206e6f7420612076616c6960008201527f6420616464726573730000000000000000000000000000000000000000000000602082015250565b6000611f8460298361180d565b9150611f8f82611f28565b604082019050919050565b60006020820190508181036000830152611fb381611f77565b9050919050565b7f63616e6e6f74207472616e7366657220746f20636f6e7472616374206164647260008201527f6573730000000000000000000000000000000000000000000000000000000000602082015250565b600061201660238361180d565b915061202182611fba565b604082019050919050565b6000602082019050818103600083015261204581612009565b9050919050565b7f4f6e6c7920746865204f776e65722f4f70657261746f722f417070726f76656460008201527f2061646472657373206f66207468697320746f6b656e2063616e207472616e7360208201527f666572207468697320746f6b656e000000000000000000000000000000000000604082015250565b60006120ce604e8361180d565b91506120d98261204c565b606082019050919050565b600060208201905081810360008301526120fd816120c1565b9050919050565b7f746865205f66726f6d206164647265737320737461746564206973206e6f742060008201527f746865206f776e6572206f66207468697320746f6b656e200000000000000000602082015250565b600061216060388361180d565b915061216b82612104565b604082019050919050565b6000602082019050818103600083015261218f81612153565b9050919050565b7f746f6b656e2073706563696669656420646f6573206e6f742065786973740000600082015250565b60006121cc601e8361180d565b91506121d782612196565b602082019050919050565b600060208201905081810360008301526121fb816121bf565b9050919050565b7f4d6178206c696d6974206f662031302047656e302046726f677320637265617460008201527f6564000000000000000000000000000000000000000000000000000000000000602082015250565b600061225e60228361180d565b915061226982612202565b604082019050919050565b6000602082019050818103600083015261228d81612251565b9050919050565b7f4e487b7100000000000000000000000000000000000000000000000000000000600052601160045260246000fd5b60006122ce82611afe565b915063ffffffff8214156122e5576122e4612294565b5b600182019050919050565b7f546f6b656e20646f6573206e6f74206578697374000000000000000000000000600082015250565b600061232660148361180d565b9150612331826122f0565b602082019050919050565b6000602082019050818103600083015261235581612319565b9050919050565b7f43616e6e6f742073657420796f757273656c6620617320616e206f706572617460008201527f6f72200000000000000000000000000000000000000000000000000000000000602082015250565b60006123b860238361180d565b91506123c38261235c565b604082019050919050565b600060208201905081810360008301526123e7816123ab565b9050919050565b7f63616e6e6f74207472616e7366657220746f207a65726f206164647265737300600082015250565b6000612424601f8361180d565b915061242f826123ee565b602082019050919050565b6000602082019050818103600083015261245381612417565b9050919050565b7f596f7520646f206e6f74206f776e207468697320746f6b656e00000000000000600082015250565b600061249060198361180d565b915061249b8261245a565b602082019050919050565b600060208201905081810360008301526124bf81612483565b9050919050565b7f4e487b7100000000000000000000000000000000000000000000000000000000600052603260045260246000fd5b6000612500826118bd565b91507fffffffffffffffffffffffffffffffffffffffffffffffffffffffffffffffff82141561253357612532612294565b5b600182019050919050565b6000612549826118bd565b9150600082141561255d5761255c612294565b5b600182039050919050565b7f5f746f20616464726573732063616e6e6f742074616b6520455243373231207460008201527f6f6b656e73000000000000000000000000000000000000000000000000000000602082015250565b60006125c460258361180d565b91506125cf82612568565b604082019050919050565b600060208201905081810360008301526125f3816125b7565b9050919050565b6000612605826118bd565b9150612610836118bd565b92508282101561262357612622612294565b5b828203905092915050565b6000819050919050565b600061265361264e61264984611afe565b61262e565b6118bd565b9050919050565b61266381612638565b82525050565b600060a08201905061267e6000830188611952565b61268b60208301876119e8565b612698604083018661265a565b6126a5606083018561265a565b6126b260808301846119e8565b9695505050505050565b600081519050919050565b600082825260208201905092915050565b60006126e3826126bc565b6126ed81856126c7565b93506126fd81856020860161181e565b61270681611851565b840191505092915050565b60006080820190506127266000830187611952565b6127336020830186611952565b61274060408301856119e8565b818103606083015261275281846126d8565b905095945050505050565b60008151905061276c81611773565b92915050565b6000602082840312156127885761278761173d565b5b60006127968482850161275d565b9150509291505056fea2646970667358221220b7876d6ee95ec5f99bf6c036dc0786d23a29fd3cdbb80ba187511e6b6b3b2ba664736f6c634300080b0033",
  "immutableReferences": {},
  "source": "pragma solidity >=0.4.22 <0.9.0;\nimport \"./IERC721.sol\";\nimport \"./IERC165.sol\";\nimport \"./Owner.sol\";\n\ninterface IERC721TokenReceiver {\n    function onERC721Received(address _operator, address _from, uint256 _tokenId, bytes calldata _data) external returns(bytes4);\n}\n\n\ncontract FroggyContract is IERC721,IERC165,isOwner{\n\n    bytes4 constant MAGIC_NUMBER = bytes4(keccak256(\"onERC721Received(address,address,uint256,bytes)\"));\n    // _interface_id's are generated from the hashing of all IERC721 or IERC165 functions within the contract\n    // these hashes are constant as all token standard contracts will output the same hash \n    bytes4 private constant _INTERFACE_ID_ERC721 = 0x80ac58cd;\n    bytes4 private constant _INTERFACE_ID_ERC165 = 0x01ffc9a7;\n\n\n\n    uint32 public GEN0FrogCap = 10;\n    uint32 public GEN0FrogCount;\n\n    event Birth(address owner, uint256 tokenId, uint256 mum, uint256 dad, uint256 genes);\n\n\n    string private constant _name = \"ALFROGS\";\n    string private constant _symbol = \"ALF\";\n\n    struct Frog {\n        uint256 genes;\n        uint64 birthTime;\n        uint32 mumId;\n        uint32 dadId;\n        uint16 generation;\n    }\n\n    Frog[] Frogs;\n\n\n    mapping (uint256 => address) public frogIndexToOwner;\n    mapping (address => uint256) ownershipTokenCount;\n\n    /**\n     * @dev Returns whether contract supports _interfaceId. \n     */\n    function supportsInterface(bytes4 _interfaceId) public view returns(bool){\n        return _interfaceId == _INTERFACE_ID_ERC721 || _interfaceId == _INTERFACE_ID_ERC165;\n    }\n\n    /**\n     * @dev Returns the number of tokens in ``owner``'s account.\n     */\n    function balanceOf(address owner) public view returns (uint256 balance){\n        return ownershipTokenCount[owner];\n    }\n    /*\n     * @dev Returns the total number of tokens in circulation.\n     */\n    function totalSupply() public view returns (uint256 total){\n        return Frogs.length;\n    }\n    /*\n     * @dev Returns the name of the token.\n     */\n    function name() public pure returns (string memory tokenName){\n        return _name;\n    }\n    /*\n     * @dev Returns the symbol of the token.\n     */\n    function symbol() public pure returns (string memory tokenSymbol){\n        return _symbol;\n    }\n    /**\n     * @dev Returns the owner of the `tokenId` token.\n     *\n     * Requirements:\n     *\n     * - `tokenId` must exist.\n     */\n    function ownerOf(uint256 tokenId) public view returns (address owner){\n        require(_frogExists(tokenId), \"Token does not exist\");\n        return frogIndexToOwner[tokenId];\n    }\n     /* @dev Transfers `tokenId` token from `msg.sender` to `to`.\n     *\n     *\n     * Requirements:\n     *\n     * - `to` cannot be the zero address.\n     * - `to` can not be the contract address.\n     * - `tokenId` token must be owned by `msg.sender`.\n     *\n     * Emits a {Transfer} event.\n     */\n    function transfer(address to, uint256 tokenId) public{\n        require(to != address(0), \"cannot transfer to zero address\");\n        require(to != address(this), \"cannot transfer to contract address\");\n        require( _owns(msg.sender,tokenId), \"You do not own this token\");\n        \n        _transfer(msg.sender, to, tokenId);\n    }\n     /* @dev Transfers `tokenId` token from `msg.sender` to `to`.\n     * Returns true/false is _claimant owns _tokenId\n     */\n    function _owns(address _claimant, uint256 _tokenId) internal view returns (bool) {\n      return frogIndexToOwner[_tokenId] == _claimant;\n    }\n\n    function _transfer(address _from, address _to, uint256 _tokenId) private { \n        \n        ownershipTokenCount[_to] ++;\n        frogIndexToOwner[_tokenId] = _to;\n\n        if(_from != address(0)){\n            ownershipTokenCount[_from] --;   \n            delete FrogIdxToApprovedAddress[_tokenId];\n        }\n\n        // Emit the transfer event.\n        emit Transfer(msg.sender, _to, _tokenId);\n    }\n\n    function _createFrog(\n        uint256 _genes,\n        uint32 _mumId,\n        uint32 _dadId,\n        uint16 _generation,\n        address _owner\n    ) private returns(uint256){\n\n        Frog memory newFrog = Frog(_genes,\n                                    uint64(block.timestamp),\n                                    _mumId,\n                                    _dadId,\n                                    _generation);\n\n        Frogs.push(newFrog);\n        uint256 newTokenId = Frogs.length - 1;\n        frogIndexToOwner[newTokenId] = _owner;\n        ownershipTokenCount[_owner] ++;\n\n\n\n\n        \n\n        emit Birth(_owner,newTokenId,_mumId,_dadId,_genes);\n\n        return newTokenId;\n\n    }\n\n    function createFrogGen0(uint256 _genes) public onlyOwner returns(uint256) {\n        require(GEN0FrogCount<=GEN0FrogCap, \"Max limit of 10 Gen0 Frogs created\");\n        GEN0FrogCount++;\n        return _createFrog(_genes, 0,0,0,msg.sender);\n    }\n\n   \n    \n    function getFrogDetails(uint256 tokenId) external view returns(\n        uint256 genes,\n        uint64 birthTime,\n        uint32 mumId,\n        uint32 dadId,\n        uint16 generation,\n        address owner)\n    {\n        Frog storage frog = Frogs[tokenId];\n\n        genes = frog.genes;\n        birthTime = frog.birthTime;\n        mumId = frog.mumId;\n        dadId = frog.dadId;\n        generation = frog.generation;\n        owner = frogIndexToOwner[tokenId];        \n        \n    }\n\n    mapping (address => mapping (address => bool)) OperatorApprovals;\n    mapping (uint256 => address) FrogIdxToApprovedAddress;\n\n    function approve(address _approved, uint256 _tokenId) external {\n        \n        require(_frogExists(_tokenId),\"Frog does not exist\");\n\n        require(msg.sender == ownerOf(_tokenId) || \n        OperatorApprovals[ownerOf(_tokenId)][msg.sender],\n        \"Only the owner or operator of this token can approve another address\");\n        \n        require(msg.sender != _approved, \"Can't approve yourself\");\n\n        FrogIdxToApprovedAddress[_tokenId] = _approved;\n\n        emit Approval(ownerOf(_tokenId), _approved, _tokenId);\n    }\n\n    function setApprovalForAll(address _operator, bool _approved) external{\n        require(msg.sender != _operator, \"Cannot set yourself as an operator \");\n        OperatorApprovals[msg.sender][_operator] = _approved;\n        emit ApprovalForAll(msg.sender, _operator, _approved);\n    }\n\n    function getApproved(uint256 _tokenId) public view returns(address){\n        require(_frogExists(_tokenId),\"token ID provided is not a valid NFT\");\n        return FrogIdxToApprovedAddress[_tokenId];\n    }\n\n    function isApprovedForAll(address _owner, address _operator) public view returns (bool){\n        return OperatorApprovals[_owner][_operator];\n    }\n    \n    function _frogExists(uint _tokenId) private view returns(bool){\n        return _tokenId< Frogs.length;\n    }\n\n\n    function transferFrom(address _from, address _to, uint256 _tokenId) public{\n        require(_to != address(0), \"recieving contract is not a valid address\");\n        require(_to != address(this), \"cannot transfer to contract address\");\n        require(msg.sender == _from || \n        isApprovedForAll(_from, msg.sender) || \n        msg.sender == getApproved(_tokenId),\n        \"Only the Owner/Operator/Approved address of this token can transfer this token\");\n        require(_from == ownerOf(_tokenId), \"the _from address stated is not the owner of this token \");\n        require(_frogExists(_tokenId), \"token specified does not exist\");\n\n        _transfer(_from, _to, _tokenId);\n    }   \n\n\n\n    ///  checks if `_to` is a smart contract (code size > 0). If so, it calls\n    ///  `onERC721Received` on `_to` and throws if the return value is not\n    ///  `bytes4(keccak256(\"onERC721Received(address,address,uint256,bytes)\"))`.\n    function safeTransferFrom(address _from, address _to, uint256 _tokenId, bytes calldata data) public{\n        _safeTransfer(_from, _to, _tokenId, data);\n    }\n\n    function safeTransferFrom(address _from, address _to, uint256 _tokenId) public{\n        _safeTransfer(_from, _to, _tokenId, \"\");\n    }\n\n    function _safeTransfer(address _from,address _to,uint _tokenId, bytes memory _data) internal {\n        transferFrom(_from, _to, _tokenId);\n        require(_checkERC721Support(_from,_to,_tokenId,_data),\"_to address cannot take ERC721 tokens\");\n    }\n\n    function _checkERC721Support(address _from, address _to, uint _tokenId, bytes memory _data) internal returns(bool){\n\n        if(!_isContract(_to)){\n            return true;\n        }else{\n            //do external call onERC721Received on the smart contract\n            bytes4 returnedData = IERC721TokenReceiver(_to).onERC721Received(msg.sender,_from,_tokenId,_data);\n            return returnedData == MAGIC_NUMBER;\n        }\n    }\n\n\n    function _isContract(address _addr) private view returns (bool isContract){\n        uint32 size;\n        assembly {\n            size := extcodesize(_addr)\n        }\n        return (size > 0);\n    }\n\n}   ",
  "sourcePath": "/Users/alfielloyd/Documents/GitHub/academy-kitties-template/contracts/FroggyContract.sol",
  "compiler": {
    "name": "solc",
    "version": "0.8.11+commit.d7f03943.Emscripten.clang"
  },
  "schemaVersion": "3.4.4",
  "updatedAt": "2022-02-13T04:23:52.394Z",
  "devdoc": {
    "kind": "dev",
    "methods": {
      "approve(address,uint256)": {
        "details": "The zero address indicates there is no approved address.  Throws unless `msg.sender` is the current NFT owner, or an authorized  operator of the current owner.",
        "params": {
          "_approved": "The new approved NFT controller",
          "_tokenId": "The NFT to approve"
        }
      },
      "balanceOf(address)": {
        "details": "Returns the number of tokens in ``owner``'s account."
      },
      "getApproved(uint256)": {
        "details": "Throws if `_tokenId` is not a valid NFT.",
        "params": {
          "_tokenId": "The NFT to find the approved address for"
        },
        "returns": {
          "_0": "The approved address for this NFT, or the zero address if there is none"
        }
      },
      "isApprovedForAll(address,address)": {
        "params": {
          "_operator": "The address that acts on behalf of the owner",
          "_owner": "The address that owns the NFTs"
        },
        "returns": {
          "_0": "True if `_operator` is an approved operator for `_owner`, false otherwise"
        }
      },
      "ownerOf(uint256)": {
        "details": "Returns the owner of the `tokenId` token. Requirements: - `tokenId` must exist."
      },
      "safeTransferFrom(address,address,uint256)": {
        "details": "This works identically to the other function with an extra data parameter,  except this function just sets data to \"\".",
        "params": {
          "_from": "The current owner of the NFT",
          "_to": "The new owner",
          "_tokenId": "The NFT to transfer"
        }
      },
      "setApprovalForAll(address,bool)": {
        "details": "Emits the ApprovalForAll event. The contract MUST allow  multiple operators per owner.",
        "params": {
          "_approved": "True if the operator is approved, false to revoke approval",
          "_operator": "Address to add to the set of authorized operators"
        }
      },
      "supportsInterface(bytes4)": {
        "details": "Returns whether contract supports _interfaceId. "
      },
      "transferFrom(address,address,uint256)": {
        "details": "Throws unless `msg.sender` is the current owner, an authorized  operator, or the approved address for this NFT. Throws if `_from` is  not the current owner. Throws if `_to` is the zero address. Throws if  `_tokenId` is not a valid NFT.",
        "params": {
          "_from": "The current owner of the NFT",
          "_to": "The new owner",
          "_tokenId": "The NFT to transfer"
        }
      }
    },
    "version": 1
  },
  "userdoc": {
    "kind": "user",
    "methods": {
      "approve(address,uint256)": {
        "notice": "Change or reaffirm the approved address for an NFT"
      },
      "getApproved(uint256)": {
        "notice": "Get the approved address for a single NFT"
      },
      "isApprovedForAll(address,address)": {
        "notice": "Query if an address is an authorized operator for another address"
      },
      "safeTransferFrom(address,address,uint256)": {
        "notice": "Transfers the ownership of an NFT from one address to another address"
      },
      "safeTransferFrom(address,address,uint256,bytes)": {
        "notice": "checks if `_to` is a smart contract (code size > 0). If so, it calls  `onERC721Received` on `_to` and throws if the return value is not  `bytes4(keccak256(\"onERC721Received(address,address,uint256,bytes)\"))`."
      },
      "setApprovalForAll(address,bool)": {
        "notice": "Enable or disable approval for a third party (\"operator\") to manage  all of `msg.sender`'s assets"
      },
      "transferFrom(address,address,uint256)": {
        "notice": "Transfer ownership of an NFT -- THE CALLER IS RESPONSIBLE  TO CONFIRM THAT `_to` IS CAPABLE OF RECEIVING NFTS OR ELSE  THEY MAY BE PERMANENTLY LOST"
      }
    },
    "version": 1
  }
}