{
  "contractName": "FroggyMarketPlace",
  "abi": [
    {
      "inputs": [
        {
          "internalType": "address",
          "name": "_froggyContractAddress",
          "type": "address"
        }
      ],
      "stateMutability": "nonpayable",
      "type": "constructor"
    },
    {
      "anonymous": false,
      "inputs": [
        {
          "indexed": false,
          "internalType": "string",
          "name": "TxType",
          "type": "string"
        },
        {
          "indexed": false,
          "internalType": "address",
          "name": "owner",
          "type": "address"
        },
        {
          "indexed": false,
          "internalType": "uint256",
          "name": "tokenId",
          "type": "uint256"
        }
      ],
      "name": "MarketTransaction",
      "type": "event"
    },
    {
      "inputs": [
        {
          "internalType": "address",
          "name": "_froggyContractAddress",
          "type": "address"
        }
      ],
      "name": "setfroggyContract",
      "outputs": [],
      "stateMutability": "nonpayable",
      "type": "function"
    },
    {
      "inputs": [
        {
          "internalType": "uint256",
          "name": "_tokenId",
          "type": "uint256"
        }
      ],
      "name": "getOffer",
      "outputs": [
        {
          "internalType": "address",
          "name": "seller",
          "type": "address"
        },
        {
          "internalType": "uint256",
          "name": "price",
          "type": "uint256"
        },
        {
          "internalType": "uint256",
          "name": "index",
          "type": "uint256"
        },
        {
          "internalType": "uint256",
          "name": "tokenId",
          "type": "uint256"
        },
        {
          "internalType": "bool",
          "name": "active",
          "type": "bool"
        }
      ],
      "stateMutability": "view",
      "type": "function",
      "constant": true
    },
    {
      "inputs": [],
      "name": "getAllTokenOnSale",
      "outputs": [
        {
          "internalType": "uint256[]",
          "name": "listOfOffers",
          "type": "uint256[]"
        }
      ],
      "stateMutability": "view",
      "type": "function",
      "constant": true
    },
    {
      "inputs": [
        {
          "internalType": "uint256",
          "name": "_price",
          "type": "uint256"
        },
        {
          "internalType": "uint256",
          "name": "_tokenId",
          "type": "uint256"
        }
      ],
      "name": "setOffer",
      "outputs": [],
      "stateMutability": "nonpayable",
      "type": "function"
    },
    {
      "inputs": [
        {
          "internalType": "uint256",
          "name": "_tokenId",
          "type": "uint256"
        }
      ],
      "name": "_offerExists",
      "outputs": [
        {
          "internalType": "bool",
          "name": "",
          "type": "bool"
        }
      ],
      "stateMutability": "view",
      "type": "function",
      "constant": true
    },
    {
      "inputs": [
        {
          "internalType": "uint256",
          "name": "_tokenId",
          "type": "uint256"
        }
      ],
      "name": "removeOffer",
      "outputs": [],
      "stateMutability": "nonpayable",
      "type": "function"
    },
    {
      "inputs": [
        {
          "internalType": "uint256",
          "name": "_tokenId",
          "type": "uint256"
        }
      ],
      "name": "buyfroggy",
      "outputs": [],
      "stateMutability": "payable",
      "type": "function",
      "payable": true
    },
    {
      "inputs": [
        {
          "internalType": "address",
          "name": "_operator",
          "type": "address"
        },
        {
          "internalType": "address",
          "name": "_from",
          "type": "address"
        },
        {
          "internalType": "uint256",
          "name": "_tokenId",
          "type": "uint256"
        },
        {
          "internalType": "bytes",
          "name": "_data",
          "type": "bytes"
        }
      ],
      "name": "onERC721Received",
      "outputs": [
        {
          "internalType": "bytes4",
          "name": "",
          "type": "bytes4"
        }
      ],
      "stateMutability": "pure",
      "type": "function",
      "constant": true
    }
  ],
  "bytecode": "0x60806040523480156200001157600080fd5b5060405162001ac038038062001ac0833981810160405281019062000037919062000196565b336000806101000a81548173ffffffffffffffffffffffffffffffffffffffff021916908373ffffffffffffffffffffffffffffffffffffffff16021790555062000088816200008f60201b60201c565b50620001c8565b60008054906101000a900473ffffffffffffffffffffffffffffffffffffffff1673ffffffffffffffffffffffffffffffffffffffff163373ffffffffffffffffffffffffffffffffffffffff1614620000e857600080fd5b80600160006101000a81548173ffffffffffffffffffffffffffffffffffffffff021916908373ffffffffffffffffffffffffffffffffffffffff16021790555050565b600080fd5b600073ffffffffffffffffffffffffffffffffffffffff82169050919050565b60006200015e8262000131565b9050919050565b620001708162000151565b81146200017c57600080fd5b50565b600081519050620001908162000165565b92915050565b600060208284031215620001af57620001ae6200012c565b5b6000620001bf848285016200017f565b91505092915050565b6118e880620001d86000396000f3fe60806040526004361061007b5760003560e01c80635649ec351161004e5780635649ec35146101665780639376b2291461018f578063941b055b146101ab57806395a0f9c7146101d45761007b565b8063124cf1c414610080578063150b7a02146100bd5780634579268a146100fa57806349b3709f1461013b575b600080fd5b34801561008c57600080fd5b506100a760048036038101906100a29190610dd8565b6101fd565b6040516100b49190610e20565b60405180910390f35b3480156100c957600080fd5b506100e460048036038101906100df9190610efe565b610254565b6040516100f19190610fc1565b60405180910390f35b34801561010657600080fd5b50610121600480360381019061011c9190610dd8565b610282565b604051610132959493929190610ffa565b60405180910390f35b34801561014757600080fd5b5061015061038c565b60405161015d919061110b565b60405180910390f35b34801561017257600080fd5b5061018d6004803603810190610188919061112d565b61044a565b005b6101a960048036038101906101a49190610dd8565b6104e6565b005b3480156101b757600080fd5b506101d260048036038101906101cd919061115a565b6105ff565b005b3480156101e057600080fd5b506101fb60048036038101906101f69190610dd8565b61087b565b005b6000806002805490501415610215576000905061024f565b8160026003600085815260200190815260200160002060030154815481106102405761023f61119a565b5b90600052602060002001541490505b919050565b60007f150b7a023d4804d13e8c85fb27262cb750cf6ba9f9dd3bb30d90f482ceeb4b1f905095945050505050565b600080600080600060011515610297876101fd565b1515146102d9576040517f08c379a00000000000000000000000000000000000000000000000000000000081526004016102d09061124c565b60405180910390fd5b6003600087815260200190815260200160002060010160009054906101000a900473ffffffffffffffffffffffffffffffffffffffff1694506003600087815260200190815260200160002060020154935060036000878152602001908152602001600020600301549250600360008781526020019081526020016000206000015491506003600087815260200190815260200160002060040160009054906101000a900460ff16905091939590929450565b60606000600280549050905060008167ffffffffffffffff8111156103b4576103b361126c565b5b6040519080825280602002602001820160405280156103e25781602001602082028036833780820191505090505b50905060005b8281101561044157600281815481106104045761040361119a565b5b90600052602060002001548282815181106104225761042161119a565b5b6020026020010181815250508080610439906112ca565b9150506103e8565b50809250505090565b60008054906101000a900473ffffffffffffffffffffffffffffffffffffffff1673ffffffffffffffffffffffffffffffffffffffff163373ffffffffffffffffffffffffffffffffffffffff16146104a257600080fd5b80600160006101000a81548173ffffffffffffffffffffffffffffffffffffffff021916908373ffffffffffffffffffffffffffffffffffffffff16021790555050565b6104ef81610a5a565b34146104fa57600080fd5b610503816101fd565b61050c57600080fd5b60006003600083815260200190815260200160002060010160009054906101000a900473ffffffffffffffffffffffffffffffffffffffff16905061055082610a7a565b6000600360008481526020019081526020016000206002015411156105b7578073ffffffffffffffffffffffffffffffffffffffff166108fc349081150290604051600060405180830381858888f193505050501580156105b5573d6000803e3d6000fd5b505b6105c2813384610bb5565b7fd99e4fad9ad6313b1feb588fa8e605e3a9873172f2024330c35dd2b4041a438633836040516105f392919061135f565b60405180910390a15050565b61060881610c4b565b73ffffffffffffffffffffffffffffffffffffffff163373ffffffffffffffffffffffffffffffffffffffff1614610675576040517f08c379a000000000000000000000000000000000000000000000000000000000815260040161066c9061140d565b60405180910390fd5b61067e816101fd565b156106be576040517f08c379a00000000000000000000000000000000000000000000000000000000081526004016106b590611479565b60405180910390fd5b6106c83330610cf0565b610707576040517f08c379a00000000000000000000000000000000000000000000000000000000081526004016106fe9061150b565b60405180910390fd5b60006040518060a001604052808381526020013373ffffffffffffffffffffffffffffffffffffffff1681526020018481526020016000815260200160011515815250905080600360008481526020019081526020016000206000820151816000015560208201518160010160006101000a81548173ffffffffffffffffffffffffffffffffffffffff021916908373ffffffffffffffffffffffffffffffffffffffff160217905550604082015181600201556060820151816003015560808201518160040160006101000a81548160ff02191690831515021790555090505060028290806001815401808255809150506001900390600052602060002001600090919091909150556001600280549050610823919061152b565b60036000848152602001908152602001600020600301819055507fd99e4fad9ad6313b1feb588fa8e605e3a9873172f2024330c35dd2b4041a4386338360405161086e9291906115ab565b60405180910390a1505050565b610884816101fd565b6108c3576040517f08c379a00000000000000000000000000000000000000000000000000000000081526004016108ba90611633565b60405180910390fd5b6003600082815260200190815260200160002060010160009054906101000a900473ffffffffffffffffffffffffffffffffffffffff1673ffffffffffffffffffffffffffffffffffffffff163373ffffffffffffffffffffffffffffffffffffffff1614610967576040517f08c379a000000000000000000000000000000000000000000000000000000000815260040161095e906116c5565b60405180910390fd5b600060036000838152602001908152602001600020600301549050600060026001600280549050610998919061152b565b815481106109a9576109a861119a565b5b9060005260206000200154905080600283815481106109cb576109ca61119a565b5b90600052602060002001819055508160036000838152602001908152602001600020600301819055506002805480610a0657610a056116e5565b5b600190038181906000526020600020016000905590557fd99e4fad9ad6313b1feb588fa8e605e3a9873172f2024330c35dd2b4041a43863384604051610a4d929190611760565b60405180910390a1505050565b600060036000838152602001908152602001600020600201549050919050565b610a83816101fd565b610ac2576040517f08c379a0000000000000000000000000000000000000000000000000000000008152600401610ab990611633565b60405180910390fd5b600060036000838152602001908152602001600020600301549050600060026001600280549050610af3919061152b565b81548110610b0457610b0361119a565b5b906000526020600020015490508060028381548110610b2657610b2561119a565b5b90600052602060002001819055508160036000838152602001908152602001600020600301819055506002805480610b6157610b606116e5565b5b600190038181906000526020600020016000905590557fd99e4fad9ad6313b1feb588fa8e605e3a9873172f2024330c35dd2b4041a43863384604051610ba8929190611760565b60405180910390a1505050565b600160009054906101000a900473ffffffffffffffffffffffffffffffffffffffff1673ffffffffffffffffffffffffffffffffffffffff166323b872dd8484846040518463ffffffff1660e01b8152600401610c149392919061179c565b600060405180830381600087803b158015610c2e57600080fd5b505af1158015610c42573d6000803e3d6000fd5b50505050505050565b6000600160009054906101000a900473ffffffffffffffffffffffffffffffffffffffff1673ffffffffffffffffffffffffffffffffffffffff16636352211e836040518263ffffffff1660e01b8152600401610ca891906117d3565b602060405180830381865afa158015610cc5573d6000803e3d6000fd5b505050506040513d601f19601f82011682018060405250810190610ce99190611803565b9050919050565b6000600160009054906101000a900473ffffffffffffffffffffffffffffffffffffffff1673ffffffffffffffffffffffffffffffffffffffff1663e985e9c584846040518363ffffffff1660e01b8152600401610d4f929190611830565b602060405180830381865afa158015610d6c573d6000803e3d6000fd5b505050506040513d601f19601f82011682018060405250810190610d909190611885565b905092915050565b600080fd5b600080fd5b6000819050919050565b610db581610da2565b8114610dc057600080fd5b50565b600081359050610dd281610dac565b92915050565b600060208284031215610dee57610ded610d98565b5b6000610dfc84828501610dc3565b91505092915050565b60008115159050919050565b610e1a81610e05565b82525050565b6000602082019050610e356000830184610e11565b92915050565b600073ffffffffffffffffffffffffffffffffffffffff82169050919050565b6000610e6682610e3b565b9050919050565b610e7681610e5b565b8114610e8157600080fd5b50565b600081359050610e9381610e6d565b92915050565b600080fd5b600080fd5b600080fd5b60008083601f840112610ebe57610ebd610e99565b5b8235905067ffffffffffffffff811115610edb57610eda610e9e565b5b602083019150836001820283011115610ef757610ef6610ea3565b5b9250929050565b600080600080600060808688031215610f1a57610f19610d98565b5b6000610f2888828901610e84565b9550506020610f3988828901610e84565b9450506040610f4a88828901610dc3565b935050606086013567ffffffffffffffff811115610f6b57610f6a610d9d565b5b610f7788828901610ea8565b92509250509295509295909350565b60007fffffffff0000000000000000000000000000000000000000000000000000000082169050919050565b610fbb81610f86565b82525050565b6000602082019050610fd66000830184610fb2565b92915050565b610fe581610e5b565b82525050565b610ff481610da2565b82525050565b600060a08201905061100f6000830188610fdc565b61101c6020830187610feb565b6110296040830186610feb565b6110366060830185610feb565b6110436080830184610e11565b9695505050505050565b600081519050919050565b600082825260208201905092915050565b6000819050602082019050919050565b61108281610da2565b82525050565b60006110948383611079565b60208301905092915050565b6000602082019050919050565b60006110b88261104d565b6110c28185611058565b93506110cd83611069565b8060005b838110156110fe5781516110e58882611088565b97506110f0836110a0565b9250506001810190506110d1565b5085935050505092915050565b6000602082019050818103600083015261112581846110ad565b905092915050565b60006020828403121561114357611142610d98565b5b600061115184828501610e84565b91505092915050565b6000806040838503121561117157611170610d98565b5b600061117f85828601610dc3565b925050602061119085828601610dc3565b9150509250929050565b7f4e487b7100000000000000000000000000000000000000000000000000000000600052603260045260246000fd5b600082825260208201905092915050565b7f4e6f20616374697665206f6666657220666f722070726f766964656420746f6b60008201527f656e200000000000000000000000000000000000000000000000000000000000602082015250565b60006112366023836111c9565b9150611241826111da565b604082019050919050565b6000602082019050818103600083015261126581611229565b9050919050565b7f4e487b7100000000000000000000000000000000000000000000000000000000600052604160045260246000fd5b7f4e487b7100000000000000000000000000000000000000000000000000000000600052601160045260246000fd5b60006112d582610da2565b91507fffffffffffffffffffffffffffffffffffffffffffffffffffffffffffffffff8214156113085761130761129b565b5b600182019050919050565b7f4275790000000000000000000000000000000000000000000000000000000000600082015250565b60006113496003836111c9565b915061135482611313565b602082019050919050565b600060608201905081810360008301526113788161133c565b90506113876020830185610fdc565b6113946040830184610feb565b9392505050565b7f4f6e6c79206f776e65722063616e2063726561746520616e206f66666572207460008201527f6f2073656c6c207468652066726f670000000000000000000000000000000000602082015250565b60006113f7602f836111c9565b91506114028261139b565b604082019050919050565b60006020820190508181036000830152611426816113ea565b9050919050565b7f416e206f6666657220616c726561647920657869737473000000000000000000600082015250565b60006114636017836111c9565b915061146e8261142d565b602082019050919050565b6000602082019050818103600083015261149281611456565b9050919050565b7f4d61726b6574706c616365206973206e6f7420736574757020617320616e206f60008201527f70657261746f7200000000000000000000000000000000000000000000000000602082015250565b60006114f56027836111c9565b915061150082611499565b604082019050919050565b60006020820190508181036000830152611524816114e8565b9050919050565b600061153682610da2565b915061154183610da2565b9250828210156115545761155361129b565b5b828203905092915050565b7f437265617465206f666665720000000000000000000000000000000000000000600082015250565b6000611595600c836111c9565b91506115a08261155f565b602082019050919050565b600060608201905081810360008301526115c481611588565b90506115d36020830185610fdc565b6115e06040830184610feb565b9392505050565b7f546f6b656e206f6666657220646f6573206e6f74206578697374000000000000600082015250565b600061161d601a836111c9565b9150611628826115e7565b602082019050919050565b6000602082019050818103600083015261164c81611610565b9050919050565b7f4f6e6c79207468652073656c6c6572206f66205f746f6b656e49642063616e2060008201527f72656d6f766520616e206f666665722e00000000000000000000000000000000602082015250565b60006116af6030836111c9565b91506116ba82611653565b604082019050919050565b600060208201905081810360008301526116de816116a2565b9050919050565b7f4e487b7100000000000000000000000000000000000000000000000000000000600052603160045260246000fd5b7f52656d6f7665206f666665720000000000000000000000000000000000000000600082015250565b600061174a600c836111c9565b915061175582611714565b602082019050919050565b600060608201905081810360008301526117798161173d565b90506117886020830185610fdc565b6117956040830184610feb565b9392505050565b60006060820190506117b16000830186610fdc565b6117be6020830185610fdc565b6117cb6040830184610feb565b949350505050565b60006020820190506117e86000830184610feb565b92915050565b6000815190506117fd81610e6d565b92915050565b60006020828403121561181957611818610d98565b5b6000611827848285016117ee565b91505092915050565b60006040820190506118456000830185610fdc565b6118526020830184610fdc565b9392505050565b61186281610e05565b811461186d57600080fd5b50565b60008151905061187f81611859565b92915050565b60006020828403121561189b5761189a610d98565b5b60006118a984828501611870565b9150509291505056fea2646970667358221220fe8eb4723bfe04401ca7bac7491b15aac15c4a360a41e37f37f9fb1bc8757d4e64736f6c634300080b0033",
  "immutableReferences": {},
  "source": "pragma solidity >=0.4.22 <0.9.0;\n\nimport \"./Owner.sol\";\nimport \"./IFroggyMarketplace.sol\";\n\ninterface FroggyContractOwnerOf {\n    function ownerOf(uint256 tokenId) external view returns (address owner);\n}\n\ninterface FroggyContractisOperator {\n    function isApprovedForAll(address _owner, address _operator) external view returns (bool);\n}\n\ninterface FroggyContractTransferFrom {\n    function transferFrom(address _from, address _to, uint256 _tokenId) external;\n}\n\ncontract FroggyMarketPlace is IfroggyMarketPlace, isOwner{\n    \n    address private froggyContractAddress; \n\n    constructor(address _froggyContractAddress){\n        setfroggyContract(_froggyContractAddress);\n    }\n\n    struct Offer{\n        uint256 tokenId;\n        address seller;\n        uint256 price;\n        uint256 index;\n        bool active;\n    }\n    \n    uint256[] tokenIds;\n\n    mapping(uint256 => Offer) tokenIdToOffer;\n\n    \n    /*\n    * Set the current froggyContract address and initialize the instance of froggycontract.\n    * Requirement: Only the contract owner can call.\n     me: needs to be called in the constructor \n    */\n    function setfroggyContract(address _froggyContractAddress) public onlyOwner{\n        froggyContractAddress = _froggyContractAddress;\n    }\n\n    /**\n    * Get the details about a offer for _tokenId. Throws an error if there is no active offer for _tokenId.\n     */\n    function getOffer(uint256 _tokenId) external view returns ( address seller, uint256 price, uint256 index, uint256 tokenId, bool active){\n        require(_offerExists(_tokenId) == true, \"No active offer for provided token \");\n        seller = tokenIdToOffer[_tokenId].seller;\n        price = tokenIdToOffer[_tokenId].price;\n        index = tokenIdToOffer[_tokenId].index;\n        tokenId = tokenIdToOffer[_tokenId].tokenId;\n        active = tokenIdToOffer[_tokenId].active;\n    }\n\n    /**\n    * Get all tokenId's that are currently for sale. Returns an empty arror if none exist.\n     */\n    function getAllTokenOnSale() external view  returns(uint256[] memory listOfOffers){\n        uint256 noOfOffers = tokenIds.length;\n        \n        uint256[] memory _listOfOffers = new uint256[](noOfOffers);\n\n        for(uint i = 0; i<noOfOffers; i++){\n            _listOfOffers[i] = tokenIds[i];\n        }\n\n        listOfOffers = _listOfOffers;\n    }\n\n    /**\n    * Creates a new offer for _tokenId for the price _price.\n    * Emits the MarketTransaction event with txType \"Create offer\"\n    * Requirement: Only the owner of _tokenId can create an offer.\n    * Requirement: There can only be one active offer for a token at a time.\n    * Requirement: Marketplace contract (this) needs to be an approved operator when the offer is created.\n     */\n    function setOffer(uint256 _price, uint256 _tokenId) external{\n        require(\n            msg.sender == _isOwner(_tokenId), \"Only owner can create an offer to sell the frog\" \n        );\n\n        require(!_offerExists(_tokenId),\"An offer already exists\");\n\n        require(_isOperator(msg.sender,address(this)),\"Marketplace is not setup as an operator\");\n        \n        Offer memory newOffer = Offer(_tokenId, msg.sender, _price,0,true);      \n        tokenIdToOffer[_tokenId] = newOffer;\n        tokenIds.push(_tokenId);\n        tokenIdToOffer[_tokenId].index = tokenIds.length - 1;\n\n        emit MarketTransaction(\"Create offer\", msg.sender, _tokenId);\n    }\n\n    function _isOwner(uint256 _tokenId) private view returns (address) {\n        return FroggyContractOwnerOf(froggyContractAddress).ownerOf(_tokenId);\n    }\n\n    function _offerExists(uint256 _tokenId) view public returns (bool) {\n        if(tokenIds.length == 0) return false;\n        return (tokenIds[tokenIdToOffer[_tokenId].index] == _tokenId);\n    }\n\n    function _isOperator(address _owner, address _operator) private view returns (bool) {\n        return FroggyContractisOperator(froggyContractAddress).isApprovedForAll(_owner, _operator);\n    }\n\n    \n    /**\n    * Removes an existing offer.    \n    * Emits the MarketTransaction event with txType \"Remove offer\"\n    * Requirement: Only the seller of _tokenId can remove an offer.\n     */\n    function removeOffer(uint256 _tokenId) public {\n        require(_offerExists(_tokenId),\"Token offer does not exist\");\n        require(msg.sender == tokenIdToOffer[_tokenId].seller,\"Only the seller of _tokenId can remove an offer.\");\n        //TODO do I need to delete from the mapping?\n        uint256 idxOfTokenToDelete = tokenIdToOffer[_tokenId].index;\n        uint256 tokenToMove = tokenIds[tokenIds.length-1];\n        tokenIds[idxOfTokenToDelete] =  tokenToMove;\n        tokenIdToOffer[tokenToMove].index = idxOfTokenToDelete;\n        tokenIds.pop();\n\n        emit MarketTransaction(\"Remove offer\", msg.sender,_tokenId);\n    }\n\n    /**\n    * Executes the purchase of _tokenId.\n    * Sends the funds to the seller and transfers the token using transferFrom in froggycontract.\n    * Emits the MarketTransaction event with txType \"Buy\".\n    * Requirement: The msg.value needs to equal the price of _tokenId\n    * Requirement: There must be an active offer for _tokenId\n     */\n    function buyfroggy(uint256 _tokenId) external payable{\n        require(msg.value == _getTokenPrice(_tokenId));\n        require(_offerExists(_tokenId));\n\n        address payable seller = payable(tokenIdToOffer[_tokenId].seller);\n        //delete the frog offer before paying out to prevent RENTRANCY \n        _boughtRemoveOffer(_tokenId);\n        if(tokenIdToOffer[_tokenId].price > 0){\n            seller.transfer(msg.value);    \n        }\n        //transfer the ownership to buyer         \n        _transferOwnership(seller,msg.sender,_tokenId);\n\n        emit MarketTransaction(\"Buy\", msg.sender, _tokenId);\n    }\n\n                                                                \n    function _getTokenPrice(uint256 _tokenId) private view returns(uint256){\n        return tokenIdToOffer[_tokenId].price;\n    }\n\n    function _boughtRemoveOffer(uint _tokenId) private{\n        require(_offerExists(_tokenId),\"Token offer does not exist\");\n\n        uint256 idxOfTokenToDelete = tokenIdToOffer[_tokenId].index;\n        uint256 tokenToMove = tokenIds[tokenIds.length-1];\n        tokenIds[idxOfTokenToDelete] =  tokenToMove;\n        tokenIdToOffer[tokenToMove].index = idxOfTokenToDelete;\n        tokenIds.pop();\n\n        emit MarketTransaction(\"Remove offer\", msg.sender,_tokenId);\n    }\n\n    function _transferOwnership(address _from, address _to, uint256 _tokenId) private{\n        FroggyContractTransferFrom(froggyContractAddress).transferFrom(_from, _to, _tokenId);\n    }\n    \n    // externally called function which proves this contract can handle ERC721 tokens   \n    function onERC721Received(address _operator, address _from, uint256 _tokenId, bytes calldata _data) external pure returns(bytes4){\n        return bytes4(keccak256(\"onERC721Received(address,address,uint256,bytes)\"));\n    }\n}",
  "sourcePath": "/Users/alfielloyd/Documents/GitHub/academy-kitties-template/contracts/FroggyMarketPlace.sol",
  "compiler": {
    "name": "solc",
    "version": "0.8.11+commit.d7f03943.Emscripten.clang"
  },
  "schemaVersion": "3.4.4",
  "updatedAt": "2022-03-02T19:59:32.608Z",
  "networkType": "ethereum",
  "devdoc": {
    "kind": "dev",
    "methods": {},
    "version": 1
  },
  "userdoc": {
    "kind": "user",
    "methods": {
      "buyfroggy(uint256)": {
        "notice": "Executes the purchase of _tokenId. Sends the funds to the seller and transfers the token using transferFrom in froggycontract. Emits the MarketTransaction event with txType \"Buy\". Requirement: The msg.value needs to equal the price of _tokenId Requirement: There must be an active offer for _tokenId"
      },
      "getAllTokenOnSale()": {
        "notice": "Get all tokenId's that are currently for sale. Returns an empty arror if none exist."
      },
      "getOffer(uint256)": {
        "notice": "Get the details about a offer for _tokenId. Throws an error if there is no active offer for _tokenId."
      },
      "removeOffer(uint256)": {
        "notice": "Removes an existing offer.     Emits the MarketTransaction event with txType \"Remove offer\" Requirement: Only the seller of _tokenId can remove an offer."
      },
      "setOffer(uint256,uint256)": {
        "notice": "Creates a new offer for _tokenId for the price _price. Emits the MarketTransaction event with txType \"Create offer\" Requirement: Only the owner of _tokenId can create an offer. Requirement: There can only be one active offer for a token at a time. Requirement: Marketplace contract (this) needs to be an approved operator when the offer is created."
      },
      "setfroggyContract(address)": {
        "notice": "Set the current froggyContract address and initialize the instance of froggycontract. Requirement: Only the contract owner can call.  me: external function "
      }
    },
    "version": 1
  }
}